{
  "_format": "hh-sol-artifact-1",
  "contractName": "CuyCollectionNft",
  "sourceName": "contracts/CuyCollectionNft.sol",
  "abi": [
    {
      "inputs": [
        {
          "internalType": "string",
          "name": "_name",
          "type": "string"
        },
        {
          "internalType": "string",
          "name": "_symbol",
          "type": "string"
        },
        {
          "internalType": "address",
          "name": "_bbtknContract",
          "type": "address"
        }
      ],
      "stateMutability": "nonpayable",
      "type": "constructor"
    },
    {
      "anonymous": false,
      "inputs": [
        {
          "indexed": true,
          "internalType": "address",
          "name": "owner",
          "type": "address"
        },
        {
          "indexed": true,
          "internalType": "address",
          "name": "approved",
          "type": "address"
        },
        {
          "indexed": true,
          "internalType": "uint256",
          "name": "tokenId",
          "type": "uint256"
        }
      ],
      "name": "Approval",
      "type": "event"
    },
    {
      "anonymous": false,
      "inputs": [
        {
          "indexed": true,
          "internalType": "address",
          "name": "owner",
          "type": "address"
        },
        {
          "indexed": true,
          "internalType": "address",
          "name": "operator",
          "type": "address"
        },
        {
          "indexed": false,
          "internalType": "bool",
          "name": "approved",
          "type": "bool"
        }
      ],
      "name": "ApprovalForAll",
      "type": "event"
    },
    {
      "anonymous": false,
      "inputs": [
        {
          "indexed": false,
          "internalType": "address",
          "name": "account",
          "type": "address"
        },
        {
          "indexed": false,
          "internalType": "uint256",
          "name": "id",
          "type": "uint256"
        }
      ],
      "name": "Burn",
      "type": "event"
    },
    {
      "anonymous": false,
      "inputs": [
        {
          "indexed": false,
          "internalType": "address",
          "name": "account",
          "type": "address"
        }
      ],
      "name": "Paused",
      "type": "event"
    },
    {
      "anonymous": false,
      "inputs": [
        {
          "indexed": true,
          "internalType": "bytes32",
          "name": "role",
          "type": "bytes32"
        },
        {
          "indexed": true,
          "internalType": "bytes32",
          "name": "previousAdminRole",
          "type": "bytes32"
        },
        {
          "indexed": true,
          "internalType": "bytes32",
          "name": "newAdminRole",
          "type": "bytes32"
        }
      ],
      "name": "RoleAdminChanged",
      "type": "event"
    },
    {
      "anonymous": false,
      "inputs": [
        {
          "indexed": true,
          "internalType": "bytes32",
          "name": "role",
          "type": "bytes32"
        },
        {
          "indexed": true,
          "internalType": "address",
          "name": "account",
          "type": "address"
        },
        {
          "indexed": true,
          "internalType": "address",
          "name": "sender",
          "type": "address"
        }
      ],
      "name": "RoleGranted",
      "type": "event"
    },
    {
      "anonymous": false,
      "inputs": [
        {
          "indexed": true,
          "internalType": "bytes32",
          "name": "role",
          "type": "bytes32"
        },
        {
          "indexed": true,
          "internalType": "address",
          "name": "account",
          "type": "address"
        },
        {
          "indexed": true,
          "internalType": "address",
          "name": "sender",
          "type": "address"
        }
      ],
      "name": "RoleRevoked",
      "type": "event"
    },
    {
      "anonymous": false,
      "inputs": [
        {
          "indexed": true,
          "internalType": "address",
          "name": "from",
          "type": "address"
        },
        {
          "indexed": true,
          "internalType": "address",
          "name": "to",
          "type": "address"
        },
        {
          "indexed": true,
          "internalType": "uint256",
          "name": "tokenId",
          "type": "uint256"
        }
      ],
      "name": "Transfer",
      "type": "event"
    },
    {
      "anonymous": false,
      "inputs": [
        {
          "indexed": false,
          "internalType": "address",
          "name": "account",
          "type": "address"
        }
      ],
      "name": "Unpaused",
      "type": "event"
    },
    {
      "inputs": [],
      "name": "DEFAULT_ADMIN_ROLE",
      "outputs": [
        {
          "internalType": "bytes32",
          "name": "",
          "type": "bytes32"
        }
      ],
      "stateMutability": "view",
      "type": "function"
    },
    {
      "inputs": [],
      "name": "MINTER_ROLE",
      "outputs": [
        {
          "internalType": "bytes32",
          "name": "",
          "type": "bytes32"
        }
      ],
      "stateMutability": "view",
      "type": "function"
    },
    {
      "inputs": [],
      "name": "PAUSER_ROLE",
      "outputs": [
        {
          "internalType": "bytes32",
          "name": "",
          "type": "bytes32"
        }
      ],
      "stateMutability": "view",
      "type": "function"
    },
    {
      "inputs": [
        {
          "internalType": "address",
          "name": "to",
          "type": "address"
        },
        {
          "internalType": "uint256",
          "name": "tokenId",
          "type": "uint256"
        }
      ],
      "name": "approve",
      "outputs": [],
      "stateMutability": "nonpayable",
      "type": "function"
    },
    {
      "inputs": [
        {
          "internalType": "address",
          "name": "owner",
          "type": "address"
        }
      ],
      "name": "balanceOf",
      "outputs": [
        {
          "internalType": "uint256",
          "name": "",
          "type": "uint256"
        }
      ],
      "stateMutability": "view",
      "type": "function"
    },
    {
      "inputs": [],
      "name": "bbtknContract",
      "outputs": [
        {
          "internalType": "contract BBTKN",
          "name": "",
          "type": "address"
        }
      ],
      "stateMutability": "view",
      "type": "function"
    },
    {
      "inputs": [
        {
          "internalType": "uint256",
          "name": "tokenId",
          "type": "uint256"
        }
      ],
      "name": "burn",
      "outputs": [],
      "stateMutability": "nonpayable",
      "type": "function"
    },
    {
      "inputs": [
        {
          "internalType": "uint256",
          "name": "id",
          "type": "uint256"
        }
      ],
      "name": "buyBack",
      "outputs": [],
      "stateMutability": "nonpayable",
      "type": "function"
    },
    {
      "inputs": [
        {
          "internalType": "uint256",
          "name": "tokenId",
          "type": "uint256"
        }
      ],
      "name": "getApproved",
      "outputs": [
        {
          "internalType": "address",
          "name": "",
          "type": "address"
        }
      ],
      "stateMutability": "view",
      "type": "function"
    },
    {
      "inputs": [
        {
          "internalType": "bytes32",
          "name": "role",
          "type": "bytes32"
        }
      ],
      "name": "getRoleAdmin",
      "outputs": [
        {
          "internalType": "bytes32",
          "name": "",
          "type": "bytes32"
        }
      ],
      "stateMutability": "view",
      "type": "function"
    },
    {
      "inputs": [
        {
          "internalType": "bytes32",
          "name": "role",
          "type": "bytes32"
        },
        {
          "internalType": "address",
          "name": "account",
          "type": "address"
        }
      ],
      "name": "grantRole",
      "outputs": [],
      "stateMutability": "nonpayable",
      "type": "function"
    },
    {
      "inputs": [
        {
          "internalType": "bytes32",
          "name": "role",
          "type": "bytes32"
        },
        {
          "internalType": "address",
          "name": "account",
          "type": "address"
        }
      ],
      "name": "hasRole",
      "outputs": [
        {
          "internalType": "bool",
          "name": "",
          "type": "bool"
        }
      ],
      "stateMutability": "view",
      "type": "function"
    },
    {
      "inputs": [
        {
          "internalType": "address",
          "name": "owner",
          "type": "address"
        },
        {
          "internalType": "address",
          "name": "operator",
          "type": "address"
        }
      ],
      "name": "isApprovedForAll",
      "outputs": [
        {
          "internalType": "bool",
          "name": "",
          "type": "bool"
        }
      ],
      "stateMutability": "view",
      "type": "function"
    },
    {
      "inputs": [],
      "name": "name",
      "outputs": [
        {
          "internalType": "string",
          "name": "",
          "type": "string"
        }
      ],
      "stateMutability": "view",
      "type": "function"
    },
    {
      "inputs": [
        {
          "internalType": "uint256",
          "name": "tokenId",
          "type": "uint256"
        }
      ],
      "name": "ownerOf",
      "outputs": [
        {
          "internalType": "address",
          "name": "",
          "type": "address"
        }
      ],
      "stateMutability": "view",
      "type": "function"
    },
    {
      "inputs": [],
      "name": "pause",
      "outputs": [],
      "stateMutability": "nonpayable",
      "type": "function"
    },
    {
      "inputs": [],
      "name": "paused",
      "outputs": [
        {
          "internalType": "bool",
          "name": "",
          "type": "bool"
        }
      ],
      "stateMutability": "view",
      "type": "function"
    },
    {
      "inputs": [
        {
          "internalType": "bytes32",
          "name": "role",
          "type": "bytes32"
        },
        {
          "internalType": "address",
          "name": "account",
          "type": "address"
        }
      ],
      "name": "renounceRole",
      "outputs": [],
      "stateMutability": "nonpayable",
      "type": "function"
    },
    {
      "inputs": [
        {
          "internalType": "bytes32",
          "name": "role",
          "type": "bytes32"
        },
        {
          "internalType": "address",
          "name": "account",
          "type": "address"
        }
      ],
      "name": "revokeRole",
      "outputs": [],
      "stateMutability": "nonpayable",
      "type": "function"
    },
    {
      "inputs": [],
      "name": "root",
      "outputs": [
        {
          "internalType": "bytes32",
          "name": "",
          "type": "bytes32"
        }
      ],
      "stateMutability": "view",
      "type": "function"
    },
    {
      "inputs": [
        {
          "internalType": "address",
          "name": "to",
          "type": "address"
        },
        {
          "internalType": "uint256",
          "name": "tokenId",
          "type": "uint256"
        }
      ],
      "name": "safeMint",
      "outputs": [],
      "stateMutability": "nonpayable",
      "type": "function"
    },
    {
      "inputs": [
        {
          "internalType": "address",
          "name": "to",
          "type": "address"
        },
        {
          "internalType": "uint256",
          "name": "tokenId",
          "type": "uint256"
        },
        {
          "internalType": "bytes32[]",
          "name": "proofs",
          "type": "bytes32[]"
        }
      ],
      "name": "safeMintWhiteList",
      "outputs": [],
      "stateMutability": "nonpayable",
      "type": "function"
    },
    {
      "inputs": [
        {
          "internalType": "address",
          "name": "from",
          "type": "address"
        },
        {
          "internalType": "address",
          "name": "to",
          "type": "address"
        },
        {
          "internalType": "uint256",
          "name": "tokenId",
          "type": "uint256"
        }
      ],
      "name": "safeTransferFrom",
      "outputs": [],
      "stateMutability": "nonpayable",
      "type": "function"
    },
    {
      "inputs": [
        {
          "internalType": "address",
          "name": "from",
          "type": "address"
        },
        {
          "internalType": "address",
          "name": "to",
          "type": "address"
        },
        {
          "internalType": "uint256",
          "name": "tokenId",
          "type": "uint256"
        },
        {
          "internalType": "bytes",
          "name": "data",
          "type": "bytes"
        }
      ],
      "name": "safeTransferFrom",
      "outputs": [],
      "stateMutability": "nonpayable",
      "type": "function"
    },
    {
      "inputs": [
        {
          "internalType": "address",
          "name": "operator",
          "type": "address"
        },
        {
          "internalType": "bool",
          "name": "approved",
          "type": "bool"
        }
      ],
      "name": "setApprovalForAll",
      "outputs": [],
      "stateMutability": "nonpayable",
      "type": "function"
    },
    {
      "inputs": [
        {
          "internalType": "bytes4",
          "name": "interfaceId",
          "type": "bytes4"
        }
      ],
      "name": "supportsInterface",
      "outputs": [
        {
          "internalType": "bool",
          "name": "",
          "type": "bool"
        }
      ],
      "stateMutability": "view",
      "type": "function"
    },
    {
      "inputs": [],
      "name": "symbol",
      "outputs": [
        {
          "internalType": "string",
          "name": "",
          "type": "string"
        }
      ],
      "stateMutability": "view",
      "type": "function"
    },
    {
      "inputs": [
        {
          "internalType": "uint256",
          "name": "tokenId",
          "type": "uint256"
        }
      ],
      "name": "tokenURI",
      "outputs": [
        {
          "internalType": "string",
          "name": "",
          "type": "string"
        }
      ],
      "stateMutability": "view",
      "type": "function"
    },
    {
      "inputs": [
        {
          "internalType": "address",
          "name": "from",
          "type": "address"
        },
        {
          "internalType": "address",
          "name": "to",
          "type": "address"
        },
        {
          "internalType": "uint256",
          "name": "tokenId",
          "type": "uint256"
        }
      ],
      "name": "transferFrom",
      "outputs": [],
      "stateMutability": "nonpayable",
      "type": "function"
    },
    {
      "inputs": [],
      "name": "unpause",
      "outputs": [],
      "stateMutability": "nonpayable",
      "type": "function"
    }
  ],
  "bytecode": "0x60806040523480156200001157600080fd5b50604051620048db380380620048db83398181016040528101906200003791906200049a565b828281600090816200004a91906200077f565b5080600190816200005c91906200077f565b5050506000600660006101000a81548160ff0219169083151502179055506200008f6000801b336200013d60201b60201c565b620000c17f65d7a28e3265b37a6474929f336521b332c1681b933f6cb9f3376673440d862a336200013d60201b60201c565b620000f37f9f2df0fed2c77648de5860a4cc508cd0818c85b8b8a1ab4ceeef8d981c8956a6336200013d60201b60201c565b80600960006101000a81548173ffffffffffffffffffffffffffffffffffffffff021916908373ffffffffffffffffffffffffffffffffffffffff16021790555050505062000866565b6200014f82826200022f60201b60201c565b6200022b5760016007600084815260200190815260200160002060000160008373ffffffffffffffffffffffffffffffffffffffff1673ffffffffffffffffffffffffffffffffffffffff16815260200190815260200160002060006101000a81548160ff021916908315150217905550620001d06200029a60201b60201c565b73ffffffffffffffffffffffffffffffffffffffff168173ffffffffffffffffffffffffffffffffffffffff16837f2f8788117e7eff1d82e926ec794901d17c78024a50270940304540a733656f0d60405160405180910390a45b5050565b60006007600084815260200190815260200160002060000160008373ffffffffffffffffffffffffffffffffffffffff1673ffffffffffffffffffffffffffffffffffffffff16815260200190815260200160002060009054906101000a900460ff16905092915050565b600033905090565b6000604051905090565b600080fd5b600080fd5b600080fd5b600080fd5b6000601f19601f8301169050919050565b7f4e487b7100000000000000000000000000000000000000000000000000000000600052604160045260246000fd5b6200030b82620002c0565b810181811067ffffffffffffffff821117156200032d576200032c620002d1565b5b80604052505050565b600062000342620002a2565b905062000350828262000300565b919050565b600067ffffffffffffffff821115620003735762000372620002d1565b5b6200037e82620002c0565b9050602081019050919050565b60005b83811015620003ab5780820151818401526020810190506200038e565b60008484015250505050565b6000620003ce620003c88462000355565b62000336565b905082815260208101848484011115620003ed57620003ec620002bb565b5b620003fa8482856200038b565b509392505050565b600082601f8301126200041a5762000419620002b6565b5b81516200042c848260208601620003b7565b91505092915050565b600073ffffffffffffffffffffffffffffffffffffffff82169050919050565b6000620004628262000435565b9050919050565b620004748162000455565b81146200048057600080fd5b50565b600081519050620004948162000469565b92915050565b600080600060608486031215620004b657620004b5620002ac565b5b600084015167ffffffffffffffff811115620004d757620004d6620002b1565b5b620004e58682870162000402565b935050602084015167ffffffffffffffff811115620005095762000508620002b1565b5b620005178682870162000402565b92505060406200052a8682870162000483565b9150509250925092565b600081519050919050565b7f4e487b7100000000000000000000000000000000000000000000000000000000600052602260045260246000fd5b600060028204905060018216806200058757607f821691505b6020821081036200059d576200059c6200053f565b5b50919050565b60008190508160005260206000209050919050565b60006020601f8301049050919050565b600082821b905092915050565b600060088302620006077fffffffffffffffffffffffffffffffffffffffffffffffffffffffffffffffff82620005c8565b620006138683620005c8565b95508019841693508086168417925050509392505050565b6000819050919050565b6000819050919050565b6000620006606200065a62000654846200062b565b62000635565b6200062b565b9050919050565b6000819050919050565b6200067c836200063f565b620006946200068b8262000667565b848454620005d5565b825550505050565b600090565b620006ab6200069c565b620006b881848462000671565b505050565b5b81811015620006e057620006d4600082620006a1565b600181019050620006be565b5050565b601f8211156200072f57620006f981620005a3565b6200070484620005b8565b8101602085101562000714578190505b6200072c6200072385620005b8565b830182620006bd565b50505b505050565b600082821c905092915050565b6000620007546000198460080262000734565b1980831691505092915050565b60006200076f838362000741565b9150826002028217905092915050565b6200078a8262000534565b67ffffffffffffffff811115620007a657620007a5620002d1565b5b620007b282546200056e565b620007bf828285620006e4565b600060209050601f831160018114620007f75760008415620007e2578287015190505b620007ee858262000761565b8655506200085e565b601f1984166200080786620005a3565b60005b8281101562000831578489015182556001820191506020850194506020810190506200080a565b868310156200085157848901516200084d601f89168262000741565b8355505b6001600288020188555050505b505050505050565b61406580620008766000396000f3fe608060405234801561001057600080fd5b50600436106101da5760003560e01c8063662c2d9611610104578063a22cb465116100a2578063d547741f11610071578063d547741f1461052b578063e63ab1e914610547578063e985e9c514610565578063ebf0c71714610595576101da565b8063a22cb465146104a5578063b88d4fde146104c1578063c87b56dd146104dd578063d53913931461050d576101da565b806391d14854116100de57806391d148541461041d57806395d89b411461044d578063a14481941461046b578063a217fddf14610487576101da565b8063662c2d96146103c757806370a08231146103e35780638456cb5914610413576101da565b80632f2ff15d1161017c57806342966c681161014b57806342966c681461033f5780634d5a9a2c1461035b5780635c975abb146103795780636352211e14610397576101da565b80632f2ff15d146102e157806336568abe146102fd5780633f4ba83a1461031957806342842e0e14610323576101da565b8063081812fc116101b8578063081812fc14610249578063095ea7b31461027957806323b872dd14610295578063248a9ca3146102b1576101da565b806301ffc9a7146101df578063053f90401461020f57806306fdde031461022b575b600080fd5b6101f960048036038101906101f49190612979565b6105b3565b60405161020691906129c1565b60405180910390f35b61022960048036038101906102249190612a12565b6105c5565b005b61023361076c565b6040516102409190612acf565b60405180910390f35b610263600480360381019061025e9190612a12565b6107fe565b6040516102709190612b32565b60405180910390f35b610293600480360381019061028e9190612b79565b610844565b005b6102af60048036038101906102aa9190612bb9565b61095b565b005b6102cb60048036038101906102c69190612c42565b6109bb565b6040516102d89190612c7e565b60405180910390f35b6102fb60048036038101906102f69190612c99565b6109db565b005b61031760048036038101906103129190612c99565b6109fc565b005b610321610a7f565b005b61033d60048036038101906103389190612bb9565b610ab4565b005b61035960048036038101906103549190612a12565b610ad4565b005b610363610b31565b6040516103709190612d38565b60405180910390f35b610381610b57565b60405161038e91906129c1565b60405180910390f35b6103b160048036038101906103ac9190612a12565b610b6e565b6040516103be9190612b32565b60405180910390f35b6103e160048036038101906103dc9190612db8565b610bf4565b005b6103fd60048036038101906103f89190612e2c565b610d59565b60405161040a9190612e68565b60405180910390f35b61041b610e10565b005b61043760048036038101906104329190612c99565b610e45565b60405161044491906129c1565b60405180910390f35b610455610eb0565b6040516104629190612acf565b60405180910390f35b61048560048036038101906104809190612b79565b610f42565b005b61048f610fd5565b60405161049c9190612c7e565b60405180910390f35b6104bf60048036038101906104ba9190612eaf565b610fdc565b005b6104db60048036038101906104d6919061301f565b610ff2565b005b6104f760048036038101906104f29190612a12565b611054565b6040516105049190612acf565b60405180910390f35b6105156110bc565b6040516105229190612c7e565b60405180910390f35b61054560048036038101906105409190612c99565b6110e0565b005b61054f611101565b60405161055c9190612c7e565b60405180910390f35b61057f600480360381019061057a91906130a2565b611125565b60405161058c91906129c1565b60405180910390f35b61059d6111b9565b6040516105aa9190612c7e565b60405180910390f35b60006105be826111bf565b9050919050565b6105cd611239565b6103e881101580156105e157506107cf8111155b610620576040517f08c379a00000000000000000000000000000000000000000000000000000000081526004016106179061312e565b60405180910390fd5b3373ffffffffffffffffffffffffffffffffffffffff1661064082610b6e565b73ffffffffffffffffffffffffffffffffffffffff1614610696576040517f08c379a000000000000000000000000000000000000000000000000000000000815260040161068d9061319a565b60405180910390fd5b61069f81611283565b7fcc16f5dbb4873280815c1ee09dbd06736cffcc184412cf7a71a0fdb75d397ca533826040516106d09291906131ba565b60405180910390a1600960009054906101000a900473ffffffffffffffffffffffffffffffffffffffff1673ffffffffffffffffffffffffffffffffffffffff166340c10f19336127106040518363ffffffff1660e01b815260040161073792919061321e565b600060405180830381600087803b15801561075157600080fd5b505af1158015610765573d6000803e3d6000fd5b5050505050565b60606000805461077b90613276565b80601f01602080910402602001604051908101604052809291908181526020018280546107a790613276565b80156107f45780601f106107c9576101008083540402835291602001916107f4565b820191906000526020600020905b8154815290600101906020018083116107d757829003601f168201915b5050505050905090565b6000610809826113d1565b6004600083815260200190815260200160002060009054906101000a900473ffffffffffffffffffffffffffffffffffffffff169050919050565b600061084f82610b6e565b90508073ffffffffffffffffffffffffffffffffffffffff168373ffffffffffffffffffffffffffffffffffffffff16036108bf576040517f08c379a00000000000000000000000000000000000000000000000000000000081526004016108b690613319565b60405180910390fd5b8073ffffffffffffffffffffffffffffffffffffffff166108de61141c565b73ffffffffffffffffffffffffffffffffffffffff16148061090d575061090c8161090761141c565b611125565b5b61094c576040517f08c379a0000000000000000000000000000000000000000000000000000000008152600401610943906133ab565b60405180910390fd5b6109568383611424565b505050565b61096c61096661141c565b826114dd565b6109ab576040517f08c379a00000000000000000000000000000000000000000000000000000000081526004016109a29061343d565b60405180910390fd5b6109b6838383611572565b505050565b600060076000838152602001908152602001600020600101549050919050565b6109e4826109bb565b6109ed8161186b565b6109f7838361187f565b505050565b610a0461141c565b73ffffffffffffffffffffffffffffffffffffffff168173ffffffffffffffffffffffffffffffffffffffff1614610a71576040517f08c379a0000000000000000000000000000000000000000000000000000000008152600401610a68906134cf565b60405180910390fd5b610a7b8282611960565b5050565b7f65d7a28e3265b37a6474929f336521b332c1681b933f6cb9f3376673440d862a610aa98161186b565b610ab1611a42565b50565b610acf83838360405180602001604052806000815250610ff2565b505050565b610adc611239565b610ae633826114dd565b610b25576040517f08c379a0000000000000000000000000000000000000000000000000000000008152600401610b1c9061353b565b60405180910390fd5b610b2e81611283565b50565b600960009054906101000a900473ffffffffffffffffffffffffffffffffffffffff1681565b6000600660009054906101000a900460ff16905090565b600080610b7a83611aa5565b9050600073ffffffffffffffffffffffffffffffffffffffff168173ffffffffffffffffffffffffffffffffffffffff1603610beb576040517f08c379a0000000000000000000000000000000000000000000000000000000008152600401610be2906135a7565b60405180910390fd5b80915050919050565b610bfc611239565b60008310158015610c0f57506103e78311155b610c4e576040517f08c379a0000000000000000000000000000000000000000000000000000000008152600401610c4590613613565b60405180910390fd5b60008282905011610c94576040517f08c379a0000000000000000000000000000000000000000000000000000000008152600401610c8b9061367f565b60405180910390fd5b610d0a828280806020026020016040519081016040528093929190818152602001838360200280828437600081840152601f19601f820116905080830192505050505050506008548686604051602001610cef929190613708565b60405160208183030381529060405280519060200120611ae2565b610d49576040517f08c379a0000000000000000000000000000000000000000000000000000000008152600401610d4090613780565b60405180910390fd5b610d538484611af9565b50505050565b60008073ffffffffffffffffffffffffffffffffffffffff168273ffffffffffffffffffffffffffffffffffffffff1603610dc9576040517f08c379a0000000000000000000000000000000000000000000000000000000008152600401610dc090613812565b60405180910390fd5b600360008373ffffffffffffffffffffffffffffffffffffffff1673ffffffffffffffffffffffffffffffffffffffff168152602001908152602001600020549050919050565b7f65d7a28e3265b37a6474929f336521b332c1681b933f6cb9f3376673440d862a610e3a8161186b565b610e42611b17565b50565b60006007600084815260200190815260200160002060000160008373ffffffffffffffffffffffffffffffffffffffff1673ffffffffffffffffffffffffffffffffffffffff16815260200190815260200160002060009054906101000a900460ff16905092915050565b606060018054610ebf90613276565b80601f0160208091040260200160405190810160405280929190818152602001828054610eeb90613276565b8015610f385780601f10610f0d57610100808354040283529160200191610f38565b820191906000526020600020905b815481529060010190602001808311610f1b57829003601f168201915b5050505050905090565b7f9f2df0fed2c77648de5860a4cc508cd0818c85b8b8a1ab4ceeef8d981c8956a6610f6c8161186b565b610f74611239565b60008210158015610f8757506103e78211155b610fc6576040517f08c379a0000000000000000000000000000000000000000000000000000000008152600401610fbd90613613565b60405180910390fd5b610fd08383611af9565b505050565b6000801b81565b610fee610fe761141c565b8383611b7a565b5050565b611003610ffd61141c565b836114dd565b611042576040517f08c379a00000000000000000000000000000000000000000000000000000000081526004016110399061343d565b60405180910390fd5b61104e84848484611ce6565b50505050565b606061105f826113d1565b6000611069611d42565b9050600081511161108957604051806020016040528060008152506110b4565b8061109384611d62565b6040516020016110a492919061386e565b6040516020818303038152906040525b915050919050565b7f9f2df0fed2c77648de5860a4cc508cd0818c85b8b8a1ab4ceeef8d981c8956a681565b6110e9826109bb565b6110f28161186b565b6110fc8383611960565b505050565b7f65d7a28e3265b37a6474929f336521b332c1681b933f6cb9f3376673440d862a81565b6000600560008473ffffffffffffffffffffffffffffffffffffffff1673ffffffffffffffffffffffffffffffffffffffff16815260200190815260200160002060008373ffffffffffffffffffffffffffffffffffffffff1673ffffffffffffffffffffffffffffffffffffffff16815260200190815260200160002060009054906101000a900460ff16905092915050565b60085481565b60007f7965db0b000000000000000000000000000000000000000000000000000000007bffffffffffffffffffffffffffffffffffffffffffffffffffffffff1916827bffffffffffffffffffffffffffffffffffffffffffffffffffffffff19161480611232575061123182611e30565b5b9050919050565b611241610b57565b15611281576040517f08c379a0000000000000000000000000000000000000000000000000000000008152600401611278906138de565b60405180910390fd5b565b600061128e82610b6e565b905061129e816000846001611f12565b6112a782610b6e565b90506004600083815260200190815260200160002060006101000a81549073ffffffffffffffffffffffffffffffffffffffff02191690556001600360008373ffffffffffffffffffffffffffffffffffffffff1673ffffffffffffffffffffffffffffffffffffffff168152602001908152602001600020600082825403925050819055506002600083815260200190815260200160002060006101000a81549073ffffffffffffffffffffffffffffffffffffffff021916905581600073ffffffffffffffffffffffffffffffffffffffff168273ffffffffffffffffffffffffffffffffffffffff167fddf252ad1be2c89b69c2b068fc378daa952ba7f163c4a11628f55a4df523b3ef60405160405180910390a46113cd816000846001611f18565b5050565b6113da81611f1e565b611419576040517f08c379a0000000000000000000000000000000000000000000000000000000008152600401611410906135a7565b60405180910390fd5b50565b600033905090565b816004600083815260200190815260200160002060006101000a81548173ffffffffffffffffffffffffffffffffffffffff021916908373ffffffffffffffffffffffffffffffffffffffff160217905550808273ffffffffffffffffffffffffffffffffffffffff1661149783610b6e565b73ffffffffffffffffffffffffffffffffffffffff167f8c5be1e5ebec7d5bd14f71427d1e84f3dd0314c0f7b2291e5b200ac8c7c3b92560405160405180910390a45050565b6000806114e983610b6e565b90508073ffffffffffffffffffffffffffffffffffffffff168473ffffffffffffffffffffffffffffffffffffffff16148061152b575061152a8185611125565b5b8061156957508373ffffffffffffffffffffffffffffffffffffffff16611551846107fe565b73ffffffffffffffffffffffffffffffffffffffff16145b91505092915050565b8273ffffffffffffffffffffffffffffffffffffffff1661159282610b6e565b73ffffffffffffffffffffffffffffffffffffffff16146115e8576040517f08c379a00000000000000000000000000000000000000000000000000000000081526004016115df90613970565b60405180910390fd5b600073ffffffffffffffffffffffffffffffffffffffff168273ffffffffffffffffffffffffffffffffffffffff1603611657576040517f08c379a000000000000000000000000000000000000000000000000000000000815260040161164e90613a02565b60405180910390fd5b6116648383836001611f12565b8273ffffffffffffffffffffffffffffffffffffffff1661168482610b6e565b73ffffffffffffffffffffffffffffffffffffffff16146116da576040517f08c379a00000000000000000000000000000000000000000000000000000000081526004016116d190613970565b60405180910390fd5b6004600082815260200190815260200160002060006101000a81549073ffffffffffffffffffffffffffffffffffffffff02191690556001600360008573ffffffffffffffffffffffffffffffffffffffff1673ffffffffffffffffffffffffffffffffffffffff168152602001908152602001600020600082825403925050819055506001600360008473ffffffffffffffffffffffffffffffffffffffff1673ffffffffffffffffffffffffffffffffffffffff16815260200190815260200160002060008282540192505081905550816002600083815260200190815260200160002060006101000a81548173ffffffffffffffffffffffffffffffffffffffff021916908373ffffffffffffffffffffffffffffffffffffffff160217905550808273ffffffffffffffffffffffffffffffffffffffff168473ffffffffffffffffffffffffffffffffffffffff167fddf252ad1be2c89b69c2b068fc378daa952ba7f163c4a11628f55a4df523b3ef60405160405180910390a46118668383836001611f18565b505050565b61187c8161187761141c565b611f5f565b50565b6118898282610e45565b61195c5760016007600084815260200190815260200160002060000160008373ffffffffffffffffffffffffffffffffffffffff1673ffffffffffffffffffffffffffffffffffffffff16815260200190815260200160002060006101000a81548160ff02191690831515021790555061190161141c565b73ffffffffffffffffffffffffffffffffffffffff168173ffffffffffffffffffffffffffffffffffffffff16837f2f8788117e7eff1d82e926ec794901d17c78024a50270940304540a733656f0d60405160405180910390a45b5050565b61196a8282610e45565b15611a3e5760006007600084815260200190815260200160002060000160008373ffffffffffffffffffffffffffffffffffffffff1673ffffffffffffffffffffffffffffffffffffffff16815260200190815260200160002060006101000a81548160ff0219169083151502179055506119e361141c565b73ffffffffffffffffffffffffffffffffffffffff168173ffffffffffffffffffffffffffffffffffffffff16837ff6391f5c32d9c69d2a47ea670b442974b53935d1edc7fd64eb21e047a839171b60405160405180910390a45b5050565b611a4a611fe4565b6000600660006101000a81548160ff0219169083151502179055507f5db9ee0a495bf2e6ff9c91a7834c1ba4fdd244a5e8aa4e537bd38aeae4b073aa611a8e61141c565b604051611a9b9190612b32565b60405180910390a1565b60006002600083815260200190815260200160002060009054906101000a900473ffffffffffffffffffffffffffffffffffffffff169050919050565b600082611aef858461202d565b1490509392505050565b611b13828260405180602001604052806000815250612083565b5050565b611b1f611239565b6001600660006101000a81548160ff0219169083151502179055507f62e78cea01bee320cd4e420270b5ea74000d11b0c9f74754ebdbfc544b05a258611b6361141c565b604051611b709190612b32565b60405180910390a1565b8173ffffffffffffffffffffffffffffffffffffffff168373ffffffffffffffffffffffffffffffffffffffff1603611be8576040517f08c379a0000000000000000000000000000000000000000000000000000000008152600401611bdf90613a6e565b60405180910390fd5b80600560008573ffffffffffffffffffffffffffffffffffffffff1673ffffffffffffffffffffffffffffffffffffffff16815260200190815260200160002060008473ffffffffffffffffffffffffffffffffffffffff1673ffffffffffffffffffffffffffffffffffffffff16815260200190815260200160002060006101000a81548160ff0219169083151502179055508173ffffffffffffffffffffffffffffffffffffffff168373ffffffffffffffffffffffffffffffffffffffff167f17307eab39ab6107e8899845ad3d59bd9653f200f220920489ca2b5937696c3183604051611cd991906129c1565b60405180910390a3505050565b611cf1848484611572565b611cfd848484846120de565b611d3c576040517f08c379a0000000000000000000000000000000000000000000000000000000008152600401611d3390613b00565b60405180910390fd5b50505050565b6060604051806060016040528060368152602001613ffa60369139905090565b606060006001611d7184612265565b01905060008167ffffffffffffffff811115611d9057611d8f612ef4565b5b6040519080825280601f01601f191660200182016040528015611dc25781602001600182028036833780820191505090505b509050600082602001820190505b600115611e25578080600190039150507f3031323334353637383961626364656600000000000000000000000000000000600a86061a8153600a8581611e1957611e18613b20565b5b04945060008503611dd0575b819350505050919050565b60007f80ac58cd000000000000000000000000000000000000000000000000000000007bffffffffffffffffffffffffffffffffffffffffffffffffffffffff1916827bffffffffffffffffffffffffffffffffffffffffffffffffffffffff19161480611efb57507f5b5e139f000000000000000000000000000000000000000000000000000000007bffffffffffffffffffffffffffffffffffffffffffffffffffffffff1916827bffffffffffffffffffffffffffffffffffffffffffffffffffffffff1916145b80611f0b5750611f0a826123b8565b5b9050919050565b50505050565b50505050565b60008073ffffffffffffffffffffffffffffffffffffffff16611f4083611aa5565b73ffffffffffffffffffffffffffffffffffffffff1614159050919050565b611f698282610e45565b611fe057611f7681612422565b611f848360001c602061244f565b604051602001611f95929190613be7565b6040516020818303038152906040526040517f08c379a0000000000000000000000000000000000000000000000000000000008152600401611fd79190612acf565b60405180910390fd5b5050565b611fec610b57565b61202b576040517f08c379a000000000000000000000000000000000000000000000000000000000815260040161202290613c6d565b60405180910390fd5b565b60008082905060005b8451811015612078576120638286838151811061205657612055613c8d565b5b602002602001015161268b565b9150808061207090613ceb565b915050612036565b508091505092915050565b61208d83836126b6565b61209a60008484846120de565b6120d9576040517f08c379a00000000000000000000000000000000000000000000000000000000081526004016120d090613b00565b60405180910390fd5b505050565b60006120ff8473ffffffffffffffffffffffffffffffffffffffff166128d3565b15612258578373ffffffffffffffffffffffffffffffffffffffff1663150b7a0261212861141c565b8786866040518563ffffffff1660e01b815260040161214a9493929190613d88565b6020604051808303816000875af192505050801561218657506040513d601f19601f820116820180604052508101906121839190613de9565b60015b612208573d80600081146121b6576040519150601f19603f3d011682016040523d82523d6000602084013e6121bb565b606091505b506000815103612200576040517f08c379a00000000000000000000000000000000000000000000000000000000081526004016121f790613b00565b60405180910390fd5b805181602001fd5b63150b7a0260e01b7bffffffffffffffffffffffffffffffffffffffffffffffffffffffff1916817bffffffffffffffffffffffffffffffffffffffffffffffffffffffff19161491505061225d565b600190505b949350505050565b600080600090507a184f03e93ff9f4daa797ed6e38ed64bf6a1f01000000000000000083106122c3577a184f03e93ff9f4daa797ed6e38ed64bf6a1f01000000000000000083816122b9576122b8613b20565b5b0492506040810190505b6d04ee2d6d415b85acef81000000008310612300576d04ee2d6d415b85acef810000000083816122f6576122f5613b20565b5b0492506020810190505b662386f26fc10000831061232f57662386f26fc10000838161232557612324613b20565b5b0492506010810190505b6305f5e1008310612358576305f5e100838161234e5761234d613b20565b5b0492506008810190505b612710831061237d57612710838161237357612372613b20565b5b0492506004810190505b606483106123a0576064838161239657612395613b20565b5b0492506002810190505b600a83106123af576001810190505b80915050919050565b60007f01ffc9a7000000000000000000000000000000000000000000000000000000007bffffffffffffffffffffffffffffffffffffffffffffffffffffffff1916827bffffffffffffffffffffffffffffffffffffffffffffffffffffffff1916149050919050565b60606124488273ffffffffffffffffffffffffffffffffffffffff16601460ff1661244f565b9050919050565b6060600060028360026124629190613e16565b61246c9190613e58565b67ffffffffffffffff81111561248557612484612ef4565b5b6040519080825280601f01601f1916602001820160405280156124b75781602001600182028036833780820191505090505b5090507f3000000000000000000000000000000000000000000000000000000000000000816000815181106124ef576124ee613c8d565b5b60200101907effffffffffffffffffffffffffffffffffffffffffffffffffffffffffffff1916908160001a9053507f78000000000000000000000000000000000000000000000000000000000000008160018151811061255357612552613c8d565b5b60200101907effffffffffffffffffffffffffffffffffffffffffffffffffffffffffffff1916908160001a905350600060018460026125939190613e16565b61259d9190613e58565b90505b600181111561263d577f3031323334353637383961626364656600000000000000000000000000000000600f8616601081106125df576125de613c8d565b5b1a60f81b8282815181106125f6576125f5613c8d565b5b60200101907effffffffffffffffffffffffffffffffffffffffffffffffffffffffffffff1916908160001a905350600485901c94508061263690613e8c565b90506125a0565b5060008414612681576040517f08c379a000000000000000000000000000000000000000000000000000000000815260040161267890613f01565b60405180910390fd5b8091505092915050565b60008183106126a35761269e82846128f6565b6126ae565b6126ad83836128f6565b5b905092915050565b600073ffffffffffffffffffffffffffffffffffffffff168273ffffffffffffffffffffffffffffffffffffffff1603612725576040517f08c379a000000000000000000000000000000000000000000000000000000000815260040161271c90613f6d565b60405180910390fd5b61272e81611f1e565b1561276e576040517f08c379a000000000000000000000000000000000000000000000000000000000815260040161276590613fd9565b60405180910390fd5b61277c600083836001611f12565b61278581611f1e565b156127c5576040517f08c379a00000000000000000000000000000000000000000000000000000000081526004016127bc90613fd9565b60405180910390fd5b6001600360008473ffffffffffffffffffffffffffffffffffffffff1673ffffffffffffffffffffffffffffffffffffffff16815260200190815260200160002060008282540192505081905550816002600083815260200190815260200160002060006101000a81548173ffffffffffffffffffffffffffffffffffffffff021916908373ffffffffffffffffffffffffffffffffffffffff160217905550808273ffffffffffffffffffffffffffffffffffffffff16600073ffffffffffffffffffffffffffffffffffffffff167fddf252ad1be2c89b69c2b068fc378daa952ba7f163c4a11628f55a4df523b3ef60405160405180910390a46128cf600083836001611f18565b5050565b6000808273ffffffffffffffffffffffffffffffffffffffff163b119050919050565b600082600052816020526040600020905092915050565b6000604051905090565b600080fd5b600080fd5b60007fffffffff0000000000000000000000000000000000000000000000000000000082169050919050565b61295681612921565b811461296157600080fd5b50565b6000813590506129738161294d565b92915050565b60006020828403121561298f5761298e612917565b5b600061299d84828501612964565b91505092915050565b60008115159050919050565b6129bb816129a6565b82525050565b60006020820190506129d660008301846129b2565b92915050565b6000819050919050565b6129ef816129dc565b81146129fa57600080fd5b50565b600081359050612a0c816129e6565b92915050565b600060208284031215612a2857612a27612917565b5b6000612a36848285016129fd565b91505092915050565b600081519050919050565b600082825260208201905092915050565b60005b83811015612a79578082015181840152602081019050612a5e565b60008484015250505050565b6000601f19601f8301169050919050565b6000612aa182612a3f565b612aab8185612a4a565b9350612abb818560208601612a5b565b612ac481612a85565b840191505092915050565b60006020820190508181036000830152612ae98184612a96565b905092915050565b600073ffffffffffffffffffffffffffffffffffffffff82169050919050565b6000612b1c82612af1565b9050919050565b612b2c81612b11565b82525050565b6000602082019050612b476000830184612b23565b92915050565b612b5681612b11565b8114612b6157600080fd5b50565b600081359050612b7381612b4d565b92915050565b60008060408385031215612b9057612b8f612917565b5b6000612b9e85828601612b64565b9250506020612baf858286016129fd565b9150509250929050565b600080600060608486031215612bd257612bd1612917565b5b6000612be086828701612b64565b9350506020612bf186828701612b64565b9250506040612c02868287016129fd565b9150509250925092565b6000819050919050565b612c1f81612c0c565b8114612c2a57600080fd5b50565b600081359050612c3c81612c16565b92915050565b600060208284031215612c5857612c57612917565b5b6000612c6684828501612c2d565b91505092915050565b612c7881612c0c565b82525050565b6000602082019050612c936000830184612c6f565b92915050565b60008060408385031215612cb057612caf612917565b5b6000612cbe85828601612c2d565b9250506020612ccf85828601612b64565b9150509250929050565b6000819050919050565b6000612cfe612cf9612cf484612af1565b612cd9565b612af1565b9050919050565b6000612d1082612ce3565b9050919050565b6000612d2282612d05565b9050919050565b612d3281612d17565b82525050565b6000602082019050612d4d6000830184612d29565b92915050565b600080fd5b600080fd5b600080fd5b60008083601f840112612d7857612d77612d53565b5b8235905067ffffffffffffffff811115612d9557612d94612d58565b5b602083019150836020820283011115612db157612db0612d5d565b5b9250929050565b60008060008060608587031215612dd257612dd1612917565b5b6000612de087828801612b64565b9450506020612df1878288016129fd565b935050604085013567ffffffffffffffff811115612e1257612e1161291c565b5b612e1e87828801612d62565b925092505092959194509250565b600060208284031215612e4257612e41612917565b5b6000612e5084828501612b64565b91505092915050565b612e62816129dc565b82525050565b6000602082019050612e7d6000830184612e59565b92915050565b612e8c816129a6565b8114612e9757600080fd5b50565b600081359050612ea981612e83565b92915050565b60008060408385031215612ec657612ec5612917565b5b6000612ed485828601612b64565b9250506020612ee585828601612e9a565b9150509250929050565b600080fd5b7f4e487b7100000000000000000000000000000000000000000000000000000000600052604160045260246000fd5b612f2c82612a85565b810181811067ffffffffffffffff82111715612f4b57612f4a612ef4565b5b80604052505050565b6000612f5e61290d565b9050612f6a8282612f23565b919050565b600067ffffffffffffffff821115612f8a57612f89612ef4565b5b612f9382612a85565b9050602081019050919050565b82818337600083830152505050565b6000612fc2612fbd84612f6f565b612f54565b905082815260208101848484011115612fde57612fdd612eef565b5b612fe9848285612fa0565b509392505050565b600082601f83011261300657613005612d53565b5b8135613016848260208601612faf565b91505092915050565b6000806000806080858703121561303957613038612917565b5b600061304787828801612b64565b945050602061305887828801612b64565b9350506040613069878288016129fd565b925050606085013567ffffffffffffffff81111561308a5761308961291c565b5b61309687828801612ff1565b91505092959194509250565b600080604083850312156130b9576130b8612917565b5b60006130c785828601612b64565b92505060206130d885828601612b64565b9150509250929050565b7f496e76616c696420494420666f72206275796261636b00000000000000000000600082015250565b6000613118601683612a4a565b9150613123826130e2565b602082019050919050565b600060208201905081810360008301526131478161310b565b9050919050565b7f596f7520646f206e6f74206f776e2074686973204e4654000000000000000000600082015250565b6000613184601783612a4a565b915061318f8261314e565b602082019050919050565b600060208201905081810360008301526131b381613177565b9050919050565b60006040820190506131cf6000830185612b23565b6131dc6020830184612e59565b9392505050565b6000819050919050565b60006132086132036131fe846131e3565b612cd9565b6129dc565b9050919050565b613218816131ed565b82525050565b60006040820190506132336000830185612b23565b613240602083018461320f565b9392505050565b7f4e487b7100000000000000000000000000000000000000000000000000000000600052602260045260246000fd5b6000600282049050600182168061328e57607f821691505b6020821081036132a1576132a0613247565b5b50919050565b7f4552433732313a20617070726f76616c20746f2063757272656e74206f776e6560008201527f7200000000000000000000000000000000000000000000000000000000000000602082015250565b6000613303602183612a4a565b915061330e826132a7565b604082019050919050565b60006020820190508181036000830152613332816132f6565b9050919050565b7f4552433732313a20617070726f76652063616c6c6572206973206e6f7420746f60008201527f6b656e206f776e6572206f7220617070726f76656420666f7220616c6c000000602082015250565b6000613395603d83612a4a565b91506133a082613339565b604082019050919050565b600060208201905081810360008301526133c481613388565b9050919050565b7f4552433732313a2063616c6c6572206973206e6f7420746f6b656e206f776e6560008201527f72206f7220617070726f76656400000000000000000000000000000000000000602082015250565b6000613427602d83612a4a565b9150613432826133cb565b604082019050919050565b600060208201905081810360008301526134568161341a565b9050919050565b7f416363657373436f6e74726f6c3a2063616e206f6e6c792072656e6f756e636560008201527f20726f6c657320666f722073656c660000000000000000000000000000000000602082015250565b60006134b9602f83612a4a565b91506134c48261345d565b604082019050919050565b600060208201905081810360008301526134e8816134ac565b9050919050565b7f4e6f7420617070726f7665640000000000000000000000000000000000000000600082015250565b6000613525600c83612a4a565b9150613530826134ef565b602082019050919050565b6000602082019050818103600083015261355481613518565b9050919050565b7f4552433732313a20696e76616c696420746f6b656e2049440000000000000000600082015250565b6000613591601883612a4a565b915061359c8261355b565b602082019050919050565b600060208201905081810360008301526135c081613584565b9050919050565b7f546f6b656e204944206f7574206f662072616e67650000000000000000000000600082015250565b60006135fd601583612a4a565b9150613608826135c7565b602082019050919050565b6000602082019050818103600083015261362c816135f0565b9050919050565b7f50726f6f66732061727261792063616e6e6f7420626520656d70747900000000600082015250565b6000613669601c83612a4a565b915061367482613633565b602082019050919050565b600060208201905081810360008301526136988161365c565b9050919050565b60008160601b9050919050565b60006136b78261369f565b9050919050565b60006136c9826136ac565b9050919050565b6136e16136dc82612b11565b6136be565b82525050565b6000819050919050565b6137026136fd826129dc565b6136e7565b82525050565b600061371482856136d0565b60148201915061372482846136f1565b6020820191508190509392505050565b7f496e76616c69642070726f6f6600000000000000000000000000000000000000600082015250565b600061376a600d83612a4a565b915061377582613734565b602082019050919050565b600060208201905081810360008301526137998161375d565b9050919050565b7f4552433732313a2061646472657373207a65726f206973206e6f74206120766160008201527f6c6964206f776e65720000000000000000000000000000000000000000000000602082015250565b60006137fc602983612a4a565b9150613807826137a0565b604082019050919050565b6000602082019050818103600083015261382b816137ef565b9050919050565b600081905092915050565b600061384882612a3f565b6138528185613832565b9350613862818560208601612a5b565b80840191505092915050565b600061387a828561383d565b9150613886828461383d565b91508190509392505050565b7f5061757361626c653a2070617573656400000000000000000000000000000000600082015250565b60006138c8601083612a4a565b91506138d382613892565b602082019050919050565b600060208201905081810360008301526138f7816138bb565b9050919050565b7f4552433732313a207472616e736665722066726f6d20696e636f72726563742060008201527f6f776e6572000000000000000000000000000000000000000000000000000000602082015250565b600061395a602583612a4a565b9150613965826138fe565b604082019050919050565b600060208201905081810360008301526139898161394d565b9050919050565b7f4552433732313a207472616e7366657220746f20746865207a65726f2061646460008201527f7265737300000000000000000000000000000000000000000000000000000000602082015250565b60006139ec602483612a4a565b91506139f782613990565b604082019050919050565b60006020820190508181036000830152613a1b816139df565b9050919050565b7f4552433732313a20617070726f766520746f2063616c6c657200000000000000600082015250565b6000613a58601983612a4a565b9150613a6382613a22565b602082019050919050565b60006020820190508181036000830152613a8781613a4b565b9050919050565b7f4552433732313a207472616e7366657220746f206e6f6e20455243373231526560008201527f63656976657220696d706c656d656e7465720000000000000000000000000000602082015250565b6000613aea603283612a4a565b9150613af582613a8e565b604082019050919050565b60006020820190508181036000830152613b1981613add565b9050919050565b7f4e487b7100000000000000000000000000000000000000000000000000000000600052601260045260246000fd5b7f416363657373436f6e74726f6c3a206163636f756e7420000000000000000000600082015250565b6000613b85601783613832565b9150613b9082613b4f565b601782019050919050565b7f206973206d697373696e6720726f6c6520000000000000000000000000000000600082015250565b6000613bd1601183613832565b9150613bdc82613b9b565b601182019050919050565b6000613bf282613b78565b9150613bfe828561383d565b9150613c0982613bc4565b9150613c15828461383d565b91508190509392505050565b7f5061757361626c653a206e6f7420706175736564000000000000000000000000600082015250565b6000613c57601483612a4a565b9150613c6282613c21565b602082019050919050565b60006020820190508181036000830152613c8681613c4a565b9050919050565b7f4e487b7100000000000000000000000000000000000000000000000000000000600052603260045260246000fd5b7f4e487b7100000000000000000000000000000000000000000000000000000000600052601160045260246000fd5b6000613cf6826129dc565b91507fffffffffffffffffffffffffffffffffffffffffffffffffffffffffffffffff8203613d2857613d27613cbc565b5b600182019050919050565b600081519050919050565b600082825260208201905092915050565b6000613d5a82613d33565b613d648185613d3e565b9350613d74818560208601612a5b565b613d7d81612a85565b840191505092915050565b6000608082019050613d9d6000830187612b23565b613daa6020830186612b23565b613db76040830185612e59565b8181036060830152613dc98184613d4f565b905095945050505050565b600081519050613de38161294d565b92915050565b600060208284031215613dff57613dfe612917565b5b6000613e0d84828501613dd4565b91505092915050565b6000613e21826129dc565b9150613e2c836129dc565b9250828202613e3a816129dc565b91508282048414831517613e5157613e50613cbc565b5b5092915050565b6000613e63826129dc565b9150613e6e836129dc565b9250828201905080821115613e8657613e85613cbc565b5b92915050565b6000613e97826129dc565b915060008203613eaa57613ea9613cbc565b5b600182039050919050565b7f537472696e67733a20686578206c656e67746820696e73756666696369656e74600082015250565b6000613eeb602083612a4a565b9150613ef682613eb5565b602082019050919050565b60006020820190508181036000830152613f1a81613ede565b9050919050565b7f4552433732313a206d696e7420746f20746865207a65726f2061646472657373600082015250565b6000613f57602083612a4a565b9150613f6282613f21565b602082019050919050565b60006020820190508181036000830152613f8681613f4a565b9050919050565b7f4552433732313a20746f6b656e20616c7265616479206d696e74656400000000600082015250565b6000613fc3601c83612a4a565b9150613fce82613f8d565b602082019050919050565b60006020820190508181036000830152613ff281613fb6565b905091905056fe697066733a2f2f516d5457766d35357a6e5458364e6d676f706455704a5838434a734e7a68474a5934624a566d4d766f4a503568412fa2646970667358221220cb8fb2629d83d4cbd38b95596a8f5b46d837020385946ca87ed252a8d6a0a5ed64736f6c63430008130033",
  "linkReferences": {},
  "deployedLinkReferences": {}
}