{
  "_format": "hh-sol-artifact-1",
  "contractName": "CuyCollectionNft",
  "sourceName": "contracts/CuyCollectionNft.sol",
  "abi": [
    {
      "anonymous": false,
      "inputs": [
        {
          "indexed": true,
          "internalType": "address",
          "name": "owner",
          "type": "address"
        },
        {
          "indexed": true,
          "internalType": "address",
          "name": "approved",
          "type": "address"
        },
        {
          "indexed": true,
          "internalType": "uint256",
          "name": "tokenId",
          "type": "uint256"
        }
      ],
      "name": "Approval",
      "type": "event"
    },
    {
      "anonymous": false,
      "inputs": [
        {
          "indexed": true,
          "internalType": "address",
          "name": "owner",
          "type": "address"
        },
        {
          "indexed": true,
          "internalType": "address",
          "name": "operator",
          "type": "address"
        },
        {
          "indexed": false,
          "internalType": "bool",
          "name": "approved",
          "type": "bool"
        }
      ],
      "name": "ApprovalForAll",
      "type": "event"
    },
    {
      "anonymous": false,
      "inputs": [
        {
          "indexed": false,
          "internalType": "address",
          "name": "account",
          "type": "address"
        },
        {
          "indexed": false,
          "internalType": "uint256",
          "name": "id",
          "type": "uint256"
        }
      ],
      "name": "Burn",
      "type": "event"
    },
    {
      "anonymous": false,
      "inputs": [
        {
          "indexed": false,
          "internalType": "uint8",
          "name": "version",
          "type": "uint8"
        }
      ],
      "name": "Initialized",
      "type": "event"
    },
    {
      "anonymous": false,
      "inputs": [
        {
          "indexed": false,
          "internalType": "address",
          "name": "account",
          "type": "address"
        }
      ],
      "name": "Paused",
      "type": "event"
    },
    {
      "anonymous": false,
      "inputs": [
        {
          "indexed": true,
          "internalType": "bytes32",
          "name": "role",
          "type": "bytes32"
        },
        {
          "indexed": true,
          "internalType": "bytes32",
          "name": "previousAdminRole",
          "type": "bytes32"
        },
        {
          "indexed": true,
          "internalType": "bytes32",
          "name": "newAdminRole",
          "type": "bytes32"
        }
      ],
      "name": "RoleAdminChanged",
      "type": "event"
    },
    {
      "anonymous": false,
      "inputs": [
        {
          "indexed": true,
          "internalType": "bytes32",
          "name": "role",
          "type": "bytes32"
        },
        {
          "indexed": true,
          "internalType": "address",
          "name": "account",
          "type": "address"
        },
        {
          "indexed": true,
          "internalType": "address",
          "name": "sender",
          "type": "address"
        }
      ],
      "name": "RoleGranted",
      "type": "event"
    },
    {
      "anonymous": false,
      "inputs": [
        {
          "indexed": true,
          "internalType": "bytes32",
          "name": "role",
          "type": "bytes32"
        },
        {
          "indexed": true,
          "internalType": "address",
          "name": "account",
          "type": "address"
        },
        {
          "indexed": true,
          "internalType": "address",
          "name": "sender",
          "type": "address"
        }
      ],
      "name": "RoleRevoked",
      "type": "event"
    },
    {
      "anonymous": false,
      "inputs": [
        {
          "indexed": true,
          "internalType": "address",
          "name": "from",
          "type": "address"
        },
        {
          "indexed": true,
          "internalType": "address",
          "name": "to",
          "type": "address"
        },
        {
          "indexed": true,
          "internalType": "uint256",
          "name": "tokenId",
          "type": "uint256"
        }
      ],
      "name": "Transfer",
      "type": "event"
    },
    {
      "anonymous": false,
      "inputs": [
        {
          "indexed": false,
          "internalType": "address",
          "name": "account",
          "type": "address"
        }
      ],
      "name": "Unpaused",
      "type": "event"
    },
    {
      "inputs": [],
      "name": "DEFAULT_ADMIN_ROLE",
      "outputs": [
        {
          "internalType": "bytes32",
          "name": "",
          "type": "bytes32"
        }
      ],
      "stateMutability": "view",
      "type": "function"
    },
    {
      "inputs": [],
      "name": "MINTER_ROLE",
      "outputs": [
        {
          "internalType": "bytes32",
          "name": "",
          "type": "bytes32"
        }
      ],
      "stateMutability": "view",
      "type": "function"
    },
    {
      "inputs": [],
      "name": "PAUSER_ROLE",
      "outputs": [
        {
          "internalType": "bytes32",
          "name": "",
          "type": "bytes32"
        }
      ],
      "stateMutability": "view",
      "type": "function"
    },
    {
      "inputs": [
        {
          "internalType": "address",
          "name": "to",
          "type": "address"
        },
        {
          "internalType": "uint256",
          "name": "tokenId",
          "type": "uint256"
        }
      ],
      "name": "approve",
      "outputs": [],
      "stateMutability": "nonpayable",
      "type": "function"
    },
    {
      "inputs": [
        {
          "internalType": "address",
          "name": "owner",
          "type": "address"
        }
      ],
      "name": "balanceOf",
      "outputs": [
        {
          "internalType": "uint256",
          "name": "",
          "type": "uint256"
        }
      ],
      "stateMutability": "view",
      "type": "function"
    },
    {
      "inputs": [],
      "name": "bbtknContract",
      "outputs": [
        {
          "internalType": "contract BBTKN",
          "name": "",
          "type": "address"
        }
      ],
      "stateMutability": "view",
      "type": "function"
    },
    {
      "inputs": [
        {
          "internalType": "uint256",
          "name": "tokenId",
          "type": "uint256"
        }
      ],
      "name": "burn",
      "outputs": [],
      "stateMutability": "nonpayable",
      "type": "function"
    },
    {
      "inputs": [
        {
          "internalType": "uint256",
          "name": "id",
          "type": "uint256"
        }
      ],
      "name": "buyBack",
      "outputs": [],
      "stateMutability": "nonpayable",
      "type": "function"
    },
    {
      "inputs": [
        {
          "internalType": "uint256",
          "name": "tokenId",
          "type": "uint256"
        }
      ],
      "name": "getApproved",
      "outputs": [
        {
          "internalType": "address",
          "name": "",
          "type": "address"
        }
      ],
      "stateMutability": "view",
      "type": "function"
    },
    {
      "inputs": [
        {
          "internalType": "bytes32",
          "name": "role",
          "type": "bytes32"
        }
      ],
      "name": "getRoleAdmin",
      "outputs": [
        {
          "internalType": "bytes32",
          "name": "",
          "type": "bytes32"
        }
      ],
      "stateMutability": "view",
      "type": "function"
    },
    {
      "inputs": [
        {
          "internalType": "bytes32",
          "name": "role",
          "type": "bytes32"
        },
        {
          "internalType": "address",
          "name": "account",
          "type": "address"
        }
      ],
      "name": "grantRole",
      "outputs": [],
      "stateMutability": "nonpayable",
      "type": "function"
    },
    {
      "inputs": [
        {
          "internalType": "bytes32",
          "name": "role",
          "type": "bytes32"
        },
        {
          "internalType": "address",
          "name": "account",
          "type": "address"
        }
      ],
      "name": "hasRole",
      "outputs": [
        {
          "internalType": "bool",
          "name": "",
          "type": "bool"
        }
      ],
      "stateMutability": "view",
      "type": "function"
    },
    {
      "inputs": [
        {
          "internalType": "string",
          "name": "_name",
          "type": "string"
        },
        {
          "internalType": "string",
          "name": "_symbol",
          "type": "string"
        },
        {
          "internalType": "address",
          "name": "_bbtknContract",
          "type": "address"
        }
      ],
      "name": "initialize",
      "outputs": [],
      "stateMutability": "nonpayable",
      "type": "function"
    },
    {
      "inputs": [
        {
          "internalType": "address",
          "name": "owner",
          "type": "address"
        },
        {
          "internalType": "address",
          "name": "operator",
          "type": "address"
        }
      ],
      "name": "isApprovedForAll",
      "outputs": [
        {
          "internalType": "bool",
          "name": "",
          "type": "bool"
        }
      ],
      "stateMutability": "view",
      "type": "function"
    },
    {
      "inputs": [],
      "name": "name",
      "outputs": [
        {
          "internalType": "string",
          "name": "",
          "type": "string"
        }
      ],
      "stateMutability": "view",
      "type": "function"
    },
    {
      "inputs": [
        {
          "internalType": "uint256",
          "name": "tokenId",
          "type": "uint256"
        }
      ],
      "name": "ownerOf",
      "outputs": [
        {
          "internalType": "address",
          "name": "",
          "type": "address"
        }
      ],
      "stateMutability": "view",
      "type": "function"
    },
    {
      "inputs": [],
      "name": "pause",
      "outputs": [],
      "stateMutability": "nonpayable",
      "type": "function"
    },
    {
      "inputs": [],
      "name": "paused",
      "outputs": [
        {
          "internalType": "bool",
          "name": "",
          "type": "bool"
        }
      ],
      "stateMutability": "view",
      "type": "function"
    },
    {
      "inputs": [
        {
          "internalType": "bytes32",
          "name": "role",
          "type": "bytes32"
        },
        {
          "internalType": "address",
          "name": "account",
          "type": "address"
        }
      ],
      "name": "renounceRole",
      "outputs": [],
      "stateMutability": "nonpayable",
      "type": "function"
    },
    {
      "inputs": [
        {
          "internalType": "bytes32",
          "name": "role",
          "type": "bytes32"
        },
        {
          "internalType": "address",
          "name": "account",
          "type": "address"
        }
      ],
      "name": "revokeRole",
      "outputs": [],
      "stateMutability": "nonpayable",
      "type": "function"
    },
    {
      "inputs": [],
      "name": "root",
      "outputs": [
        {
          "internalType": "bytes32",
          "name": "",
          "type": "bytes32"
        }
      ],
      "stateMutability": "view",
      "type": "function"
    },
    {
      "inputs": [
        {
          "internalType": "address",
          "name": "to",
          "type": "address"
        },
        {
          "internalType": "uint256",
          "name": "tokenId",
          "type": "uint256"
        }
      ],
      "name": "safeMint",
      "outputs": [],
      "stateMutability": "nonpayable",
      "type": "function"
    },
    {
      "inputs": [
        {
          "internalType": "address",
          "name": "to",
          "type": "address"
        },
        {
          "internalType": "uint256",
          "name": "tokenId",
          "type": "uint256"
        },
        {
          "internalType": "bytes32[]",
          "name": "proofs",
          "type": "bytes32[]"
        }
      ],
      "name": "safeMintWhiteList",
      "outputs": [],
      "stateMutability": "nonpayable",
      "type": "function"
    },
    {
      "inputs": [
        {
          "internalType": "address",
          "name": "from",
          "type": "address"
        },
        {
          "internalType": "address",
          "name": "to",
          "type": "address"
        },
        {
          "internalType": "uint256",
          "name": "tokenId",
          "type": "uint256"
        }
      ],
      "name": "safeTransferFrom",
      "outputs": [],
      "stateMutability": "nonpayable",
      "type": "function"
    },
    {
      "inputs": [
        {
          "internalType": "address",
          "name": "from",
          "type": "address"
        },
        {
          "internalType": "address",
          "name": "to",
          "type": "address"
        },
        {
          "internalType": "uint256",
          "name": "tokenId",
          "type": "uint256"
        },
        {
          "internalType": "bytes",
          "name": "data",
          "type": "bytes"
        }
      ],
      "name": "safeTransferFrom",
      "outputs": [],
      "stateMutability": "nonpayable",
      "type": "function"
    },
    {
      "inputs": [
        {
          "internalType": "address",
          "name": "operator",
          "type": "address"
        },
        {
          "internalType": "bool",
          "name": "approved",
          "type": "bool"
        }
      ],
      "name": "setApprovalForAll",
      "outputs": [],
      "stateMutability": "nonpayable",
      "type": "function"
    },
    {
      "inputs": [
        {
          "internalType": "bytes4",
          "name": "interfaceId",
          "type": "bytes4"
        }
      ],
      "name": "supportsInterface",
      "outputs": [
        {
          "internalType": "bool",
          "name": "",
          "type": "bool"
        }
      ],
      "stateMutability": "view",
      "type": "function"
    },
    {
      "inputs": [],
      "name": "symbol",
      "outputs": [
        {
          "internalType": "string",
          "name": "",
          "type": "string"
        }
      ],
      "stateMutability": "view",
      "type": "function"
    },
    {
      "inputs": [
        {
          "internalType": "uint256",
          "name": "index",
          "type": "uint256"
        }
      ],
      "name": "tokenByIndex",
      "outputs": [
        {
          "internalType": "uint256",
          "name": "",
          "type": "uint256"
        }
      ],
      "stateMutability": "view",
      "type": "function"
    },
    {
      "inputs": [
        {
          "internalType": "address",
          "name": "owner",
          "type": "address"
        },
        {
          "internalType": "uint256",
          "name": "index",
          "type": "uint256"
        }
      ],
      "name": "tokenOfOwnerByIndex",
      "outputs": [
        {
          "internalType": "uint256",
          "name": "",
          "type": "uint256"
        }
      ],
      "stateMutability": "view",
      "type": "function"
    },
    {
      "inputs": [
        {
          "internalType": "uint256",
          "name": "tokenId",
          "type": "uint256"
        }
      ],
      "name": "tokenURI",
      "outputs": [
        {
          "internalType": "string",
          "name": "",
          "type": "string"
        }
      ],
      "stateMutability": "view",
      "type": "function"
    },
    {
      "inputs": [],
      "name": "totalSupply",
      "outputs": [
        {
          "internalType": "uint256",
          "name": "",
          "type": "uint256"
        }
      ],
      "stateMutability": "view",
      "type": "function"
    },
    {
      "inputs": [
        {
          "internalType": "address",
          "name": "from",
          "type": "address"
        },
        {
          "internalType": "address",
          "name": "to",
          "type": "address"
        },
        {
          "internalType": "uint256",
          "name": "tokenId",
          "type": "uint256"
        }
      ],
      "name": "transferFrom",
      "outputs": [],
      "stateMutability": "nonpayable",
      "type": "function"
    },
    {
      "inputs": [],
      "name": "unpause",
      "outputs": [],
      "stateMutability": "nonpayable",
      "type": "function"
    }
  ],
  "bytecode": "0x608060405234801561001057600080fd5b50612a89806100206000396000f3fe608060405234801561001057600080fd5b50600436106102065760003560e01c80635c975abb1161011a578063a217fddf116100ad578063d53913931161007c578063d53913931461043f578063d547741f14610466578063e63ab1e914610479578063e985e9c51461048e578063ebf0c717146104ca57600080fd5b8063a217fddf146103fe578063a22cb46514610406578063b88d4fde14610419578063c87b56dd1461042c57600080fd5b80638456cb59116100e95780638456cb59146103c857806391d14854146103d057806395d89b41146103e3578063a1448194146103eb57600080fd5b80635c975abb146103845780636352211e1461038f578063662c2d96146103a257806370a08231146103b557600080fd5b8063248a9ca31161019d5780633f4ba83a1161016c5780633f4ba83a1461032f57806342842e0e1461033757806342966c681461034a5780634d5a9a2c1461035d5780634f6ccce71461037157600080fd5b8063248a9ca3146102d35780632f2ff15d146102f65780632f745c591461030957806336568abe1461031c57600080fd5b8063081812fc116101d9578063081812fc14610270578063095ea7b31461029b57806318160ddd146102ae57806323b872dd146102c057600080fd5b806301ffc9a71461020b578063053f90401461023357806306fdde0314610248578063077f224a1461025d575b600080fd5b61021e6102193660046121e2565b6104d4565b60405190151581526020015b60405180910390f35b6102466102413660046121ff565b6104e5565b005b610250610656565b60405161022a9190612268565b61024661026b366004612343565b6106e8565b61028361027e3660046121ff565b61088f565b6040516001600160a01b03909116815260200161022a565b6102466102a93660046123b7565b6108b6565b6099545b60405190815260200161022a565b6102466102ce3660046123e1565b6109cb565b6102b26102e13660046121ff565b600090815260fb602052604090206001015490565b61024661030436600461241d565b6109fc565b6102b26103173660046123b7565b610a21565b61024661032a36600461241d565b610ab7565b610246610b35565b6102466103453660046123e1565b610b58565b6102466103583660046121ff565b610b73565b61012e54610283906001600160a01b031681565b6102b261037f3660046121ff565b610bc9565b60c95460ff1661021e565b61028361039d3660046121ff565b610c5c565b6102466103b0366004612449565b610cbc565b6102b26103c33660046124d3565b610e1f565b610246610ea5565b61021e6103de36600461241d565b610ec5565b610250610ef0565b6102466103f93660046123b7565b610eff565b6102b2600081565b6102466104143660046124ee565b610f85565b61024661042736600461252a565b610f90565b61025061043a3660046121ff565b610fc2565b6102b27f9f2df0fed2c77648de5860a4cc508cd0818c85b8b8a1ab4ceeef8d981c8956a681565b61024661047436600461241d565b611029565b6102b26000805160206129f583398151915281565b61021e61049c3660046125a6565b6001600160a01b039182166000908152606a6020908152604080832093909416825291909152205460ff1690565b6102b261012d5481565b60006104df8261104e565b92915050565b6104ed611073565b6103e8811015801561050157506107cf8111155b61054b5760405162461bcd60e51b8152602060048201526016602482015275496e76616c696420494420666f72206275796261636b60501b60448201526064015b60405180910390fd5b3361055582610c5c565b6001600160a01b0316146105ab5760405162461bcd60e51b815260206004820152601760248201527f596f7520646f206e6f74206f776e2074686973204e46540000000000000000006044820152606401610542565b6105b4816110bb565b60408051338152602081018390527fcc16f5dbb4873280815c1ee09dbd06736cffcc184412cf7a71a0fdb75d397ca5910160405180910390a161012e546040516340c10f1960e01b815233600482015261271060248201526001600160a01b03909116906340c10f1990604401600060405180830381600087803b15801561063b57600080fd5b505af115801561064f573d6000803e3d6000fd5b5050505050565b606060658054610665906125d0565b80601f0160208091040260200160405190810160405280929190818152602001828054610691906125d0565b80156106de5780601f106106b3576101008083540402835291602001916106de565b820191906000526020600020905b8154815290600101906020018083116106c157829003601f168201915b5050505050905090565b600054610100900460ff16158080156107085750600054600160ff909116105b806107225750303b158015610722575060005460ff166001145b6107855760405162461bcd60e51b815260206004820152602e60248201527f496e697469616c697a61626c653a20636f6e747261637420697320616c72656160448201526d191e481a5b9a5d1a585b1a5e995960921b6064820152608401610542565b6000805460ff1916600117905580156107a8576000805461ff0019166101001790555b6107b061115e565b6107b861115e565b6107c28484611185565b6107ca61115e565b6107d26111c5565b6107da61115e565b6107e56000336111f8565b6107fd6000805160206129f5833981519152336111f8565b6108277f9f2df0fed2c77648de5860a4cc508cd0818c85b8b8a1ab4ceeef8d981c8956a6336111f8565b61012e80546001600160a01b0319166001600160a01b0384161790558015610889576000805461ff0019169055604051600181527f7f26b83ff96e1f2b6a682f133852f6798a09c465da95921460cefb38474024989060200160405180910390a15b50505050565b600061089a82611202565b506000908152606960205260409020546001600160a01b031690565b60006108c182610c5c565b9050806001600160a01b0316836001600160a01b03160361092e5760405162461bcd60e51b815260206004820152602160248201527f4552433732313a20617070726f76616c20746f2063757272656e74206f776e656044820152603960f91b6064820152608401610542565b336001600160a01b038216148061094a575061094a813361049c565b6109bc5760405162461bcd60e51b815260206004820152603d60248201527f4552433732313a20617070726f76652063616c6c6572206973206e6f7420746f60448201527f6b656e206f776e6572206f7220617070726f76656420666f7220616c6c0000006064820152608401610542565b6109c68383611261565b505050565b6109d533826112cf565b6109f15760405162461bcd60e51b81526004016105429061260a565b6109c683838361134e565b600082815260fb6020526040902060010154610a17816114bf565b6109c683836114c9565b6000610a2c83610e1f565b8210610a8e5760405162461bcd60e51b815260206004820152602b60248201527f455243373231456e756d657261626c653a206f776e657220696e646578206f7560448201526a74206f6620626f756e647360a81b6064820152608401610542565b506001600160a01b03919091166000908152609760209081526040808320938352929052205490565b6001600160a01b0381163314610b275760405162461bcd60e51b815260206004820152602f60248201527f416363657373436f6e74726f6c3a2063616e206f6e6c792072656e6f756e636560448201526e103937b632b9903337b91039b2b63360891b6064820152608401610542565b610b31828261154f565b5050565b6000805160206129f5833981519152610b4d816114bf565b610b556115b6565b50565b6109c683838360405180602001604052806000815250610f90565b610b7b611073565b610b8533826112cf565b610bc05760405162461bcd60e51b815260206004820152600c60248201526b139bdd08185c1c1c9bdd995960a21b6044820152606401610542565b610b55816110bb565b6000610bd460995490565b8210610c375760405162461bcd60e51b815260206004820152602c60248201527f455243373231456e756d657261626c653a20676c6f62616c20696e646578206f60448201526b7574206f6620626f756e647360a01b6064820152608401610542565b60998281548110610c4a57610c4a612657565b90600052602060002001549050919050565b6000818152606760205260408120546001600160a01b0316806104df5760405162461bcd60e51b8152602060048201526018602482015277115490cdcc8c4e881a5b9d985b1a59081d1bdad95b88125160421b6044820152606401610542565b610cc4611073565b6103e7831115610d0e5760405162461bcd60e51b8152602060048201526015602482015274546f6b656e204944206f7574206f662072616e676560581b6044820152606401610542565b80610d5b5760405162461bcd60e51b815260206004820152601c60248201527f50726f6f66732061727261792063616e6e6f7420626520656d707479000000006044820152606401610542565b610dd98282808060200260200160405190810160405280939291908181526020018383602002808284376000920191909152505061012d546040516bffffffffffffffffffffffff1960608b901b16602082015260348101899052909250605401905060405160208183030381529060405280519060200120611608565b610e155760405162461bcd60e51b815260206004820152600d60248201526c24b73b30b634b210383937b7b360991b6044820152606401610542565b610889848461161e565b60006001600160a01b038216610e895760405162461bcd60e51b815260206004820152602960248201527f4552433732313a2061646472657373207a65726f206973206e6f7420612076616044820152683634b21037bbb732b960b91b6064820152608401610542565b506001600160a01b031660009081526068602052604090205490565b6000805160206129f5833981519152610ebd816114bf565b610b55611638565b600091825260fb602090815260408084206001600160a01b0393909316845291905290205460ff1690565b606060668054610665906125d0565b7f9f2df0fed2c77648de5860a4cc508cd0818c85b8b8a1ab4ceeef8d981c8956a6610f29816114bf565b610f31611073565b6103e7821115610f7b5760405162461bcd60e51b8152602060048201526015602482015274546f6b656e204944206f7574206f662072616e676560581b6044820152606401610542565b6109c6838361161e565b610b31338383611675565b610f9a33836112cf565b610fb65760405162461bcd60e51b81526004016105429061260a565b61088984848484611743565b6060610fcd82611202565b6000610fd7611776565b90506000815111610ff75760405180602001604052806000815250611022565b8061100184611796565b60405160200161101292919061266d565b6040516020818303038152906040525b9392505050565b600082815260fb6020526040902060010154611044816114bf565b6109c6838361154f565b60006001600160e01b03198216637965db0b60e01b14806104df57506104df82611829565b60c95460ff16156110b95760405162461bcd60e51b815260206004820152601060248201526f14185d5cd8589b194e881c185d5cd95960821b6044820152606401610542565b565b60006110c682610c5c565b90506110d681600084600161184e565b6110df82610c5c565b600083815260696020908152604080832080546001600160a01b03199081169091556001600160a01b0385168085526068845282852080546000190190558785526067909352818420805490911690555192935084927fddf252ad1be2c89b69c2b068fc378daa952ba7f163c4a11628f55a4df523b3ef908390a45050565b600054610100900460ff166110b95760405162461bcd60e51b81526004016105429061269c565b600054610100900460ff166111ac5760405162461bcd60e51b81526004016105429061269c565b60656111b88382612735565b5060666109c68282612735565b600054610100900460ff166111ec5760405162461bcd60e51b81526004016105429061269c565b60c9805460ff19169055565b610b3182826114c9565b6000818152606760205260409020546001600160a01b0316610b555760405162461bcd60e51b8152602060048201526018602482015277115490cdcc8c4e881a5b9d985b1a59081d1bdad95b88125160421b6044820152606401610542565b600081815260696020526040902080546001600160a01b0319166001600160a01b038416908117909155819061129682610c5c565b6001600160a01b03167f8c5be1e5ebec7d5bd14f71427d1e84f3dd0314c0f7b2291e5b200ac8c7c3b92560405160405180910390a45050565b6000806112db83610c5c565b9050806001600160a01b0316846001600160a01b0316148061132257506001600160a01b038082166000908152606a602090815260408083209388168352929052205460ff165b806113465750836001600160a01b031661133b8461088f565b6001600160a01b0316145b949350505050565b826001600160a01b031661136182610c5c565b6001600160a01b0316146113875760405162461bcd60e51b8152600401610542906127f5565b6001600160a01b0382166113e95760405162461bcd60e51b8152602060048201526024808201527f4552433732313a207472616e7366657220746f20746865207a65726f206164646044820152637265737360e01b6064820152608401610542565b6113f6838383600161184e565b826001600160a01b031661140982610c5c565b6001600160a01b03161461142f5760405162461bcd60e51b8152600401610542906127f5565b600081815260696020908152604080832080546001600160a01b03199081169091556001600160a01b0387811680865260688552838620805460001901905590871680865283862080546001019055868652606790945282852080549092168417909155905184937fddf252ad1be2c89b69c2b068fc378daa952ba7f163c4a11628f55a4df523b3ef91a4505050565b610b55813361197b565b6114d38282610ec5565b610b3157600082815260fb602090815260408083206001600160a01b03851684529091529020805460ff1916600117905561150b3390565b6001600160a01b0316816001600160a01b0316837f2f8788117e7eff1d82e926ec794901d17c78024a50270940304540a733656f0d60405160405180910390a45050565b6115598282610ec5565b15610b3157600082815260fb602090815260408083206001600160a01b0385168085529252808320805460ff1916905551339285917ff6391f5c32d9c69d2a47ea670b442974b53935d1edc7fd64eb21e047a839171b9190a45050565b6115be6119d4565b60c9805460ff191690557f5db9ee0a495bf2e6ff9c91a7834c1ba4fdd244a5e8aa4e537bd38aeae4b073aa335b6040516001600160a01b03909116815260200160405180910390a1565b6000826116158584611a1d565b14949350505050565b610b31828260405180602001604052806000815250611a6a565b611640611073565b60c9805460ff191660011790557f62e78cea01bee320cd4e420270b5ea74000d11b0c9f74754ebdbfc544b05a2586115eb3390565b816001600160a01b0316836001600160a01b0316036116d65760405162461bcd60e51b815260206004820152601960248201527f4552433732313a20617070726f766520746f2063616c6c6572000000000000006044820152606401610542565b6001600160a01b038381166000818152606a6020908152604080832094871680845294825291829020805460ff191686151590811790915591519182527f17307eab39ab6107e8899845ad3d59bd9653f200f220920489ca2b5937696c31910160405180910390a3505050565b61174e84848461134e565b61175a84848484611a9d565b6108895760405162461bcd60e51b81526004016105429061283a565b60606040518060600160405280603f8152602001612a15603f9139905090565b606060006117a383611b9e565b600101905060008167ffffffffffffffff8111156117c3576117c361227b565b6040519080825280601f01601f1916602001820160405280156117ed576020820181803683370190505b5090508181016020015b600019016f181899199a1a9b1b9c1cb0b131b232b360811b600a86061a8153600a85049450846117f757509392505050565b60006001600160e01b0319821663780e9d6360e01b14806104df57506104df82611c76565b60018111156118bd5760405162461bcd60e51b815260206004820152603560248201527f455243373231456e756d657261626c653a20636f6e7365637574697665207472604482015274185b9cd9995c9cc81b9bdd081cdd5c1c1bdc9d1959605a1b6064820152608401610542565b816001600160a01b0385166119195761191481609980546000838152609a60205260408120829055600182018355919091527f72a152ddfb8e864297c917af52ea6c1c68aead0fee1a62673fcc7e0c94979d000155565b61193c565b836001600160a01b0316856001600160a01b03161461193c5761193c8582611cc6565b6001600160a01b0384166119585761195381611d63565b61064f565b846001600160a01b0316846001600160a01b03161461064f5761064f8482611e12565b6119858282610ec5565b610b315761199281611e56565b61199d836020611e68565b6040516020016119ae92919061288c565b60408051601f198184030181529082905262461bcd60e51b825261054291600401612268565b60c95460ff166110b95760405162461bcd60e51b815260206004820152601460248201527314185d5cd8589b194e881b9bdd081c185d5cd95960621b6044820152606401610542565b600081815b8451811015611a6257611a4e82868381518110611a4157611a41612657565b6020026020010151612004565b915080611a5a81612917565b915050611a22565b509392505050565b611a748383612033565b611a816000848484611a9d565b6109c65760405162461bcd60e51b81526004016105429061283a565b60006001600160a01b0384163b15611b9357604051630a85bd0160e11b81526001600160a01b0385169063150b7a0290611ae1903390899088908890600401612930565b6020604051808303816000875af1925050508015611b1c575060408051601f3d908101601f19168201909252611b199181019061296d565b60015b611b79573d808015611b4a576040519150601f19603f3d011682016040523d82523d6000602084013e611b4f565b606091505b508051600003611b715760405162461bcd60e51b81526004016105429061283a565b805181602001fd5b6001600160e01b031916630a85bd0160e11b149050611346565b506001949350505050565b60008072184f03e93ff9f4daa797ed6e38ed64bf6a1f0160401b8310611bdd5772184f03e93ff9f4daa797ed6e38ed64bf6a1f0160401b830492506040015b6d04ee2d6d415b85acef81000000008310611c09576d04ee2d6d415b85acef8100000000830492506020015b662386f26fc100008310611c2757662386f26fc10000830492506010015b6305f5e1008310611c3f576305f5e100830492506008015b6127108310611c5357612710830492506004015b60648310611c65576064830492506002015b600a83106104df5760010192915050565b60006001600160e01b031982166380ac58cd60e01b1480611ca757506001600160e01b03198216635b5e139f60e01b145b806104df57506301ffc9a760e01b6001600160e01b03198316146104df565b60006001611cd384610e1f565b611cdd919061298a565b600083815260986020526040902054909150808214611d30576001600160a01b03841660009081526097602090815260408083208584528252808320548484528184208190558352609890915290208190555b5060009182526098602090815260408084208490556001600160a01b039094168352609781528383209183525290812055565b609954600090611d759060019061298a565b6000838152609a602052604081205460998054939450909284908110611d9d57611d9d612657565b906000526020600020015490508060998381548110611dbe57611dbe612657565b6000918252602080832090910192909255828152609a90915260408082208490558582528120556099805480611df657611df661299d565b6001900381819060005260206000200160009055905550505050565b6000611e1d83610e1f565b6001600160a01b039093166000908152609760209081526040808320868452825280832085905593825260989052919091209190915550565b60606104df6001600160a01b03831660145b60606000611e778360026129b3565b611e829060026129ca565b67ffffffffffffffff811115611e9a57611e9a61227b565b6040519080825280601f01601f191660200182016040528015611ec4576020820181803683370190505b509050600360fc1b81600081518110611edf57611edf612657565b60200101906001600160f81b031916908160001a905350600f60fb1b81600181518110611f0e57611f0e612657565b60200101906001600160f81b031916908160001a9053506000611f328460026129b3565b611f3d9060016129ca565b90505b6001811115611fb5576f181899199a1a9b1b9c1cb0b131b232b360811b85600f1660108110611f7157611f71612657565b1a60f81b828281518110611f8757611f87612657565b60200101906001600160f81b031916908160001a90535060049490941c93611fae816129dd565b9050611f40565b5083156110225760405162461bcd60e51b815260206004820181905260248201527f537472696e67733a20686578206c656e67746820696e73756666696369656e746044820152606401610542565b6000818310612020576000828152602084905260409020611022565b6000838152602083905260409020611022565b6001600160a01b0382166120895760405162461bcd60e51b815260206004820181905260248201527f4552433732313a206d696e7420746f20746865207a65726f20616464726573736044820152606401610542565b6000818152606760205260409020546001600160a01b0316156120ee5760405162461bcd60e51b815260206004820152601c60248201527f4552433732313a20746f6b656e20616c7265616479206d696e746564000000006044820152606401610542565b6120fc60008383600161184e565b6000818152606760205260409020546001600160a01b0316156121615760405162461bcd60e51b815260206004820152601c60248201527f4552433732313a20746f6b656e20616c7265616479206d696e746564000000006044820152606401610542565b6001600160a01b038216600081815260686020908152604080832080546001019055848352606790915280822080546001600160a01b0319168417905551839291907fddf252ad1be2c89b69c2b068fc378daa952ba7f163c4a11628f55a4df523b3ef908290a45050565b6001600160e01b031981168114610b5557600080fd5b6000602082840312156121f457600080fd5b8135611022816121cc565b60006020828403121561221157600080fd5b5035919050565b60005b8381101561223357818101518382015260200161221b565b50506000910152565b60008151808452612254816020860160208601612218565b601f01601f19169290920160200192915050565b602081526000611022602083018461223c565b634e487b7160e01b600052604160045260246000fd5b600067ffffffffffffffff808411156122ac576122ac61227b565b604051601f8501601f19908116603f011681019082821181831017156122d4576122d461227b565b816040528093508581528686860111156122ed57600080fd5b858560208301376000602087830101525050509392505050565b600082601f83011261231857600080fd5b61102283833560208501612291565b80356001600160a01b038116811461233e57600080fd5b919050565b60008060006060848603121561235857600080fd5b833567ffffffffffffffff8082111561237057600080fd5b61237c87838801612307565b9450602086013591508082111561239257600080fd5b5061239f86828701612307565b9250506123ae60408501612327565b90509250925092565b600080604083850312156123ca57600080fd5b6123d383612327565b946020939093013593505050565b6000806000606084860312156123f657600080fd5b6123ff84612327565b925061240d60208501612327565b9150604084013590509250925092565b6000806040838503121561243057600080fd5b8235915061244060208401612327565b90509250929050565b6000806000806060858703121561245f57600080fd5b61246885612327565b935060208501359250604085013567ffffffffffffffff8082111561248c57600080fd5b818701915087601f8301126124a057600080fd5b8135818111156124af57600080fd5b8860208260051b85010111156124c457600080fd5b95989497505060200194505050565b6000602082840312156124e557600080fd5b61102282612327565b6000806040838503121561250157600080fd5b61250a83612327565b91506020830135801515811461251f57600080fd5b809150509250929050565b6000806000806080858703121561254057600080fd5b61254985612327565b935061255760208601612327565b925060408501359150606085013567ffffffffffffffff81111561257a57600080fd5b8501601f8101871361258b57600080fd5b61259a87823560208401612291565b91505092959194509250565b600080604083850312156125b957600080fd5b6125c283612327565b915061244060208401612327565b600181811c908216806125e457607f821691505b60208210810361260457634e487b7160e01b600052602260045260246000fd5b50919050565b6020808252602d908201527f4552433732313a2063616c6c6572206973206e6f7420746f6b656e206f776e6560408201526c1c881bdc88185c1c1c9bdd9959609a1b606082015260800190565b634e487b7160e01b600052603260045260246000fd5b6000835161267f818460208801612218565b835190830190612693818360208801612218565b01949350505050565b6020808252602b908201527f496e697469616c697a61626c653a20636f6e7472616374206973206e6f74206960408201526a6e697469616c697a696e6760a81b606082015260800190565b601f8211156109c657600081815260208120601f850160051c8101602086101561270e5750805b601f850160051c820191505b8181101561272d5782815560010161271a565b505050505050565b815167ffffffffffffffff81111561274f5761274f61227b565b6127638161275d84546125d0565b846126e7565b602080601f83116001811461279857600084156127805750858301515b600019600386901b1c1916600185901b17855561272d565b600085815260208120601f198616915b828110156127c7578886015182559484019460019091019084016127a8565b50858210156127e55787850151600019600388901b60f8161c191681555b5050505050600190811b01905550565b60208082526025908201527f4552433732313a207472616e736665722066726f6d20696e636f72726563742060408201526437bbb732b960d91b606082015260800190565b60208082526032908201527f4552433732313a207472616e7366657220746f206e6f6e20455243373231526560408201527131b2b4bb32b91034b6b83632b6b2b73a32b960711b606082015260800190565b7f416363657373436f6e74726f6c3a206163636f756e74200000000000000000008152600083516128c4816017850160208801612218565b7001034b99036b4b9b9b4b733903937b6329607d1b60179184019182015283516128f5816028840160208801612218565b01602801949350505050565b634e487b7160e01b600052601160045260246000fd5b60006001820161292957612929612901565b5060010190565b6001600160a01b03858116825284166020820152604081018390526080606082018190526000906129639083018461223c565b9695505050505050565b60006020828403121561297f57600080fd5b8151611022816121cc565b818103818111156104df576104df612901565b634e487b7160e01b600052603160045260246000fd5b80820281158282048414176104df576104df612901565b808201808211156104df576104df612901565b6000816129ec576129ec612901565b50600019019056fe65d7a28e3265b37a6474929f336521b332c1681b933f6cb9f3376673440d862a697066733a2f2f516d5638524a3977524a7359797555707962527753314b644a5a574d367853686e6e5774506d4a6b5051366b4d382f6d657461646174612fa2646970667358221220639114f115ebd923c458e0e5b3f4b361dd61cf71c712abdfc879a85aaab7406564736f6c63430008130033",
  "linkReferences": {},
  "deployedLinkReferences": {}
}