{
  "_format": "hh-sol-artifact-1",
  "contractName": "USDCoin",
  "sourceName": "contracts/USDCoin.sol",
  "abi": [
    {
      "anonymous": false,
      "inputs": [
        {
          "indexed": false,
          "internalType": "address",
          "name": "previousAdmin",
          "type": "address"
        },
        {
          "indexed": false,
          "internalType": "address",
          "name": "newAdmin",
          "type": "address"
        }
      ],
      "name": "AdminChanged",
      "type": "event"
    },
    {
      "anonymous": false,
      "inputs": [
        {
          "indexed": true,
          "internalType": "address",
          "name": "owner",
          "type": "address"
        },
        {
          "indexed": true,
          "internalType": "address",
          "name": "spender",
          "type": "address"
        },
        {
          "indexed": false,
          "internalType": "uint256",
          "name": "value",
          "type": "uint256"
        }
      ],
      "name": "Approval",
      "type": "event"
    },
    {
      "anonymous": false,
      "inputs": [
        {
          "indexed": true,
          "internalType": "address",
          "name": "beacon",
          "type": "address"
        }
      ],
      "name": "BeaconUpgraded",
      "type": "event"
    },
    {
      "anonymous": false,
      "inputs": [
        {
          "indexed": false,
          "internalType": "uint8",
          "name": "version",
          "type": "uint8"
        }
      ],
      "name": "Initialized",
      "type": "event"
    },
    {
      "anonymous": false,
      "inputs": [
        {
          "indexed": false,
          "internalType": "address",
          "name": "account",
          "type": "address"
        }
      ],
      "name": "Paused",
      "type": "event"
    },
    {
      "anonymous": false,
      "inputs": [
        {
          "indexed": true,
          "internalType": "bytes32",
          "name": "role",
          "type": "bytes32"
        },
        {
          "indexed": true,
          "internalType": "bytes32",
          "name": "previousAdminRole",
          "type": "bytes32"
        },
        {
          "indexed": true,
          "internalType": "bytes32",
          "name": "newAdminRole",
          "type": "bytes32"
        }
      ],
      "name": "RoleAdminChanged",
      "type": "event"
    },
    {
      "anonymous": false,
      "inputs": [
        {
          "indexed": true,
          "internalType": "bytes32",
          "name": "role",
          "type": "bytes32"
        },
        {
          "indexed": true,
          "internalType": "address",
          "name": "account",
          "type": "address"
        },
        {
          "indexed": true,
          "internalType": "address",
          "name": "sender",
          "type": "address"
        }
      ],
      "name": "RoleGranted",
      "type": "event"
    },
    {
      "anonymous": false,
      "inputs": [
        {
          "indexed": true,
          "internalType": "bytes32",
          "name": "role",
          "type": "bytes32"
        },
        {
          "indexed": true,
          "internalType": "address",
          "name": "account",
          "type": "address"
        },
        {
          "indexed": true,
          "internalType": "address",
          "name": "sender",
          "type": "address"
        }
      ],
      "name": "RoleRevoked",
      "type": "event"
    },
    {
      "anonymous": false,
      "inputs": [
        {
          "indexed": true,
          "internalType": "address",
          "name": "from",
          "type": "address"
        },
        {
          "indexed": true,
          "internalType": "address",
          "name": "to",
          "type": "address"
        },
        {
          "indexed": false,
          "internalType": "uint256",
          "name": "value",
          "type": "uint256"
        }
      ],
      "name": "Transfer",
      "type": "event"
    },
    {
      "anonymous": false,
      "inputs": [
        {
          "indexed": false,
          "internalType": "address",
          "name": "account",
          "type": "address"
        }
      ],
      "name": "Unpaused",
      "type": "event"
    },
    {
      "anonymous": false,
      "inputs": [
        {
          "indexed": true,
          "internalType": "address",
          "name": "implementation",
          "type": "address"
        }
      ],
      "name": "Upgraded",
      "type": "event"
    },
    {
      "inputs": [],
      "name": "DEFAULT_ADMIN_ROLE",
      "outputs": [
        {
          "internalType": "bytes32",
          "name": "",
          "type": "bytes32"
        }
      ],
      "stateMutability": "view",
      "type": "function"
    },
    {
      "inputs": [],
      "name": "MINTER_ROLE",
      "outputs": [
        {
          "internalType": "bytes32",
          "name": "",
          "type": "bytes32"
        }
      ],
      "stateMutability": "view",
      "type": "function"
    },
    {
      "inputs": [],
      "name": "PAUSER_ROLE",
      "outputs": [
        {
          "internalType": "bytes32",
          "name": "",
          "type": "bytes32"
        }
      ],
      "stateMutability": "view",
      "type": "function"
    },
    {
      "inputs": [
        {
          "internalType": "address",
          "name": "owner",
          "type": "address"
        },
        {
          "internalType": "address",
          "name": "spender",
          "type": "address"
        }
      ],
      "name": "allowance",
      "outputs": [
        {
          "internalType": "uint256",
          "name": "",
          "type": "uint256"
        }
      ],
      "stateMutability": "view",
      "type": "function"
    },
    {
      "inputs": [
        {
          "internalType": "address",
          "name": "spender",
          "type": "address"
        },
        {
          "internalType": "uint256",
          "name": "amount",
          "type": "uint256"
        }
      ],
      "name": "approve",
      "outputs": [
        {
          "internalType": "bool",
          "name": "",
          "type": "bool"
        }
      ],
      "stateMutability": "nonpayable",
      "type": "function"
    },
    {
      "inputs": [
        {
          "internalType": "address",
          "name": "account",
          "type": "address"
        }
      ],
      "name": "balanceOf",
      "outputs": [
        {
          "internalType": "uint256",
          "name": "",
          "type": "uint256"
        }
      ],
      "stateMutability": "view",
      "type": "function"
    },
    {
      "inputs": [],
      "name": "decimals",
      "outputs": [
        {
          "internalType": "uint8",
          "name": "",
          "type": "uint8"
        }
      ],
      "stateMutability": "view",
      "type": "function"
    },
    {
      "inputs": [
        {
          "internalType": "address",
          "name": "spender",
          "type": "address"
        },
        {
          "internalType": "uint256",
          "name": "subtractedValue",
          "type": "uint256"
        }
      ],
      "name": "decreaseAllowance",
      "outputs": [
        {
          "internalType": "bool",
          "name": "",
          "type": "bool"
        }
      ],
      "stateMutability": "nonpayable",
      "type": "function"
    },
    {
      "inputs": [
        {
          "internalType": "bytes32",
          "name": "role",
          "type": "bytes32"
        }
      ],
      "name": "getRoleAdmin",
      "outputs": [
        {
          "internalType": "bytes32",
          "name": "",
          "type": "bytes32"
        }
      ],
      "stateMutability": "view",
      "type": "function"
    },
    {
      "inputs": [
        {
          "internalType": "bytes32",
          "name": "role",
          "type": "bytes32"
        },
        {
          "internalType": "address",
          "name": "account",
          "type": "address"
        }
      ],
      "name": "grantRole",
      "outputs": [],
      "stateMutability": "nonpayable",
      "type": "function"
    },
    {
      "inputs": [
        {
          "internalType": "bytes32",
          "name": "role",
          "type": "bytes32"
        },
        {
          "internalType": "address",
          "name": "account",
          "type": "address"
        }
      ],
      "name": "hasRole",
      "outputs": [
        {
          "internalType": "bool",
          "name": "",
          "type": "bool"
        }
      ],
      "stateMutability": "view",
      "type": "function"
    },
    {
      "inputs": [
        {
          "internalType": "address",
          "name": "spender",
          "type": "address"
        },
        {
          "internalType": "uint256",
          "name": "addedValue",
          "type": "uint256"
        }
      ],
      "name": "increaseAllowance",
      "outputs": [
        {
          "internalType": "bool",
          "name": "",
          "type": "bool"
        }
      ],
      "stateMutability": "nonpayable",
      "type": "function"
    },
    {
      "inputs": [],
      "name": "initialize",
      "outputs": [],
      "stateMutability": "nonpayable",
      "type": "function"
    },
    {
      "inputs": [
        {
          "internalType": "address",
          "name": "to",
          "type": "address"
        },
        {
          "internalType": "uint256",
          "name": "amount",
          "type": "uint256"
        }
      ],
      "name": "mint",
      "outputs": [],
      "stateMutability": "nonpayable",
      "type": "function"
    },
    {
      "inputs": [],
      "name": "name",
      "outputs": [
        {
          "internalType": "string",
          "name": "",
          "type": "string"
        }
      ],
      "stateMutability": "view",
      "type": "function"
    },
    {
      "inputs": [],
      "name": "paused",
      "outputs": [
        {
          "internalType": "bool",
          "name": "",
          "type": "bool"
        }
      ],
      "stateMutability": "view",
      "type": "function"
    },
    {
      "inputs": [],
      "name": "proxiableUUID",
      "outputs": [
        {
          "internalType": "bytes32",
          "name": "",
          "type": "bytes32"
        }
      ],
      "stateMutability": "view",
      "type": "function"
    },
    {
      "inputs": [
        {
          "internalType": "bytes32",
          "name": "role",
          "type": "bytes32"
        },
        {
          "internalType": "address",
          "name": "account",
          "type": "address"
        }
      ],
      "name": "renounceRole",
      "outputs": [],
      "stateMutability": "nonpayable",
      "type": "function"
    },
    {
      "inputs": [
        {
          "internalType": "bytes32",
          "name": "role",
          "type": "bytes32"
        },
        {
          "internalType": "address",
          "name": "account",
          "type": "address"
        }
      ],
      "name": "revokeRole",
      "outputs": [],
      "stateMutability": "nonpayable",
      "type": "function"
    },
    {
      "inputs": [
        {
          "internalType": "bytes4",
          "name": "interfaceId",
          "type": "bytes4"
        }
      ],
      "name": "supportsInterface",
      "outputs": [
        {
          "internalType": "bool",
          "name": "",
          "type": "bool"
        }
      ],
      "stateMutability": "view",
      "type": "function"
    },
    {
      "inputs": [],
      "name": "symbol",
      "outputs": [
        {
          "internalType": "string",
          "name": "",
          "type": "string"
        }
      ],
      "stateMutability": "view",
      "type": "function"
    },
    {
      "inputs": [],
      "name": "totalSupply",
      "outputs": [
        {
          "internalType": "uint256",
          "name": "",
          "type": "uint256"
        }
      ],
      "stateMutability": "view",
      "type": "function"
    },
    {
      "inputs": [
        {
          "internalType": "address",
          "name": "to",
          "type": "address"
        },
        {
          "internalType": "uint256",
          "name": "amount",
          "type": "uint256"
        }
      ],
      "name": "transfer",
      "outputs": [
        {
          "internalType": "bool",
          "name": "",
          "type": "bool"
        }
      ],
      "stateMutability": "nonpayable",
      "type": "function"
    },
    {
      "inputs": [
        {
          "internalType": "address",
          "name": "from",
          "type": "address"
        },
        {
          "internalType": "address",
          "name": "to",
          "type": "address"
        },
        {
          "internalType": "uint256",
          "name": "amount",
          "type": "uint256"
        }
      ],
      "name": "transferFrom",
      "outputs": [
        {
          "internalType": "bool",
          "name": "",
          "type": "bool"
        }
      ],
      "stateMutability": "nonpayable",
      "type": "function"
    },
    {
      "inputs": [
        {
          "internalType": "address",
          "name": "newImplementation",
          "type": "address"
        }
      ],
      "name": "upgradeTo",
      "outputs": [],
      "stateMutability": "nonpayable",
      "type": "function"
    },
    {
      "inputs": [
        {
          "internalType": "address",
          "name": "newImplementation",
          "type": "address"
        },
        {
          "internalType": "bytes",
          "name": "data",
          "type": "bytes"
        }
      ],
      "name": "upgradeToAndCall",
      "outputs": [],
      "stateMutability": "payable",
      "type": "function"
    }
  ],
  "bytecode": "0x60a06040523073ffffffffffffffffffffffffffffffffffffffff1660809073ffffffffffffffffffffffffffffffffffffffff1681525034801561004357600080fd5b50608051613ce361007b600039600081816108a20152818161093001528181610a9a01528181610b280152610bd80152613ce36000f3fe6080604052600436106101815760003560e01c806352d1902d116100d1578063a217fddf1161008a578063d539139311610064578063d5391393146105af578063d547741f146105da578063dd62ed3e14610603578063e63ab1e91461064057610181565b8063a217fddf1461050a578063a457c2d714610535578063a9059cbb1461057257610181565b806352d1902d146103f85780635c975abb1461042357806370a082311461044e5780638129fc1c1461048b57806391d14854146104a257806395d89b41146104df57610181565b80632f2ff15d1161013e5780633659cfe6116101185780633659cfe61461034d578063395093511461037657806340c10f19146103b35780634f1ef286146103dc57610181565b80632f2ff15d146102d0578063313ce567146102f957806336568abe1461032457610181565b806301ffc9a71461018657806306fdde03146101c3578063095ea7b3146101ee57806318160ddd1461022b57806323b872dd14610256578063248a9ca314610293575b600080fd5b34801561019257600080fd5b506101ad60048036038101906101a891906124f1565b61066b565b6040516101ba9190612539565b60405180910390f35b3480156101cf57600080fd5b506101d86106e5565b6040516101e591906125e4565b60405180910390f35b3480156101fa57600080fd5b506102156004803603810190610210919061269a565b610777565b6040516102229190612539565b60405180910390f35b34801561023757600080fd5b5061024061079a565b60405161024d91906126e9565b60405180910390f35b34801561026257600080fd5b5061027d60048036038101906102789190612704565b6107a4565b60405161028a9190612539565b60405180910390f35b34801561029f57600080fd5b506102ba60048036038101906102b5919061278d565b6107d3565b6040516102c791906127c9565b60405180910390f35b3480156102dc57600080fd5b506102f760048036038101906102f291906127e4565b6107f3565b005b34801561030557600080fd5b5061030e610814565b60405161031b9190612840565b60405180910390f35b34801561033057600080fd5b5061034b600480360381019061034691906127e4565b61081d565b005b34801561035957600080fd5b50610374600480360381019061036f919061285b565b6108a0565b005b34801561038257600080fd5b5061039d6004803603810190610398919061269a565b610a28565b6040516103aa9190612539565b60405180910390f35b3480156103bf57600080fd5b506103da60048036038101906103d5919061269a565b610a5f565b005b6103f660048036038101906103f191906129bd565b610a98565b005b34801561040457600080fd5b5061040d610bd4565b60405161041a91906127c9565b60405180910390f35b34801561042f57600080fd5b50610438610c8d565b6040516104459190612539565b60405180910390f35b34801561045a57600080fd5b506104756004803603810190610470919061285b565b610ca4565b60405161048291906126e9565b60405180910390f35b34801561049757600080fd5b506104a0610ced565b005b3480156104ae57600080fd5b506104c960048036038101906104c491906127e4565b610f3b565b6040516104d69190612539565b60405180910390f35b3480156104eb57600080fd5b506104f4610fa6565b60405161050191906125e4565b60405180910390f35b34801561051657600080fd5b5061051f611038565b60405161052c91906127c9565b60405180910390f35b34801561054157600080fd5b5061055c6004803603810190610557919061269a565b61103f565b6040516105699190612539565b60405180910390f35b34801561057e57600080fd5b506105996004803603810190610594919061269a565b6110b6565b6040516105a69190612539565b60405180910390f35b3480156105bb57600080fd5b506105c46110d9565b6040516105d191906127c9565b60405180910390f35b3480156105e657600080fd5b5061060160048036038101906105fc91906127e4565b6110fd565b005b34801561060f57600080fd5b5061062a60048036038101906106259190612a19565b61111e565b60405161063791906126e9565b60405180910390f35b34801561064c57600080fd5b506106556111a5565b60405161066291906127c9565b60405180910390f35b60007f7965db0b000000000000000000000000000000000000000000000000000000007bffffffffffffffffffffffffffffffffffffffffffffffffffffffff1916827bffffffffffffffffffffffffffffffffffffffffffffffffffffffff191614806106de57506106dd826111c9565b5b9050919050565b6060603680546106f490612a88565b80601f016020809104026020016040519081016040528092919081815260200182805461072090612a88565b801561076d5780601f106107425761010080835404028352916020019161076d565b820191906000526020600020905b81548152906001019060200180831161075057829003601f168201915b5050505050905090565b600080610782611233565b905061078f81858561123b565b600191505092915050565b6000603554905090565b6000806107af611233565b90506107bc858285611404565b6107c7858585611490565b60019150509392505050565b600060fb6000838152602001908152602001600020600101549050919050565b6107fc826107d3565b61080581611709565b61080f838361171d565b505050565b60006012905090565b610825611233565b73ffffffffffffffffffffffffffffffffffffffff168173ffffffffffffffffffffffffffffffffffffffff1614610892576040517f08c379a000000000000000000000000000000000000000000000000000000000815260040161088990612b2b565b60405180910390fd5b61089c82826117fe565b5050565b7f000000000000000000000000000000000000000000000000000000000000000073ffffffffffffffffffffffffffffffffffffffff163073ffffffffffffffffffffffffffffffffffffffff160361092e576040517f08c379a000000000000000000000000000000000000000000000000000000000815260040161092590612bbd565b60405180910390fd5b7f000000000000000000000000000000000000000000000000000000000000000073ffffffffffffffffffffffffffffffffffffffff1661096d6118e0565b73ffffffffffffffffffffffffffffffffffffffff16146109c3576040517f08c379a00000000000000000000000000000000000000000000000000000000081526004016109ba90612c4f565b60405180910390fd5b6109cc81611937565b610a2581600067ffffffffffffffff8111156109eb576109ea612892565b5b6040519080825280601f01601f191660200182016040528015610a1d5781602001600182028036833780820191505090505b506000611948565b50565b600080610a33611233565b9050610a54818585610a45858961111e565b610a4f9190612c9e565b61123b565b600191505092915050565b7f9f2df0fed2c77648de5860a4cc508cd0818c85b8b8a1ab4ceeef8d981c8956a6610a8981611709565b610a938383611ab6565b505050565b7f000000000000000000000000000000000000000000000000000000000000000073ffffffffffffffffffffffffffffffffffffffff163073ffffffffffffffffffffffffffffffffffffffff1603610b26576040517f08c379a0000000000000000000000000000000000000000000000000000000008152600401610b1d90612bbd565b60405180910390fd5b7f000000000000000000000000000000000000000000000000000000000000000073ffffffffffffffffffffffffffffffffffffffff16610b656118e0565b73ffffffffffffffffffffffffffffffffffffffff1614610bbb576040517f08c379a0000000000000000000000000000000000000000000000000000000008152600401610bb290612c4f565b60405180910390fd5b610bc482611937565b610bd082826001611948565b5050565b60007f000000000000000000000000000000000000000000000000000000000000000073ffffffffffffffffffffffffffffffffffffffff163073ffffffffffffffffffffffffffffffffffffffff1614610c64576040517f08c379a0000000000000000000000000000000000000000000000000000000008152600401610c5b90612d44565b60405180910390fd5b7f360894a13ba1a3210667c828492db98dca3e2076cc3735a920a3ca505d382bbc60001b905090565b6000606560009054906101000a900460ff16905090565b6000603360008373ffffffffffffffffffffffffffffffffffffffff1673ffffffffffffffffffffffffffffffffffffffff168152602001908152602001600020549050919050565b60008060019054906101000a900460ff16159050808015610d1e5750600160008054906101000a900460ff1660ff16105b80610d4b5750610d2d30611c0d565b158015610d4a5750600160008054906101000a900460ff1660ff16145b5b610d8a576040517f08c379a0000000000000000000000000000000000000000000000000000000008152600401610d8190612dd6565b60405180910390fd5b60016000806101000a81548160ff021916908360ff1602179055508015610dc7576001600060016101000a81548160ff0219169083151502179055505b610e3b6040518060400160405280600881526020017f55534420436f696e0000000000000000000000000000000000000000000000008152506040518060400160405280600481526020017f5553444300000000000000000000000000000000000000000000000000000000815250611c30565b610e43611c8d565b610e4b611ce6565b610e53611d37565b610e7e33610e5f610814565b600a610e6b9190612f29565b6207a120610e799190612f74565b611ab6565b610e8b6000801b33611d88565b610eb57f65d7a28e3265b37a6474929f336521b332c1681b933f6cb9f3376673440d862a33611d88565b610edf7f9f2df0fed2c77648de5860a4cc508cd0818c85b8b8a1ab4ceeef8d981c8956a633611d88565b8015610f385760008060016101000a81548160ff0219169083151502179055507f7f26b83ff96e1f2b6a682f133852f6798a09c465da95921460cefb38474024986001604051610f2f9190612ffb565b60405180910390a15b50565b600060fb600084815260200190815260200160002060000160008373ffffffffffffffffffffffffffffffffffffffff1673ffffffffffffffffffffffffffffffffffffffff16815260200190815260200160002060009054906101000a900460ff16905092915050565b606060378054610fb590612a88565b80601f0160208091040260200160405190810160405280929190818152602001828054610fe190612a88565b801561102e5780601f106110035761010080835404028352916020019161102e565b820191906000526020600020905b81548152906001019060200180831161101157829003601f168201915b5050505050905090565b6000801b81565b60008061104a611233565b90506000611058828661111e565b90508381101561109d576040517f08c379a000000000000000000000000000000000000000000000000000000000815260040161109490613088565b60405180910390fd5b6110aa828686840361123b565b60019250505092915050565b6000806110c1611233565b90506110ce818585611490565b600191505092915050565b7f9f2df0fed2c77648de5860a4cc508cd0818c85b8b8a1ab4ceeef8d981c8956a681565b611106826107d3565b61110f81611709565b61111983836117fe565b505050565b6000603460008473ffffffffffffffffffffffffffffffffffffffff1673ffffffffffffffffffffffffffffffffffffffff16815260200190815260200160002060008373ffffffffffffffffffffffffffffffffffffffff1673ffffffffffffffffffffffffffffffffffffffff16815260200190815260200160002054905092915050565b7f65d7a28e3265b37a6474929f336521b332c1681b933f6cb9f3376673440d862a81565b60007f01ffc9a7000000000000000000000000000000000000000000000000000000007bffffffffffffffffffffffffffffffffffffffffffffffffffffffff1916827bffffffffffffffffffffffffffffffffffffffffffffffffffffffff1916149050919050565b600033905090565b600073ffffffffffffffffffffffffffffffffffffffff168373ffffffffffffffffffffffffffffffffffffffff16036112aa576040517f08c379a00000000000000000000000000000000000000000000000000000000081526004016112a19061311a565b60405180910390fd5b600073ffffffffffffffffffffffffffffffffffffffff168273ffffffffffffffffffffffffffffffffffffffff1603611319576040517f08c379a0000000000000000000000000000000000000000000000000000000008152600401611310906131ac565b60405180910390fd5b80603460008573ffffffffffffffffffffffffffffffffffffffff1673ffffffffffffffffffffffffffffffffffffffff16815260200190815260200160002060008473ffffffffffffffffffffffffffffffffffffffff1673ffffffffffffffffffffffffffffffffffffffff168152602001908152602001600020819055508173ffffffffffffffffffffffffffffffffffffffff168373ffffffffffffffffffffffffffffffffffffffff167f8c5be1e5ebec7d5bd14f71427d1e84f3dd0314c0f7b2291e5b200ac8c7c3b925836040516113f791906126e9565b60405180910390a3505050565b6000611410848461111e565b90507fffffffffffffffffffffffffffffffffffffffffffffffffffffffffffffffff811461148a578181101561147c576040517f08c379a000000000000000000000000000000000000000000000000000000000815260040161147390613218565b60405180910390fd5b611489848484840361123b565b5b50505050565b600073ffffffffffffffffffffffffffffffffffffffff168373ffffffffffffffffffffffffffffffffffffffff16036114ff576040517f08c379a00000000000000000000000000000000000000000000000000000000081526004016114f6906132aa565b60405180910390fd5b600073ffffffffffffffffffffffffffffffffffffffff168273ffffffffffffffffffffffffffffffffffffffff160361156e576040517f08c379a00000000000000000000000000000000000000000000000000000000081526004016115659061333c565b60405180910390fd5b611579838383611d96565b6000603360008573ffffffffffffffffffffffffffffffffffffffff1673ffffffffffffffffffffffffffffffffffffffff16815260200190815260200160002054905081811015611600576040517f08c379a00000000000000000000000000000000000000000000000000000000081526004016115f7906133ce565b60405180910390fd5b818103603360008673ffffffffffffffffffffffffffffffffffffffff1673ffffffffffffffffffffffffffffffffffffffff1681526020019081526020016000208190555081603360008573ffffffffffffffffffffffffffffffffffffffff1673ffffffffffffffffffffffffffffffffffffffff168152602001908152602001600020600082825401925050819055508273ffffffffffffffffffffffffffffffffffffffff168473ffffffffffffffffffffffffffffffffffffffff167fddf252ad1be2c89b69c2b068fc378daa952ba7f163c4a11628f55a4df523b3ef846040516116f091906126e9565b60405180910390a3611703848484611dee565b50505050565b61171a81611715611233565b611df3565b50565b6117278282610f3b565b6117fa57600160fb600084815260200190815260200160002060000160008373ffffffffffffffffffffffffffffffffffffffff1673ffffffffffffffffffffffffffffffffffffffff16815260200190815260200160002060006101000a81548160ff02191690831515021790555061179f611233565b73ffffffffffffffffffffffffffffffffffffffff168173ffffffffffffffffffffffffffffffffffffffff16837f2f8788117e7eff1d82e926ec794901d17c78024a50270940304540a733656f0d60405160405180910390a45b5050565b6118088282610f3b565b156118dc57600060fb600084815260200190815260200160002060000160008373ffffffffffffffffffffffffffffffffffffffff1673ffffffffffffffffffffffffffffffffffffffff16815260200190815260200160002060006101000a81548160ff021916908315150217905550611881611233565b73ffffffffffffffffffffffffffffffffffffffff168173ffffffffffffffffffffffffffffffffffffffff16837ff6391f5c32d9c69d2a47ea670b442974b53935d1edc7fd64eb21e047a839171b60405160405180910390a45b5050565b600061190e7f360894a13ba1a3210667c828492db98dca3e2076cc3735a920a3ca505d382bbc60001b611e78565b60000160009054906101000a900473ffffffffffffffffffffffffffffffffffffffff16905090565b6000801b61194481611709565b5050565b6119747f4910fdfa16fed3260ed0e7147f7cc6da11a60208b5b9406d12a635614ffd914360001b611e82565b60000160009054906101000a900460ff16156119985761199383611e8c565b611ab1565b8273ffffffffffffffffffffffffffffffffffffffff166352d1902d6040518163ffffffff1660e01b8152600401602060405180830381865afa925050508015611a0057506040513d601f19601f820116820180604052508101906119fd9190613403565b60015b611a3f576040517f08c379a0000000000000000000000000000000000000000000000000000000008152600401611a36906134a2565b60405180910390fd5b7f360894a13ba1a3210667c828492db98dca3e2076cc3735a920a3ca505d382bbc60001b8114611aa4576040517f08c379a0000000000000000000000000000000000000000000000000000000008152600401611a9b90613534565b60405180910390fd5b50611ab0838383611f45565b5b505050565b600073ffffffffffffffffffffffffffffffffffffffff168273ffffffffffffffffffffffffffffffffffffffff1603611b25576040517f08c379a0000000000000000000000000000000000000000000000000000000008152600401611b1c906135a0565b60405180910390fd5b611b3160008383611d96565b8060356000828254611b439190612c9e565b9250508190555080603360008473ffffffffffffffffffffffffffffffffffffffff1673ffffffffffffffffffffffffffffffffffffffff168152602001908152602001600020600082825401925050819055508173ffffffffffffffffffffffffffffffffffffffff16600073ffffffffffffffffffffffffffffffffffffffff167fddf252ad1be2c89b69c2b068fc378daa952ba7f163c4a11628f55a4df523b3ef83604051611bf591906126e9565b60405180910390a3611c0960008383611dee565b5050565b6000808273ffffffffffffffffffffffffffffffffffffffff163b119050919050565b600060019054906101000a900460ff16611c7f576040517f08c379a0000000000000000000000000000000000000000000000000000000008152600401611c7690613632565b60405180910390fd5b611c898282611f71565b5050565b600060019054906101000a900460ff16611cdc576040517f08c379a0000000000000000000000000000000000000000000000000000000008152600401611cd390613632565b60405180910390fd5b611ce4611fe4565b565b600060019054906101000a900460ff16611d35576040517f08c379a0000000000000000000000000000000000000000000000000000000008152600401611d2c90613632565b60405180910390fd5b565b600060019054906101000a900460ff16611d86576040517f08c379a0000000000000000000000000000000000000000000000000000000008152600401611d7d90613632565b60405180910390fd5b565b611d92828261171d565b5050565b611da1838383612050565b611da9610c8d565b15611de9576040517f08c379a0000000000000000000000000000000000000000000000000000000008152600401611de0906136c4565b60405180910390fd5b505050565b505050565b611dfd8282610f3b565b611e7457611e0a81612055565b611e188360001c6020612082565b604051602001611e299291906137b8565b6040516020818303038152906040526040517f08c379a0000000000000000000000000000000000000000000000000000000008152600401611e6b91906125e4565b60405180910390fd5b5050565b6000819050919050565b6000819050919050565b611e9581611c0d565b611ed4576040517f08c379a0000000000000000000000000000000000000000000000000000000008152600401611ecb90613864565b60405180910390fd5b80611f017f360894a13ba1a3210667c828492db98dca3e2076cc3735a920a3ca505d382bbc60001b611e78565b60000160006101000a81548173ffffffffffffffffffffffffffffffffffffffff021916908373ffffffffffffffffffffffffffffffffffffffff16021790555050565b611f4e836122be565b600082511180611f5b5750805b15611f6c57611f6a838361230d565b505b505050565b600060019054906101000a900460ff16611fc0576040517f08c379a0000000000000000000000000000000000000000000000000000000008152600401611fb790613632565b60405180910390fd5b8160369081611fcf9190613a26565b508060379081611fdf9190613a26565b505050565b600060019054906101000a900460ff16612033576040517f08c379a000000000000000000000000000000000000000000000000000000000815260040161202a90613632565b60405180910390fd5b6000606560006101000a81548160ff021916908315150217905550565b505050565b606061207b8273ffffffffffffffffffffffffffffffffffffffff16601460ff16612082565b9050919050565b6060600060028360026120959190612f74565b61209f9190612c9e565b67ffffffffffffffff8111156120b8576120b7612892565b5b6040519080825280601f01601f1916602001820160405280156120ea5781602001600182028036833780820191505090505b5090507f30000000000000000000000000000000000000000000000000000000000000008160008151811061212257612121613af8565b5b60200101907effffffffffffffffffffffffffffffffffffffffffffffffffffffffffffff1916908160001a9053507f78000000000000000000000000000000000000000000000000000000000000008160018151811061218657612185613af8565b5b60200101907effffffffffffffffffffffffffffffffffffffffffffffffffffffffffffff1916908160001a905350600060018460026121c69190612f74565b6121d09190612c9e565b90505b6001811115612270577f3031323334353637383961626364656600000000000000000000000000000000600f86166010811061221257612211613af8565b5b1a60f81b82828151811061222957612228613af8565b5b60200101907effffffffffffffffffffffffffffffffffffffffffffffffffffffffffffff1916908160001a905350600485901c94508061226990613b27565b90506121d3565b50600084146122b4576040517f08c379a00000000000000000000000000000000000000000000000000000000081526004016122ab90613b9c565b60405180910390fd5b8091505092915050565b6122c781611e8c565b8073ffffffffffffffffffffffffffffffffffffffff167fbc7cd75a20ee27fd9adebab32041f755214dbc6bffa90cc0225b39da2e5c2d3b60405160405180910390a250565b60606123328383604051806060016040528060278152602001613c876027913961233a565b905092915050565b60606000808573ffffffffffffffffffffffffffffffffffffffff16856040516123649190613c03565b600060405180830381855af49150503d806000811461239f576040519150601f19603f3d011682016040523d82523d6000602084013e6123a4565b606091505b50915091506123b5868383876123c0565b925050509392505050565b6060831561242257600083510361241a576123da85611c0d565b612419576040517f08c379a000000000000000000000000000000000000000000000000000000000815260040161241090613c66565b60405180910390fd5b5b82905061242d565b61242c8383612435565b5b949350505050565b6000825111156124485781518083602001fd5b806040517f08c379a000000000000000000000000000000000000000000000000000000000815260040161247c91906125e4565b60405180910390fd5b6000604051905090565b600080fd5b600080fd5b60007fffffffff0000000000000000000000000000000000000000000000000000000082169050919050565b6124ce81612499565b81146124d957600080fd5b50565b6000813590506124eb816124c5565b92915050565b6000602082840312156125075761250661248f565b5b6000612515848285016124dc565b91505092915050565b60008115159050919050565b6125338161251e565b82525050565b600060208201905061254e600083018461252a565b92915050565b600081519050919050565b600082825260208201905092915050565b60005b8381101561258e578082015181840152602081019050612573565b60008484015250505050565b6000601f19601f8301169050919050565b60006125b682612554565b6125c0818561255f565b93506125d0818560208601612570565b6125d98161259a565b840191505092915050565b600060208201905081810360008301526125fe81846125ab565b905092915050565b600073ffffffffffffffffffffffffffffffffffffffff82169050919050565b600061263182612606565b9050919050565b61264181612626565b811461264c57600080fd5b50565b60008135905061265e81612638565b92915050565b6000819050919050565b61267781612664565b811461268257600080fd5b50565b6000813590506126948161266e565b92915050565b600080604083850312156126b1576126b061248f565b5b60006126bf8582860161264f565b92505060206126d085828601612685565b9150509250929050565b6126e381612664565b82525050565b60006020820190506126fe60008301846126da565b92915050565b60008060006060848603121561271d5761271c61248f565b5b600061272b8682870161264f565b935050602061273c8682870161264f565b925050604061274d86828701612685565b9150509250925092565b6000819050919050565b61276a81612757565b811461277557600080fd5b50565b60008135905061278781612761565b92915050565b6000602082840312156127a3576127a261248f565b5b60006127b184828501612778565b91505092915050565b6127c381612757565b82525050565b60006020820190506127de60008301846127ba565b92915050565b600080604083850312156127fb576127fa61248f565b5b600061280985828601612778565b925050602061281a8582860161264f565b9150509250929050565b600060ff82169050919050565b61283a81612824565b82525050565b60006020820190506128556000830184612831565b92915050565b6000602082840312156128715761287061248f565b5b600061287f8482850161264f565b91505092915050565b600080fd5b600080fd5b7f4e487b7100000000000000000000000000000000000000000000000000000000600052604160045260246000fd5b6128ca8261259a565b810181811067ffffffffffffffff821117156128e9576128e8612892565b5b80604052505050565b60006128fc612485565b905061290882826128c1565b919050565b600067ffffffffffffffff82111561292857612927612892565b5b6129318261259a565b9050602081019050919050565b82818337600083830152505050565b600061296061295b8461290d565b6128f2565b90508281526020810184848401111561297c5761297b61288d565b5b61298784828561293e565b509392505050565b600082601f8301126129a4576129a3612888565b5b81356129b484826020860161294d565b91505092915050565b600080604083850312156129d4576129d361248f565b5b60006129e28582860161264f565b925050602083013567ffffffffffffffff811115612a0357612a02612494565b5b612a0f8582860161298f565b9150509250929050565b60008060408385031215612a3057612a2f61248f565b5b6000612a3e8582860161264f565b9250506020612a4f8582860161264f565b9150509250929050565b7f4e487b7100000000000000000000000000000000000000000000000000000000600052602260045260246000fd5b60006002820490506001821680612aa057607f821691505b602082108103612ab357612ab2612a59565b5b50919050565b7f416363657373436f6e74726f6c3a2063616e206f6e6c792072656e6f756e636560008201527f20726f6c657320666f722073656c660000000000000000000000000000000000602082015250565b6000612b15602f8361255f565b9150612b2082612ab9565b604082019050919050565b60006020820190508181036000830152612b4481612b08565b9050919050565b7f46756e6374696f6e206d7573742062652063616c6c6564207468726f7567682060008201527f64656c656761746563616c6c0000000000000000000000000000000000000000602082015250565b6000612ba7602c8361255f565b9150612bb282612b4b565b604082019050919050565b60006020820190508181036000830152612bd681612b9a565b9050919050565b7f46756e6374696f6e206d7573742062652063616c6c6564207468726f7567682060008201527f6163746976652070726f78790000000000000000000000000000000000000000602082015250565b6000612c39602c8361255f565b9150612c4482612bdd565b604082019050919050565b60006020820190508181036000830152612c6881612c2c565b9050919050565b7f4e487b7100000000000000000000000000000000000000000000000000000000600052601160045260246000fd5b6000612ca982612664565b9150612cb483612664565b9250828201905080821115612ccc57612ccb612c6f565b5b92915050565b7f555550535570677261646561626c653a206d757374206e6f742062652063616c60008201527f6c6564207468726f7567682064656c656761746563616c6c0000000000000000602082015250565b6000612d2e60388361255f565b9150612d3982612cd2565b604082019050919050565b60006020820190508181036000830152612d5d81612d21565b9050919050565b7f496e697469616c697a61626c653a20636f6e747261637420697320616c72656160008201527f647920696e697469616c697a6564000000000000000000000000000000000000602082015250565b6000612dc0602e8361255f565b9150612dcb82612d64565b604082019050919050565b60006020820190508181036000830152612def81612db3565b9050919050565b60008160011c9050919050565b6000808291508390505b6001851115612e4d57808604811115612e2957612e28612c6f565b5b6001851615612e385780820291505b8081029050612e4685612df6565b9450612e0d565b94509492505050565b600082612e665760019050612f22565b81612e745760009050612f22565b8160018114612e8a5760028114612e9457612ec3565b6001915050612f22565b60ff841115612ea657612ea5612c6f565b5b8360020a915084821115612ebd57612ebc612c6f565b5b50612f22565b5060208310610133831016604e8410600b8410161715612ef85782820a905083811115612ef357612ef2612c6f565b5b612f22565b612f058484846001612e03565b92509050818404811115612f1c57612f1b612c6f565b5b81810290505b9392505050565b6000612f3482612664565b9150612f3f83612824565b9250612f6c7fffffffffffffffffffffffffffffffffffffffffffffffffffffffffffffffff8484612e56565b905092915050565b6000612f7f82612664565b9150612f8a83612664565b9250828202612f9881612664565b91508282048414831517612faf57612fae612c6f565b5b5092915050565b6000819050919050565b6000819050919050565b6000612fe5612fe0612fdb84612fb6565b612fc0565b612824565b9050919050565b612ff581612fca565b82525050565b60006020820190506130106000830184612fec565b92915050565b7f45524332303a2064656372656173656420616c6c6f77616e63652062656c6f7760008201527f207a65726f000000000000000000000000000000000000000000000000000000602082015250565b600061307260258361255f565b915061307d82613016565b604082019050919050565b600060208201905081810360008301526130a181613065565b9050919050565b7f45524332303a20617070726f76652066726f6d20746865207a65726f2061646460008201527f7265737300000000000000000000000000000000000000000000000000000000602082015250565b600061310460248361255f565b915061310f826130a8565b604082019050919050565b60006020820190508181036000830152613133816130f7565b9050919050565b7f45524332303a20617070726f766520746f20746865207a65726f20616464726560008201527f7373000000000000000000000000000000000000000000000000000000000000602082015250565b600061319660228361255f565b91506131a18261313a565b604082019050919050565b600060208201905081810360008301526131c581613189565b9050919050565b7f45524332303a20696e73756666696369656e7420616c6c6f77616e6365000000600082015250565b6000613202601d8361255f565b915061320d826131cc565b602082019050919050565b60006020820190508181036000830152613231816131f5565b9050919050565b7f45524332303a207472616e736665722066726f6d20746865207a65726f20616460008201527f6472657373000000000000000000000000000000000000000000000000000000602082015250565b600061329460258361255f565b915061329f82613238565b604082019050919050565b600060208201905081810360008301526132c381613287565b9050919050565b7f45524332303a207472616e7366657220746f20746865207a65726f206164647260008201527f6573730000000000000000000000000000000000000000000000000000000000602082015250565b600061332660238361255f565b9150613331826132ca565b604082019050919050565b6000602082019050818103600083015261335581613319565b9050919050565b7f45524332303a207472616e7366657220616d6f756e742065786365656473206260008201527f616c616e63650000000000000000000000000000000000000000000000000000602082015250565b60006133b860268361255f565b91506133c38261335c565b604082019050919050565b600060208201905081810360008301526133e7816133ab565b9050919050565b6000815190506133fd81612761565b92915050565b6000602082840312156134195761341861248f565b5b6000613427848285016133ee565b91505092915050565b7f45524331393637557067726164653a206e657720696d706c656d656e7461746960008201527f6f6e206973206e6f742055555053000000000000000000000000000000000000602082015250565b600061348c602e8361255f565b915061349782613430565b604082019050919050565b600060208201905081810360008301526134bb8161347f565b9050919050565b7f45524331393637557067726164653a20756e737570706f727465642070726f7860008201527f6961626c65555549440000000000000000000000000000000000000000000000602082015250565b600061351e60298361255f565b9150613529826134c2565b604082019050919050565b6000602082019050818103600083015261354d81613511565b9050919050565b7f45524332303a206d696e7420746f20746865207a65726f206164647265737300600082015250565b600061358a601f8361255f565b915061359582613554565b602082019050919050565b600060208201905081810360008301526135b98161357d565b9050919050565b7f496e697469616c697a61626c653a20636f6e7472616374206973206e6f74206960008201527f6e697469616c697a696e67000000000000000000000000000000000000000000602082015250565b600061361c602b8361255f565b9150613627826135c0565b604082019050919050565b6000602082019050818103600083015261364b8161360f565b9050919050565b7f45524332305061757361626c653a20746f6b656e207472616e7366657220776860008201527f696c652070617573656400000000000000000000000000000000000000000000602082015250565b60006136ae602a8361255f565b91506136b982613652565b604082019050919050565b600060208201905081810360008301526136dd816136a1565b9050919050565b600081905092915050565b7f416363657373436f6e74726f6c3a206163636f756e7420000000000000000000600082015250565b60006137256017836136e4565b9150613730826136ef565b601782019050919050565b600061374682612554565b61375081856136e4565b9350613760818560208601612570565b80840191505092915050565b7f206973206d697373696e6720726f6c6520000000000000000000000000000000600082015250565b60006137a26011836136e4565b91506137ad8261376c565b601182019050919050565b60006137c382613718565b91506137cf828561373b565b91506137da82613795565b91506137e6828461373b565b91508190509392505050565b7f455243313936373a206e657720696d706c656d656e746174696f6e206973206e60008201527f6f74206120636f6e747261637400000000000000000000000000000000000000602082015250565b600061384e602d8361255f565b9150613859826137f2565b604082019050919050565b6000602082019050818103600083015261387d81613841565b9050919050565b60008190508160005260206000209050919050565b60006020601f8301049050919050565b600082821b905092915050565b6000600883026138e67fffffffffffffffffffffffffffffffffffffffffffffffffffffffffffffffff826138a9565b6138f086836138a9565b95508019841693508086168417925050509392505050565b600061392361391e61391984612664565b612fc0565b612664565b9050919050565b6000819050919050565b61393d83613908565b6139516139498261392a565b8484546138b6565b825550505050565b600090565b613966613959565b613971818484613934565b505050565b5b818110156139955761398a60008261395e565b600181019050613977565b5050565b601f8211156139da576139ab81613884565b6139b484613899565b810160208510156139c3578190505b6139d76139cf85613899565b830182613976565b50505b505050565b600082821c905092915050565b60006139fd600019846008026139df565b1980831691505092915050565b6000613a1683836139ec565b9150826002028217905092915050565b613a2f82612554565b67ffffffffffffffff811115613a4857613a47612892565b5b613a528254612a88565b613a5d828285613999565b600060209050601f831160018114613a905760008415613a7e578287015190505b613a888582613a0a565b865550613af0565b601f198416613a9e86613884565b60005b82811015613ac657848901518255600182019150602085019450602081019050613aa1565b86831015613ae35784890151613adf601f8916826139ec565b8355505b6001600288020188555050505b505050505050565b7f4e487b7100000000000000000000000000000000000000000000000000000000600052603260045260246000fd5b6000613b3282612664565b915060008203613b4557613b44612c6f565b5b600182039050919050565b7f537472696e67733a20686578206c656e67746820696e73756666696369656e74600082015250565b6000613b8660208361255f565b9150613b9182613b50565b602082019050919050565b60006020820190508181036000830152613bb581613b79565b9050919050565b600081519050919050565b600081905092915050565b6000613bdd82613bbc565b613be78185613bc7565b9350613bf7818560208601612570565b80840191505092915050565b6000613c0f8284613bd2565b915081905092915050565b7f416464726573733a2063616c6c20746f206e6f6e2d636f6e7472616374000000600082015250565b6000613c50601d8361255f565b9150613c5b82613c1a565b602082019050919050565b60006020820190508181036000830152613c7f81613c43565b905091905056fe416464726573733a206c6f772d6c6576656c2064656c65676174652063616c6c206661696c6564a26469706673582212203c6c4ed8549722c9c66a1aa455150cad3b0cf2c063be98bd0ae2fac55edfef6064736f6c63430008130033",
  "linkReferences": {},
  "deployedLinkReferences": {}
}