{
  "_format": "hh-sol-artifact-1",
  "contractName": "PublicSale",
  "sourceName": "contracts/PublicSale.sol",
  "abi": [
    {
      "anonymous": false,
      "inputs": [
        {
          "indexed": false,
          "internalType": "address",
          "name": "previousAdmin",
          "type": "address"
        },
        {
          "indexed": false,
          "internalType": "address",
          "name": "newAdmin",
          "type": "address"
        }
      ],
      "name": "AdminChanged",
      "type": "event"
    },
    {
      "anonymous": false,
      "inputs": [
        {
          "indexed": true,
          "internalType": "address",
          "name": "beacon",
          "type": "address"
        }
      ],
      "name": "BeaconUpgraded",
      "type": "event"
    },
    {
      "anonymous": false,
      "inputs": [
        {
          "indexed": false,
          "internalType": "uint8",
          "name": "version",
          "type": "uint8"
        }
      ],
      "name": "Initialized",
      "type": "event"
    },
    {
      "anonymous": false,
      "inputs": [
        {
          "indexed": false,
          "internalType": "address",
          "name": "account",
          "type": "address"
        }
      ],
      "name": "Paused",
      "type": "event"
    },
    {
      "anonymous": false,
      "inputs": [
        {
          "indexed": true,
          "internalType": "bytes32",
          "name": "role",
          "type": "bytes32"
        },
        {
          "indexed": true,
          "internalType": "bytes32",
          "name": "previousAdminRole",
          "type": "bytes32"
        },
        {
          "indexed": true,
          "internalType": "bytes32",
          "name": "newAdminRole",
          "type": "bytes32"
        }
      ],
      "name": "RoleAdminChanged",
      "type": "event"
    },
    {
      "anonymous": false,
      "inputs": [
        {
          "indexed": true,
          "internalType": "bytes32",
          "name": "role",
          "type": "bytes32"
        },
        {
          "indexed": true,
          "internalType": "address",
          "name": "account",
          "type": "address"
        },
        {
          "indexed": true,
          "internalType": "address",
          "name": "sender",
          "type": "address"
        }
      ],
      "name": "RoleGranted",
      "type": "event"
    },
    {
      "anonymous": false,
      "inputs": [
        {
          "indexed": true,
          "internalType": "bytes32",
          "name": "role",
          "type": "bytes32"
        },
        {
          "indexed": true,
          "internalType": "address",
          "name": "account",
          "type": "address"
        },
        {
          "indexed": true,
          "internalType": "address",
          "name": "sender",
          "type": "address"
        }
      ],
      "name": "RoleRevoked",
      "type": "event"
    },
    {
      "anonymous": false,
      "inputs": [
        {
          "indexed": false,
          "internalType": "address",
          "name": "account",
          "type": "address"
        }
      ],
      "name": "Unpaused",
      "type": "event"
    },
    {
      "anonymous": false,
      "inputs": [
        {
          "indexed": true,
          "internalType": "address",
          "name": "implementation",
          "type": "address"
        }
      ],
      "name": "Upgraded",
      "type": "event"
    },
    {
      "inputs": [],
      "name": "DEFAULT_ADMIN_ROLE",
      "outputs": [
        {
          "internalType": "bytes32",
          "name": "",
          "type": "bytes32"
        }
      ],
      "stateMutability": "view",
      "type": "function"
    },
    {
      "inputs": [],
      "name": "EXECUTER_ROLE",
      "outputs": [
        {
          "internalType": "bytes32",
          "name": "",
          "type": "bytes32"
        }
      ],
      "stateMutability": "view",
      "type": "function"
    },
    {
      "inputs": [],
      "name": "PAUSER_ROLE",
      "outputs": [
        {
          "internalType": "bytes32",
          "name": "",
          "type": "bytes32"
        }
      ],
      "stateMutability": "view",
      "type": "function"
    },
    {
      "inputs": [],
      "name": "UPGRADER_ROLE",
      "outputs": [
        {
          "internalType": "bytes32",
          "name": "",
          "type": "bytes32"
        }
      ],
      "stateMutability": "view",
      "type": "function"
    },
    {
      "inputs": [],
      "name": "depositEthForARandomNft",
      "outputs": [],
      "stateMutability": "payable",
      "type": "function"
    },
    {
      "inputs": [
        {
          "internalType": "uint256",
          "name": "id",
          "type": "uint256"
        }
      ],
      "name": "getPriceForId",
      "outputs": [
        {
          "internalType": "uint256",
          "name": "",
          "type": "uint256"
        }
      ],
      "stateMutability": "view",
      "type": "function"
    },
    {
      "inputs": [
        {
          "internalType": "bytes32",
          "name": "role",
          "type": "bytes32"
        }
      ],
      "name": "getRoleAdmin",
      "outputs": [
        {
          "internalType": "bytes32",
          "name": "",
          "type": "bytes32"
        }
      ],
      "stateMutability": "view",
      "type": "function"
    },
    {
      "inputs": [
        {
          "internalType": "bytes32",
          "name": "role",
          "type": "bytes32"
        },
        {
          "internalType": "address",
          "name": "account",
          "type": "address"
        }
      ],
      "name": "grantRole",
      "outputs": [],
      "stateMutability": "nonpayable",
      "type": "function"
    },
    {
      "inputs": [
        {
          "internalType": "bytes32",
          "name": "role",
          "type": "bytes32"
        },
        {
          "internalType": "address",
          "name": "account",
          "type": "address"
        }
      ],
      "name": "hasRole",
      "outputs": [
        {
          "internalType": "bool",
          "name": "",
          "type": "bool"
        }
      ],
      "stateMutability": "view",
      "type": "function"
    },
    {
      "inputs": [
        {
          "internalType": "address",
          "name": "_bbTokenAddress",
          "type": "address"
        },
        {
          "internalType": "address",
          "name": "_usdcTokenAddress",
          "type": "address"
        },
        {
          "internalType": "address",
          "name": "_uniswapRouterAddress",
          "type": "address"
        }
      ],
      "name": "initialize",
      "outputs": [],
      "stateMutability": "nonpayable",
      "type": "function"
    },
    {
      "inputs": [],
      "name": "pause",
      "outputs": [],
      "stateMutability": "nonpayable",
      "type": "function"
    },
    {
      "inputs": [],
      "name": "paused",
      "outputs": [
        {
          "internalType": "bool",
          "name": "",
          "type": "bool"
        }
      ],
      "stateMutability": "view",
      "type": "function"
    },
    {
      "inputs": [],
      "name": "proxiableUUID",
      "outputs": [
        {
          "internalType": "bytes32",
          "name": "",
          "type": "bytes32"
        }
      ],
      "stateMutability": "view",
      "type": "function"
    },
    {
      "inputs": [
        {
          "internalType": "uint256",
          "name": "_id",
          "type": "uint256"
        }
      ],
      "name": "purchaseWithEtherAndId",
      "outputs": [
        {
          "internalType": "uint256",
          "name": "",
          "type": "uint256"
        }
      ],
      "stateMutability": "payable",
      "type": "function"
    },
    {
      "inputs": [
        {
          "internalType": "uint256",
          "name": "_id",
          "type": "uint256"
        }
      ],
      "name": "purchaseWithTokens",
      "outputs": [
        {
          "internalType": "uint256",
          "name": "",
          "type": "uint256"
        }
      ],
      "stateMutability": "view",
      "type": "function"
    },
    {
      "inputs": [
        {
          "internalType": "uint256",
          "name": "_id",
          "type": "uint256"
        }
      ],
      "name": "purchaseWithUSDC",
      "outputs": [
        {
          "internalType": "uint256",
          "name": "",
          "type": "uint256"
        }
      ],
      "stateMutability": "view",
      "type": "function"
    },
    {
      "inputs": [
        {
          "internalType": "bytes32",
          "name": "role",
          "type": "bytes32"
        },
        {
          "internalType": "address",
          "name": "account",
          "type": "address"
        }
      ],
      "name": "renounceRole",
      "outputs": [],
      "stateMutability": "nonpayable",
      "type": "function"
    },
    {
      "inputs": [
        {
          "internalType": "bytes32",
          "name": "role",
          "type": "bytes32"
        },
        {
          "internalType": "address",
          "name": "account",
          "type": "address"
        }
      ],
      "name": "revokeRole",
      "outputs": [],
      "stateMutability": "nonpayable",
      "type": "function"
    },
    {
      "inputs": [
        {
          "internalType": "bytes4",
          "name": "interfaceId",
          "type": "bytes4"
        }
      ],
      "name": "supportsInterface",
      "outputs": [
        {
          "internalType": "bool",
          "name": "",
          "type": "bool"
        }
      ],
      "stateMutability": "view",
      "type": "function"
    },
    {
      "inputs": [],
      "name": "unpause",
      "outputs": [],
      "stateMutability": "nonpayable",
      "type": "function"
    },
    {
      "inputs": [
        {
          "internalType": "address",
          "name": "newImplementation",
          "type": "address"
        }
      ],
      "name": "upgradeTo",
      "outputs": [],
      "stateMutability": "nonpayable",
      "type": "function"
    },
    {
      "inputs": [
        {
          "internalType": "address",
          "name": "newImplementation",
          "type": "address"
        },
        {
          "internalType": "bytes",
          "name": "data",
          "type": "bytes"
        }
      ],
      "name": "upgradeToAndCall",
      "outputs": [],
      "stateMutability": "payable",
      "type": "function"
    },
    {
      "stateMutability": "payable",
      "type": "receive"
    }
  ],
  "bytecode": "0x60a06040523060805234801561001457600080fd5b5060805161191d61004c600039600081816105b3015281816105f3015281816107b8015281816107f80152610887015261191d6000f3fe6080604052600436106101395760003560e01c80635c975abb116100ab578063c0c53b8b1161006f578063c0c53b8b1461031a578063d547741f1461033a578063d587c0c3146102c5578063da04d0131461035a578063e63ab1e91461038e578063f72c0d8b146103b057600080fd5b80635c975abb146102985780638456cb59146102b05780638af3d24a146102c557806391d14854146102e5578063a217fddf1461030557600080fd5b80633659cfe6116100fd5780633659cfe6146102135780633f4ba83a1461023357806341f99ecc1461024857806349487eaa146102685780634f1ef2861461027057806352d1902d1461028357600080fd5b806301ffc9a71461014d578063248a9ca3146101825780632b7a2cfc146101c05780632f2ff15d146101d357806336568abe146101f357600080fd5b36610148576101466103e4565b005b600080fd5b34801561015957600080fd5b5061016d610168366004611414565b610438565b60405190151581526020015b60405180910390f35b34801561018e57600080fd5b506101b261019d36600461143e565b60009081526097602052604090206001015490565b604051908152602001610179565b6101b26101ce36600461143e565b61046f565b3480156101df57600080fd5b506101466101ee36600461146e565b610501565b3480156101ff57600080fd5b5061014661020e36600461146e565b61052b565b34801561021f57600080fd5b5061014661022e36600461149a565b6105a9565b34801561023f57600080fd5b50610146610688565b34801561025457600080fd5b506101b261026336600461143e565b6106a8565b6101466103e4565b61014661027e3660046114cb565b6107ae565b34801561028f57600080fd5b506101b261087a565b3480156102a457600080fd5b5060335460ff1661016d565b3480156102bc57600080fd5b5061014661092d565b3480156102d157600080fd5b506101b26102e036600461143e565b61094d565b3480156102f157600080fd5b5061016d61030036600461146e565b610971565b34801561031157600080fd5b506101b2600081565b34801561032657600080fd5b5061014661033536600461158d565b61099c565b34801561034657600080fd5b5061014661035536600461146e565b610b77565b34801561036657600080fd5b506101b27ff6d4b94561d34a2e202535a880be5a411bcfa4d7aeb44117cc8d682e63ec475981565b34801561039a57600080fd5b506101b26000805160206118a183398151915281565b3480156103bc57600080fd5b506101b27f189ab7a9244df0848122154315af71fe140f3db0fe014031783b0946b8c9d2e381565b34662386f26fc10000146104365760405162461bcd60e51b8152602060048201526014602482015273125b9d985b1a5908195d1a195c88185b5bdd5b9d60621b60448201526064015b60405180910390fd5b565b60006001600160e01b03198216637965db0b60e01b148061046957506301ffc9a760e01b6001600160e01b03198316145b92915050565b60006102bc821015801561048557506103e78211155b6104a15760405162461bcd60e51b815260040161042d906115d0565b662386f26fc100003410156104f85760405162461bcd60e51b815260206004820152601760248201527f496e73756666696369656e742065746865722073656e74000000000000000000604482015260640161042d565b610469826106a8565b60008281526097602052604090206001015461051c81610b9c565b6105268383610ba6565b505050565b6001600160a01b038116331461059b5760405162461bcd60e51b815260206004820152602f60248201527f416363657373436f6e74726f6c3a2063616e206f6e6c792072656e6f756e636560448201526e103937b632b9903337b91039b2b63360891b606482015260840161042d565b6105a58282610c2c565b5050565b6001600160a01b037f00000000000000000000000000000000000000000000000000000000000000001630036105f15760405162461bcd60e51b815260040161042d906115fa565b7f00000000000000000000000000000000000000000000000000000000000000006001600160a01b031661063a600080516020611881833981519152546001600160a01b031690565b6001600160a01b0316146106605760405162461bcd60e51b815260040161042d90611646565b61066981610c93565b6040805160008082526020820190925261068591839190610cbd565b50565b6000805160206118a18339815191526106a081610b9c565b610685610e28565b60006102bb8211156106cc5760405162461bcd60e51b815260040161042d906115d0565b60c782116106e45750683635c9adc5dea00000919050565b6101f3821161070a576106f88260146116a8565b61046990670de0b6b3a76400006116a8565b6102bb8211610791576000620151806107276365176500426116bf565b61073191906116d2565b90506000610741826107d06116a8565b61074c90600a6116a8565b6107579060126116a8565b61076490621b77406116f4565b905069130ee8e7179044400000811161077d5780610789565b69130ee8e71790444000005b949350505050565b60405162461bcd60e51b815260040161042d906115d0565b919050565b6001600160a01b037f00000000000000000000000000000000000000000000000000000000000000001630036107f65760405162461bcd60e51b815260040161042d906115fa565b7f00000000000000000000000000000000000000000000000000000000000000006001600160a01b031661083f600080516020611881833981519152546001600160a01b031690565b6001600160a01b0316146108655760405162461bcd60e51b815260040161042d90611646565b61086e82610c93565b6105a582826001610cbd565b6000306001600160a01b037f0000000000000000000000000000000000000000000000000000000000000000161461091a5760405162461bcd60e51b815260206004820152603860248201527f555550535570677261646561626c653a206d757374206e6f742062652063616c60448201527f6c6564207468726f7567682064656c656761746563616c6c0000000000000000606482015260840161042d565b5060008051602061188183398151915290565b6000805160206118a183398151915261094581610b9c565b610685610e7a565b60006102bb8211156104f85760405162461bcd60e51b815260040161042d906115d0565b60009182526097602090815260408084206001600160a01b0393909316845291905290205460ff1690565b600054610100900460ff16158080156109bc5750600054600160ff909116105b806109d65750303b1580156109d6575060005460ff166001145b610a395760405162461bcd60e51b815260206004820152602e60248201527f496e697469616c697a61626c653a20636f6e747261637420697320616c72656160448201526d191e481a5b9a5d1a585b1a5e995960921b606482015260840161042d565b6000805460ff191660011790558015610a5c576000805461ff0019166101001790555b610a64610eb7565b610a6c610ee6565b610a74610ee6565b610a7f600033610ba6565b610a976000805160206118a183398151915233610ba6565b610ac17f189ab7a9244df0848122154315af71fe140f3db0fe014031783b0946b8c9d2e333610ba6565b610aeb7ff6d4b94561d34a2e202535a880be5a411bcfa4d7aeb44117cc8d682e63ec475933610ba6565b61012e80546001600160a01b038086166001600160a01b03199283161790925561012f805487841690831617905561012d8054928516929091169190911790558015610b71576000805461ff0019169055604051600181527f7f26b83ff96e1f2b6a682f133852f6798a09c465da95921460cefb38474024989060200160405180910390a15b50505050565b600082815260976020526040902060010154610b9281610b9c565b6105268383610c2c565b6106858133610f0d565b610bb08282610971565b6105a55760008281526097602090815260408083206001600160a01b03851684529091529020805460ff19166001179055610be83390565b6001600160a01b0316816001600160a01b0316837f2f8788117e7eff1d82e926ec794901d17c78024a50270940304540a733656f0d60405160405180910390a45050565b610c368282610971565b156105a55760008281526097602090815260408083206001600160a01b0385168085529252808320805460ff1916905551339285917ff6391f5c32d9c69d2a47ea670b442974b53935d1edc7fd64eb21e047a839171b9190a45050565b7f189ab7a9244df0848122154315af71fe140f3db0fe014031783b0946b8c9d2e36105a581610b9c565b7f4910fdfa16fed3260ed0e7147f7cc6da11a60208b5b9406d12a635614ffd91435460ff1615610cf05761052683610f66565b826001600160a01b03166352d1902d6040518163ffffffff1660e01b8152600401602060405180830381865afa925050508015610d4a575060408051601f3d908101601f19168201909252610d4791810190611707565b60015b610dad5760405162461bcd60e51b815260206004820152602e60248201527f45524331393637557067726164653a206e657720696d706c656d656e7461746960448201526d6f6e206973206e6f74205555505360901b606482015260840161042d565b6000805160206118818339815191528114610e1c5760405162461bcd60e51b815260206004820152602960248201527f45524331393637557067726164653a20756e737570706f727465642070726f786044820152681a58589b195555525160ba1b606482015260840161042d565b50610526838383611002565b610e30611027565b6033805460ff191690557f5db9ee0a495bf2e6ff9c91a7834c1ba4fdd244a5e8aa4e537bd38aeae4b073aa335b6040516001600160a01b03909116815260200160405180910390a1565b610e82611070565b6033805460ff191660011790557f62e78cea01bee320cd4e420270b5ea74000d11b0c9f74754ebdbfc544b05a258610e5d3390565b600054610100900460ff16610ede5760405162461bcd60e51b815260040161042d90611720565b6104366110b6565b600054610100900460ff166104365760405162461bcd60e51b815260040161042d90611720565b610f178282610971565b6105a557610f24816110e9565b610f2f8360206110fb565b604051602001610f4092919061178f565b60408051601f198184030181529082905262461bcd60e51b825261042d91600401611804565b6001600160a01b0381163b610fd35760405162461bcd60e51b815260206004820152602d60248201527f455243313936373a206e657720696d706c656d656e746174696f6e206973206e60448201526c1bdd08184818dbdb9d1c9858dd609a1b606482015260840161042d565b60008051602061188183398151915280546001600160a01b0319166001600160a01b0392909216919091179055565b61100b8361129e565b6000825111806110185750805b1561052657610b7183836112de565b60335460ff166104365760405162461bcd60e51b815260206004820152601460248201527314185d5cd8589b194e881b9bdd081c185d5cd95960621b604482015260640161042d565b60335460ff16156104365760405162461bcd60e51b815260206004820152601060248201526f14185d5cd8589b194e881c185d5cd95960821b604482015260640161042d565b600054610100900460ff166110dd5760405162461bcd60e51b815260040161042d90611720565b6033805460ff19169055565b60606104696001600160a01b03831660145b6060600061110a8360026116a8565b6111159060026116f4565b67ffffffffffffffff81111561112d5761112d6114b5565b6040519080825280601f01601f191660200182016040528015611157576020820181803683370190505b509050600360fc1b8160008151811061117257611172611837565b60200101906001600160f81b031916908160001a905350600f60fb1b816001815181106111a1576111a1611837565b60200101906001600160f81b031916908160001a90535060006111c58460026116a8565b6111d09060016116f4565b90505b6001811115611248576f181899199a1a9b1b9c1cb0b131b232b360811b85600f166010811061120457611204611837565b1a60f81b82828151811061121a5761121a611837565b60200101906001600160f81b031916908160001a90535060049490941c936112418161184d565b90506111d3565b5083156112975760405162461bcd60e51b815260206004820181905260248201527f537472696e67733a20686578206c656e67746820696e73756666696369656e74604482015260640161042d565b9392505050565b6112a781610f66565b6040516001600160a01b038216907fbc7cd75a20ee27fd9adebab32041f755214dbc6bffa90cc0225b39da2e5c2d3b90600090a250565b606061129783836040518060600160405280602781526020016118c1602791396060600080856001600160a01b03168560405161131b9190611864565b600060405180830381855af49150503d8060008114611356576040519150601f19603f3d011682016040523d82523d6000602084013e61135b565b606091505b509150915061136c86838387611376565b9695505050505050565b606083156113e55782516000036113de576001600160a01b0385163b6113de5760405162461bcd60e51b815260206004820152601d60248201527f416464726573733a2063616c6c20746f206e6f6e2d636f6e7472616374000000604482015260640161042d565b5081610789565b61078983838151156113fa5781518083602001fd5b8060405162461bcd60e51b815260040161042d9190611804565b60006020828403121561142657600080fd5b81356001600160e01b03198116811461129757600080fd5b60006020828403121561145057600080fd5b5035919050565b80356001600160a01b03811681146107a957600080fd5b6000806040838503121561148157600080fd5b8235915061149160208401611457565b90509250929050565b6000602082840312156114ac57600080fd5b61129782611457565b634e487b7160e01b600052604160045260246000fd5b600080604083850312156114de57600080fd5b6114e783611457565b9150602083013567ffffffffffffffff8082111561150457600080fd5b818501915085601f83011261151857600080fd5b81358181111561152a5761152a6114b5565b604051601f8201601f19908116603f01168101908382118183101715611552576115526114b5565b8160405282815288602084870101111561156b57600080fd5b8260208601602083013760006020848301015280955050505050509250929050565b6000806000606084860312156115a257600080fd5b6115ab84611457565b92506115b960208501611457565b91506115c760408501611457565b90509250925092565b60208082526010908201526f496e76616c69642049442072616e676560801b604082015260600190565b6020808252602c908201527f46756e6374696f6e206d7573742062652063616c6c6564207468726f7567682060408201526b19195b1959d85d1958d85b1b60a21b606082015260800190565b6020808252602c908201527f46756e6374696f6e206d7573742062652063616c6c6564207468726f7567682060408201526b6163746976652070726f787960a01b606082015260800190565b634e487b7160e01b600052601160045260246000fd5b808202811582820484141761046957610469611692565b8181038181111561046957610469611692565b6000826116ef57634e487b7160e01b600052601260045260246000fd5b500490565b8082018082111561046957610469611692565b60006020828403121561171957600080fd5b5051919050565b6020808252602b908201527f496e697469616c697a61626c653a20636f6e7472616374206973206e6f74206960408201526a6e697469616c697a696e6760a81b606082015260800190565b60005b8381101561178657818101518382015260200161176e565b50506000910152565b7f416363657373436f6e74726f6c3a206163636f756e74200000000000000000008152600083516117c781601785016020880161176b565b7001034b99036b4b9b9b4b733903937b6329607d1b60179184019182015283516117f881602884016020880161176b565b01602801949350505050565b602081526000825180602084015261182381604085016020870161176b565b601f01601f19169190910160400192915050565b634e487b7160e01b600052603260045260246000fd5b60008161185c5761185c611692565b506000190190565b6000825161187681846020870161176b565b919091019291505056fe360894a13ba1a3210667c828492db98dca3e2076cc3735a920a3ca505d382bbc65d7a28e3265b37a6474929f336521b332c1681b933f6cb9f3376673440d862a416464726573733a206c6f772d6c6576656c2064656c65676174652063616c6c206661696c6564a264697066735822122081468f631e000425dd8adb54eeb1dfcb74f3a1990e45b9e7df9d83ec0691e23564736f6c63430008130033",
  "linkReferences": {},
  "deployedLinkReferences": {}
}