{
  "_format": "hh-sol-artifact-1",
  "contractName": "PublicSale",
  "sourceName": "contracts/PublicSale.sol",
  "abi": [
    {
      "anonymous": false,
      "inputs": [
        {
          "indexed": false,
          "internalType": "address",
          "name": "previousAdmin",
          "type": "address"
        },
        {
          "indexed": false,
          "internalType": "address",
          "name": "newAdmin",
          "type": "address"
        }
      ],
      "name": "AdminChanged",
      "type": "event"
    },
    {
      "anonymous": false,
      "inputs": [
        {
          "indexed": true,
          "internalType": "address",
          "name": "beacon",
          "type": "address"
        }
      ],
      "name": "BeaconUpgraded",
      "type": "event"
    },
    {
      "anonymous": false,
      "inputs": [
        {
          "indexed": false,
          "internalType": "uint8",
          "name": "version",
          "type": "uint8"
        }
      ],
      "name": "Initialized",
      "type": "event"
    },
    {
      "anonymous": false,
      "inputs": [
        {
          "indexed": false,
          "internalType": "address",
          "name": "account",
          "type": "address"
        }
      ],
      "name": "Paused",
      "type": "event"
    },
    {
      "anonymous": false,
      "inputs": [
        {
          "indexed": false,
          "internalType": "address",
          "name": "account",
          "type": "address"
        },
        {
          "indexed": false,
          "internalType": "uint256",
          "name": "id",
          "type": "uint256"
        }
      ],
      "name": "PurchaseNftWithId",
      "type": "event"
    },
    {
      "anonymous": false,
      "inputs": [
        {
          "indexed": true,
          "internalType": "bytes32",
          "name": "role",
          "type": "bytes32"
        },
        {
          "indexed": true,
          "internalType": "bytes32",
          "name": "previousAdminRole",
          "type": "bytes32"
        },
        {
          "indexed": true,
          "internalType": "bytes32",
          "name": "newAdminRole",
          "type": "bytes32"
        }
      ],
      "name": "RoleAdminChanged",
      "type": "event"
    },
    {
      "anonymous": false,
      "inputs": [
        {
          "indexed": true,
          "internalType": "bytes32",
          "name": "role",
          "type": "bytes32"
        },
        {
          "indexed": true,
          "internalType": "address",
          "name": "account",
          "type": "address"
        },
        {
          "indexed": true,
          "internalType": "address",
          "name": "sender",
          "type": "address"
        }
      ],
      "name": "RoleGranted",
      "type": "event"
    },
    {
      "anonymous": false,
      "inputs": [
        {
          "indexed": true,
          "internalType": "bytes32",
          "name": "role",
          "type": "bytes32"
        },
        {
          "indexed": true,
          "internalType": "address",
          "name": "account",
          "type": "address"
        },
        {
          "indexed": true,
          "internalType": "address",
          "name": "sender",
          "type": "address"
        }
      ],
      "name": "RoleRevoked",
      "type": "event"
    },
    {
      "anonymous": false,
      "inputs": [
        {
          "indexed": false,
          "internalType": "address",
          "name": "account",
          "type": "address"
        }
      ],
      "name": "Unpaused",
      "type": "event"
    },
    {
      "anonymous": false,
      "inputs": [
        {
          "indexed": true,
          "internalType": "address",
          "name": "implementation",
          "type": "address"
        }
      ],
      "name": "Upgraded",
      "type": "event"
    },
    {
      "inputs": [],
      "name": "DEFAULT_ADMIN_ROLE",
      "outputs": [
        {
          "internalType": "bytes32",
          "name": "",
          "type": "bytes32"
        }
      ],
      "stateMutability": "view",
      "type": "function"
    },
    {
      "inputs": [],
      "name": "EXECUTER_ROLE",
      "outputs": [
        {
          "internalType": "bytes32",
          "name": "",
          "type": "bytes32"
        }
      ],
      "stateMutability": "view",
      "type": "function"
    },
    {
      "inputs": [],
      "name": "PAUSER_ROLE",
      "outputs": [
        {
          "internalType": "bytes32",
          "name": "",
          "type": "bytes32"
        }
      ],
      "stateMutability": "view",
      "type": "function"
    },
    {
      "inputs": [],
      "name": "UPGRADER_ROLE",
      "outputs": [
        {
          "internalType": "bytes32",
          "name": "",
          "type": "bytes32"
        }
      ],
      "stateMutability": "view",
      "type": "function"
    },
    {
      "inputs": [],
      "name": "depositEthForARandomNft",
      "outputs": [],
      "stateMutability": "payable",
      "type": "function"
    },
    {
      "inputs": [
        {
          "internalType": "uint256",
          "name": "id",
          "type": "uint256"
        }
      ],
      "name": "getPriceForId",
      "outputs": [
        {
          "internalType": "uint256",
          "name": "",
          "type": "uint256"
        }
      ],
      "stateMutability": "view",
      "type": "function"
    },
    {
      "inputs": [
        {
          "internalType": "bytes32",
          "name": "role",
          "type": "bytes32"
        }
      ],
      "name": "getRoleAdmin",
      "outputs": [
        {
          "internalType": "bytes32",
          "name": "",
          "type": "bytes32"
        }
      ],
      "stateMutability": "view",
      "type": "function"
    },
    {
      "inputs": [
        {
          "internalType": "bytes32",
          "name": "role",
          "type": "bytes32"
        },
        {
          "internalType": "address",
          "name": "account",
          "type": "address"
        }
      ],
      "name": "grantRole",
      "outputs": [],
      "stateMutability": "nonpayable",
      "type": "function"
    },
    {
      "inputs": [
        {
          "internalType": "bytes32",
          "name": "role",
          "type": "bytes32"
        },
        {
          "internalType": "address",
          "name": "account",
          "type": "address"
        }
      ],
      "name": "hasRole",
      "outputs": [
        {
          "internalType": "bool",
          "name": "",
          "type": "bool"
        }
      ],
      "stateMutability": "view",
      "type": "function"
    },
    {
      "inputs": [],
      "name": "initialize",
      "outputs": [],
      "stateMutability": "nonpayable",
      "type": "function"
    },
    {
      "inputs": [],
      "name": "pause",
      "outputs": [],
      "stateMutability": "nonpayable",
      "type": "function"
    },
    {
      "inputs": [],
      "name": "paused",
      "outputs": [
        {
          "internalType": "bool",
          "name": "",
          "type": "bool"
        }
      ],
      "stateMutability": "view",
      "type": "function"
    },
    {
      "inputs": [],
      "name": "proxiableUUID",
      "outputs": [
        {
          "internalType": "bytes32",
          "name": "",
          "type": "bytes32"
        }
      ],
      "stateMutability": "view",
      "type": "function"
    },
    {
      "inputs": [
        {
          "internalType": "uint256",
          "name": "_id",
          "type": "uint256"
        }
      ],
      "name": "purchaseWithEtherAndId",
      "outputs": [
        {
          "internalType": "uint256",
          "name": "",
          "type": "uint256"
        }
      ],
      "stateMutability": "payable",
      "type": "function"
    },
    {
      "inputs": [
        {
          "internalType": "uint256",
          "name": "_id",
          "type": "uint256"
        }
      ],
      "name": "purchaseWithTokens",
      "outputs": [
        {
          "internalType": "uint256",
          "name": "",
          "type": "uint256"
        }
      ],
      "stateMutability": "view",
      "type": "function"
    },
    {
      "inputs": [
        {
          "internalType": "uint256",
          "name": "_id",
          "type": "uint256"
        }
      ],
      "name": "purchaseWithUSDC",
      "outputs": [
        {
          "internalType": "uint256",
          "name": "",
          "type": "uint256"
        }
      ],
      "stateMutability": "view",
      "type": "function"
    },
    {
      "inputs": [
        {
          "internalType": "bytes32",
          "name": "role",
          "type": "bytes32"
        },
        {
          "internalType": "address",
          "name": "account",
          "type": "address"
        }
      ],
      "name": "renounceRole",
      "outputs": [],
      "stateMutability": "nonpayable",
      "type": "function"
    },
    {
      "inputs": [
        {
          "internalType": "bytes32",
          "name": "role",
          "type": "bytes32"
        },
        {
          "internalType": "address",
          "name": "account",
          "type": "address"
        }
      ],
      "name": "revokeRole",
      "outputs": [],
      "stateMutability": "nonpayable",
      "type": "function"
    },
    {
      "inputs": [
        {
          "internalType": "bytes4",
          "name": "interfaceId",
          "type": "bytes4"
        }
      ],
      "name": "supportsInterface",
      "outputs": [
        {
          "internalType": "bool",
          "name": "",
          "type": "bool"
        }
      ],
      "stateMutability": "view",
      "type": "function"
    },
    {
      "inputs": [],
      "name": "unpause",
      "outputs": [],
      "stateMutability": "nonpayable",
      "type": "function"
    },
    {
      "inputs": [
        {
          "internalType": "address",
          "name": "newImplementation",
          "type": "address"
        }
      ],
      "name": "upgradeTo",
      "outputs": [],
      "stateMutability": "nonpayable",
      "type": "function"
    },
    {
      "inputs": [
        {
          "internalType": "address",
          "name": "newImplementation",
          "type": "address"
        },
        {
          "internalType": "bytes",
          "name": "data",
          "type": "bytes"
        }
      ],
      "name": "upgradeToAndCall",
      "outputs": [],
      "stateMutability": "payable",
      "type": "function"
    },
    {
      "stateMutability": "payable",
      "type": "receive"
    }
  ],
  "bytecode": "0x60a06040523073ffffffffffffffffffffffffffffffffffffffff1660809073ffffffffffffffffffffffffffffffffffffffff1681525034801561004357600080fd5b50608051612dc561007b60003960008181610736015281816107c401528181610a5e01528181610aec0152610b9c0152612dc56000f3fe6080604052600436106101395760003560e01c80635c975abb116100ab578063a217fddf1161006f578063a217fddf146103ea578063d547741f14610415578063d587c0c31461043e578063da04d0131461047b578063e63ab1e9146104a6578063f72c0d8b146104d157610148565b80635c975abb146103175780638129fc1c146103425780638456cb59146103595780638af3d24a1461037057806391d14854146103ad57610148565b80633659cfe6116100fd5780633659cfe6146102495780633f4ba83a1461027257806341f99ecc1461028957806349487eaa146102c65780634f1ef286146102d057806352d1902d146102ec57610148565b806301ffc9a71461014d578063248a9ca31461018a5780632b7a2cfc146101c75780632f2ff15d146101f757806336568abe1461022057610148565b36610148576101466104fc565b005b600080fd5b34801561015957600080fd5b50610174600480360381019061016f9190611cf1565b610547565b6040516101819190611d39565b60405180910390f35b34801561019657600080fd5b506101b160048036038101906101ac9190611d8a565b6105c1565b6040516101be9190611dc6565b60405180910390f35b6101e160048036038101906101dc9190611e17565b6105e1565b6040516101ee9190611e53565b60405180910390f35b34801561020357600080fd5b5061021e60048036038101906102199190611ecc565b610690565b005b34801561022c57600080fd5b5061024760048036038101906102429190611ecc565b6106b1565b005b34801561025557600080fd5b50610270600480360381019061026b9190611f0c565b610734565b005b34801561027e57600080fd5b506102876108bc565b005b34801561029557600080fd5b506102b060048036038101906102ab9190611e17565b6108f1565b6040516102bd9190611e53565b60405180910390f35b6102ce6104fc565b005b6102ea60048036038101906102e5919061207f565b610a5c565b005b3480156102f857600080fd5b50610301610b98565b60405161030e9190611dc6565b60405180910390f35b34801561032357600080fd5b5061032c610c51565b6040516103399190611d39565b60405180910390f35b34801561034e57600080fd5b50610357610c68565b005b34801561036557600080fd5b5061036e610e0f565b005b34801561037c57600080fd5b5061039760048036038101906103929190611e17565b610e44565b6040516103a49190611e53565b60405180910390f35b3480156103b957600080fd5b506103d460048036038101906103cf9190611ecc565b610ea7565b6040516103e19190611d39565b60405180910390f35b3480156103f657600080fd5b506103ff610f12565b60405161040c9190611dc6565b60405180910390f35b34801561042157600080fd5b5061043c60048036038101906104379190611ecc565b610f19565b005b34801561044a57600080fd5b5061046560048036038101906104609190611e17565b610f3a565b6040516104729190611e53565b60405180910390f35b34801561048757600080fd5b50610490610f9d565b60405161049d9190611dc6565b60405180910390f35b3480156104b257600080fd5b506104bb610fc1565b6040516104c89190611dc6565b60405180910390f35b3480156104dd57600080fd5b506104e6610fe5565b6040516104f39190611dc6565b60405180910390f35b662386f26fc100003414610545576040517f08c379a000000000000000000000000000000000000000000000000000000000815260040161053c90612138565b60405180910390fd5b565b60007f7965db0b000000000000000000000000000000000000000000000000000000007bffffffffffffffffffffffffffffffffffffffffffffffffffffffff1916827bffffffffffffffffffffffffffffffffffffffffffffffffffffffff191614806105ba57506105b982611009565b5b9050919050565b600060976000838152602001908152602001600020600101549050919050565b60006102bc82101580156105f757506103e78211155b610636576040517f08c379a000000000000000000000000000000000000000000000000000000000815260040161062d906121a4565b60405180910390fd5b662386f26fc10000341015610680576040517f08c379a000000000000000000000000000000000000000000000000000000000815260040161067790612210565b60405180910390fd5b610689826108f1565b9050919050565b610699826105c1565b6106a281611073565b6106ac8383611087565b505050565b6106b9611168565b73ffffffffffffffffffffffffffffffffffffffff168173ffffffffffffffffffffffffffffffffffffffff1614610726576040517f08c379a000000000000000000000000000000000000000000000000000000000815260040161071d906122a2565b60405180910390fd5b6107308282611170565b5050565b7f000000000000000000000000000000000000000000000000000000000000000073ffffffffffffffffffffffffffffffffffffffff163073ffffffffffffffffffffffffffffffffffffffff16036107c2576040517f08c379a00000000000000000000000000000000000000000000000000000000081526004016107b990612334565b60405180910390fd5b7f000000000000000000000000000000000000000000000000000000000000000073ffffffffffffffffffffffffffffffffffffffff16610801611252565b73ffffffffffffffffffffffffffffffffffffffff1614610857576040517f08c379a000000000000000000000000000000000000000000000000000000000815260040161084e906123c6565b60405180910390fd5b610860816112a9565b6108b981600067ffffffffffffffff81111561087f5761087e611f54565b5b6040519080825280601f01601f1916602001820160405280156108b15781602001600182028036833780820191505090505b5060006112d7565b50565b7f65d7a28e3265b37a6474929f336521b332c1681b933f6cb9f3376673440d862a6108e681611073565b6108ee611445565b50565b600080821015801561090557506102bb8211155b610944576040517f08c379a000000000000000000000000000000000000000000000000000000000815260040161093b906121a4565b60405180910390fd5b60c7821161095d57683635c9adc5dea000009050610a57565b6101f3821161098d57670de0b6b3a764000060148361097c9190612415565b6109869190612415565b9050610a57565b6102bb8211610a1c576000620151806365176500426109ac9190612457565b6109b691906124ba565b905060006012600a6107d0846109cc9190612415565b6109d69190612415565b6109e09190612415565b621b77406109ee91906124eb565b905069130ee8e71790444000008111610a075780610a13565b69130ee8e71790444000005b92505050610a57565b6040517f08c379a0000000000000000000000000000000000000000000000000000000008152600401610a4e906121a4565b60405180910390fd5b919050565b7f000000000000000000000000000000000000000000000000000000000000000073ffffffffffffffffffffffffffffffffffffffff163073ffffffffffffffffffffffffffffffffffffffff1603610aea576040517f08c379a0000000000000000000000000000000000000000000000000000000008152600401610ae190612334565b60405180910390fd5b7f000000000000000000000000000000000000000000000000000000000000000073ffffffffffffffffffffffffffffffffffffffff16610b29611252565b73ffffffffffffffffffffffffffffffffffffffff1614610b7f576040517f08c379a0000000000000000000000000000000000000000000000000000000008152600401610b76906123c6565b60405180910390fd5b610b88826112a9565b610b94828260016112d7565b5050565b60007f000000000000000000000000000000000000000000000000000000000000000073ffffffffffffffffffffffffffffffffffffffff163073ffffffffffffffffffffffffffffffffffffffff1614610c28576040517f08c379a0000000000000000000000000000000000000000000000000000000008152600401610c1f90612591565b60405180910390fd5b7f360894a13ba1a3210667c828492db98dca3e2076cc3735a920a3ca505d382bbc60001b905090565b6000603360009054906101000a900460ff16905090565b60008060019054906101000a900460ff16159050808015610c995750600160008054906101000a900460ff1660ff16105b80610cc65750610ca8306114a8565b158015610cc55750600160008054906101000a900460ff1660ff16145b5b610d05576040517f08c379a0000000000000000000000000000000000000000000000000000000008152600401610cfc90612623565b60405180910390fd5b60016000806101000a81548160ff021916908360ff1602179055508015610d42576001600060016101000a81548160ff0219169083151502179055505b610d4a6114cb565b610d52611524565b610d5f6000801b33611087565b610d897f65d7a28e3265b37a6474929f336521b332c1681b933f6cb9f3376673440d862a33611087565b610db37f189ab7a9244df0848122154315af71fe140f3db0fe014031783b0946b8c9d2e333611087565b8015610e0c5760008060016101000a81548160ff0219169083151502179055507f7f26b83ff96e1f2b6a682f133852f6798a09c465da95921460cefb38474024986001604051610e039190612695565b60405180910390a15b50565b7f65d7a28e3265b37a6474929f336521b332c1681b933f6cb9f3376673440d862a610e3981611073565b610e41611575565b50565b6000808210158015610e5857506102bb8211155b610e97576040517f08c379a0000000000000000000000000000000000000000000000000000000008152600401610e8e906121a4565b60405180910390fd5b610ea0826108f1565b9050919050565b60006097600084815260200190815260200160002060000160008373ffffffffffffffffffffffffffffffffffffffff1673ffffffffffffffffffffffffffffffffffffffff16815260200190815260200160002060009054906101000a900460ff16905092915050565b6000801b81565b610f22826105c1565b610f2b81611073565b610f358383611170565b505050565b6000808210158015610f4e57506102bb8211155b610f8d576040517f08c379a0000000000000000000000000000000000000000000000000000000008152600401610f84906121a4565b60405180910390fd5b610f96826108f1565b9050919050565b7ff6d4b94561d34a2e202535a880be5a411bcfa4d7aeb44117cc8d682e63ec475981565b7f65d7a28e3265b37a6474929f336521b332c1681b933f6cb9f3376673440d862a81565b7f189ab7a9244df0848122154315af71fe140f3db0fe014031783b0946b8c9d2e381565b60007f01ffc9a7000000000000000000000000000000000000000000000000000000007bffffffffffffffffffffffffffffffffffffffffffffffffffffffff1916827bffffffffffffffffffffffffffffffffffffffffffffffffffffffff1916149050919050565b6110848161107f611168565b6115d8565b50565b6110918282610ea7565b6111645760016097600084815260200190815260200160002060000160008373ffffffffffffffffffffffffffffffffffffffff1673ffffffffffffffffffffffffffffffffffffffff16815260200190815260200160002060006101000a81548160ff021916908315150217905550611109611168565b73ffffffffffffffffffffffffffffffffffffffff168173ffffffffffffffffffffffffffffffffffffffff16837f2f8788117e7eff1d82e926ec794901d17c78024a50270940304540a733656f0d60405160405180910390a45b5050565b600033905090565b61117a8282610ea7565b1561124e5760006097600084815260200190815260200160002060000160008373ffffffffffffffffffffffffffffffffffffffff1673ffffffffffffffffffffffffffffffffffffffff16815260200190815260200160002060006101000a81548160ff0219169083151502179055506111f3611168565b73ffffffffffffffffffffffffffffffffffffffff168173ffffffffffffffffffffffffffffffffffffffff16837ff6391f5c32d9c69d2a47ea670b442974b53935d1edc7fd64eb21e047a839171b60405160405180910390a45b5050565b60006112807f360894a13ba1a3210667c828492db98dca3e2076cc3735a920a3ca505d382bbc60001b61165d565b60000160009054906101000a900473ffffffffffffffffffffffffffffffffffffffff16905090565b7f189ab7a9244df0848122154315af71fe140f3db0fe014031783b0946b8c9d2e36112d381611073565b5050565b6113037f4910fdfa16fed3260ed0e7147f7cc6da11a60208b5b9406d12a635614ffd914360001b611667565b60000160009054906101000a900460ff16156113275761132283611671565b611440565b8273ffffffffffffffffffffffffffffffffffffffff166352d1902d6040518163ffffffff1660e01b8152600401602060405180830381865afa92505050801561138f57506040513d601f19601f8201168201806040525081019061138c91906126c5565b60015b6113ce576040517f08c379a00000000000000000000000000000000000000000000000000000000081526004016113c590612764565b60405180910390fd5b7f360894a13ba1a3210667c828492db98dca3e2076cc3735a920a3ca505d382bbc60001b8114611433576040517f08c379a000000000000000000000000000000000000000000000000000000000815260040161142a906127f6565b60405180910390fd5b5061143f83838361172a565b5b505050565b61144d611756565b6000603360006101000a81548160ff0219169083151502179055507f5db9ee0a495bf2e6ff9c91a7834c1ba4fdd244a5e8aa4e537bd38aeae4b073aa611491611168565b60405161149e9190612825565b60405180910390a1565b6000808273ffffffffffffffffffffffffffffffffffffffff163b119050919050565b600060019054906101000a900460ff1661151a576040517f08c379a0000000000000000000000000000000000000000000000000000000008152600401611511906128b2565b60405180910390fd5b61152261179f565b565b600060019054906101000a900460ff16611573576040517f08c379a000000000000000000000000000000000000000000000000000000000815260040161156a906128b2565b60405180910390fd5b565b61157d61180b565b6001603360006101000a81548160ff0219169083151502179055507f62e78cea01bee320cd4e420270b5ea74000d11b0c9f74754ebdbfc544b05a2586115c1611168565b6040516115ce9190612825565b60405180910390a1565b6115e28282610ea7565b611659576115ef81611855565b6115fd8360001c6020611882565b60405160200161160e9291906129db565b6040516020818303038152906040526040517f08c379a00000000000000000000000000000000000000000000000000000000081526004016116509190612a4e565b60405180910390fd5b5050565b6000819050919050565b6000819050919050565b61167a816114a8565b6116b9576040517f08c379a00000000000000000000000000000000000000000000000000000000081526004016116b090612ae2565b60405180910390fd5b806116e67f360894a13ba1a3210667c828492db98dca3e2076cc3735a920a3ca505d382bbc60001b61165d565b60000160006101000a81548173ffffffffffffffffffffffffffffffffffffffff021916908373ffffffffffffffffffffffffffffffffffffffff16021790555050565b61173383611abe565b6000825111806117405750805b156117515761174f8383611b0d565b505b505050565b61175e610c51565b61179d576040517f08c379a000000000000000000000000000000000000000000000000000000000815260040161179490612b4e565b60405180910390fd5b565b600060019054906101000a900460ff166117ee576040517f08c379a00000000000000000000000000000000000000000000000000000000081526004016117e5906128b2565b60405180910390fd5b6000603360006101000a81548160ff021916908315150217905550565b611813610c51565b15611853576040517f08c379a000000000000000000000000000000000000000000000000000000000815260040161184a90612bba565b60405180910390fd5b565b606061187b8273ffffffffffffffffffffffffffffffffffffffff16601460ff16611882565b9050919050565b6060600060028360026118959190612415565b61189f91906124eb565b67ffffffffffffffff8111156118b8576118b7611f54565b5b6040519080825280601f01601f1916602001820160405280156118ea5781602001600182028036833780820191505090505b5090507f30000000000000000000000000000000000000000000000000000000000000008160008151811061192257611921612bda565b5b60200101907effffffffffffffffffffffffffffffffffffffffffffffffffffffffffffff1916908160001a9053507f78000000000000000000000000000000000000000000000000000000000000008160018151811061198657611985612bda565b5b60200101907effffffffffffffffffffffffffffffffffffffffffffffffffffffffffffff1916908160001a905350600060018460026119c69190612415565b6119d091906124eb565b90505b6001811115611a70577f3031323334353637383961626364656600000000000000000000000000000000600f861660108110611a1257611a11612bda565b5b1a60f81b828281518110611a2957611a28612bda565b5b60200101907effffffffffffffffffffffffffffffffffffffffffffffffffffffffffffff1916908160001a905350600485901c945080611a6990612c09565b90506119d3565b5060008414611ab4576040517f08c379a0000000000000000000000000000000000000000000000000000000008152600401611aab90612c7e565b60405180910390fd5b8091505092915050565b611ac781611671565b8073ffffffffffffffffffffffffffffffffffffffff167fbc7cd75a20ee27fd9adebab32041f755214dbc6bffa90cc0225b39da2e5c2d3b60405160405180910390a250565b6060611b328383604051806060016040528060278152602001612d6960279139611b3a565b905092915050565b60606000808573ffffffffffffffffffffffffffffffffffffffff1685604051611b649190612ce5565b600060405180830381855af49150503d8060008114611b9f576040519150601f19603f3d011682016040523d82523d6000602084013e611ba4565b606091505b5091509150611bb586838387611bc0565b925050509392505050565b60608315611c22576000835103611c1a57611bda856114a8565b611c19576040517f08c379a0000000000000000000000000000000000000000000000000000000008152600401611c1090612d48565b60405180910390fd5b5b829050611c2d565b611c2c8383611c35565b5b949350505050565b600082511115611c485781518083602001fd5b806040517f08c379a0000000000000000000000000000000000000000000000000000000008152600401611c7c9190612a4e565b60405180910390fd5b6000604051905090565b600080fd5b600080fd5b60007fffffffff0000000000000000000000000000000000000000000000000000000082169050919050565b611cce81611c99565b8114611cd957600080fd5b50565b600081359050611ceb81611cc5565b92915050565b600060208284031215611d0757611d06611c8f565b5b6000611d1584828501611cdc565b91505092915050565b60008115159050919050565b611d3381611d1e565b82525050565b6000602082019050611d4e6000830184611d2a565b92915050565b6000819050919050565b611d6781611d54565b8114611d7257600080fd5b50565b600081359050611d8481611d5e565b92915050565b600060208284031215611da057611d9f611c8f565b5b6000611dae84828501611d75565b91505092915050565b611dc081611d54565b82525050565b6000602082019050611ddb6000830184611db7565b92915050565b6000819050919050565b611df481611de1565b8114611dff57600080fd5b50565b600081359050611e1181611deb565b92915050565b600060208284031215611e2d57611e2c611c8f565b5b6000611e3b84828501611e02565b91505092915050565b611e4d81611de1565b82525050565b6000602082019050611e686000830184611e44565b92915050565b600073ffffffffffffffffffffffffffffffffffffffff82169050919050565b6000611e9982611e6e565b9050919050565b611ea981611e8e565b8114611eb457600080fd5b50565b600081359050611ec681611ea0565b92915050565b60008060408385031215611ee357611ee2611c8f565b5b6000611ef185828601611d75565b9250506020611f0285828601611eb7565b9150509250929050565b600060208284031215611f2257611f21611c8f565b5b6000611f3084828501611eb7565b91505092915050565b600080fd5b600080fd5b6000601f19601f8301169050919050565b7f4e487b7100000000000000000000000000000000000000000000000000000000600052604160045260246000fd5b611f8c82611f43565b810181811067ffffffffffffffff82111715611fab57611faa611f54565b5b80604052505050565b6000611fbe611c85565b9050611fca8282611f83565b919050565b600067ffffffffffffffff821115611fea57611fe9611f54565b5b611ff382611f43565b9050602081019050919050565b82818337600083830152505050565b600061202261201d84611fcf565b611fb4565b90508281526020810184848401111561203e5761203d611f3e565b5b612049848285612000565b509392505050565b600082601f83011261206657612065611f39565b5b813561207684826020860161200f565b91505092915050565b6000806040838503121561209657612095611c8f565b5b60006120a485828601611eb7565b925050602083013567ffffffffffffffff8111156120c5576120c4611c94565b5b6120d185828601612051565b9150509250929050565b600082825260208201905092915050565b7f496e76616c696420657468657220616d6f756e74000000000000000000000000600082015250565b60006121226014836120db565b915061212d826120ec565b602082019050919050565b6000602082019050818103600083015261215181612115565b9050919050565b7f496e76616c69642049442072616e676500000000000000000000000000000000600082015250565b600061218e6010836120db565b915061219982612158565b602082019050919050565b600060208201905081810360008301526121bd81612181565b9050919050565b7f496e73756666696369656e742065746865722073656e74000000000000000000600082015250565b60006121fa6017836120db565b9150612205826121c4565b602082019050919050565b60006020820190508181036000830152612229816121ed565b9050919050565b7f416363657373436f6e74726f6c3a2063616e206f6e6c792072656e6f756e636560008201527f20726f6c657320666f722073656c660000000000000000000000000000000000602082015250565b600061228c602f836120db565b915061229782612230565b604082019050919050565b600060208201905081810360008301526122bb8161227f565b9050919050565b7f46756e6374696f6e206d7573742062652063616c6c6564207468726f7567682060008201527f64656c656761746563616c6c0000000000000000000000000000000000000000602082015250565b600061231e602c836120db565b9150612329826122c2565b604082019050919050565b6000602082019050818103600083015261234d81612311565b9050919050565b7f46756e6374696f6e206d7573742062652063616c6c6564207468726f7567682060008201527f6163746976652070726f78790000000000000000000000000000000000000000602082015250565b60006123b0602c836120db565b91506123bb82612354565b604082019050919050565b600060208201905081810360008301526123df816123a3565b9050919050565b7f4e487b7100000000000000000000000000000000000000000000000000000000600052601160045260246000fd5b600061242082611de1565b915061242b83611de1565b925082820261243981611de1565b915082820484148315176124505761244f6123e6565b5b5092915050565b600061246282611de1565b915061246d83611de1565b9250828203905081811115612485576124846123e6565b5b92915050565b7f4e487b7100000000000000000000000000000000000000000000000000000000600052601260045260246000fd5b60006124c582611de1565b91506124d083611de1565b9250826124e0576124df61248b565b5b828204905092915050565b60006124f682611de1565b915061250183611de1565b9250828201905080821115612519576125186123e6565b5b92915050565b7f555550535570677261646561626c653a206d757374206e6f742062652063616c60008201527f6c6564207468726f7567682064656c656761746563616c6c0000000000000000602082015250565b600061257b6038836120db565b91506125868261251f565b604082019050919050565b600060208201905081810360008301526125aa8161256e565b9050919050565b7f496e697469616c697a61626c653a20636f6e747261637420697320616c72656160008201527f647920696e697469616c697a6564000000000000000000000000000000000000602082015250565b600061260d602e836120db565b9150612618826125b1565b604082019050919050565b6000602082019050818103600083015261263c81612600565b9050919050565b6000819050919050565b600060ff82169050919050565b6000819050919050565b600061267f61267a61267584612643565b61265a565b61264d565b9050919050565b61268f81612664565b82525050565b60006020820190506126aa6000830184612686565b92915050565b6000815190506126bf81611d5e565b92915050565b6000602082840312156126db576126da611c8f565b5b60006126e9848285016126b0565b91505092915050565b7f45524331393637557067726164653a206e657720696d706c656d656e7461746960008201527f6f6e206973206e6f742055555053000000000000000000000000000000000000602082015250565b600061274e602e836120db565b9150612759826126f2565b604082019050919050565b6000602082019050818103600083015261277d81612741565b9050919050565b7f45524331393637557067726164653a20756e737570706f727465642070726f7860008201527f6961626c65555549440000000000000000000000000000000000000000000000602082015250565b60006127e06029836120db565b91506127eb82612784565b604082019050919050565b6000602082019050818103600083015261280f816127d3565b9050919050565b61281f81611e8e565b82525050565b600060208201905061283a6000830184612816565b92915050565b7f496e697469616c697a61626c653a20636f6e7472616374206973206e6f74206960008201527f6e697469616c697a696e67000000000000000000000000000000000000000000602082015250565b600061289c602b836120db565b91506128a782612840565b604082019050919050565b600060208201905081810360008301526128cb8161288f565b9050919050565b600081905092915050565b7f416363657373436f6e74726f6c3a206163636f756e7420000000000000000000600082015250565b60006129136017836128d2565b915061291e826128dd565b601782019050919050565b600081519050919050565b60005b83811015612952578082015181840152602081019050612937565b60008484015250505050565b600061296982612929565b61297381856128d2565b9350612983818560208601612934565b80840191505092915050565b7f206973206d697373696e6720726f6c6520000000000000000000000000000000600082015250565b60006129c56011836128d2565b91506129d08261298f565b601182019050919050565b60006129e682612906565b91506129f2828561295e565b91506129fd826129b8565b9150612a09828461295e565b91508190509392505050565b6000612a2082612929565b612a2a81856120db565b9350612a3a818560208601612934565b612a4381611f43565b840191505092915050565b60006020820190508181036000830152612a688184612a15565b905092915050565b7f455243313936373a206e657720696d706c656d656e746174696f6e206973206e60008201527f6f74206120636f6e747261637400000000000000000000000000000000000000602082015250565b6000612acc602d836120db565b9150612ad782612a70565b604082019050919050565b60006020820190508181036000830152612afb81612abf565b9050919050565b7f5061757361626c653a206e6f7420706175736564000000000000000000000000600082015250565b6000612b386014836120db565b9150612b4382612b02565b602082019050919050565b60006020820190508181036000830152612b6781612b2b565b9050919050565b7f5061757361626c653a2070617573656400000000000000000000000000000000600082015250565b6000612ba46010836120db565b9150612baf82612b6e565b602082019050919050565b60006020820190508181036000830152612bd381612b97565b9050919050565b7f4e487b7100000000000000000000000000000000000000000000000000000000600052603260045260246000fd5b6000612c1482611de1565b915060008203612c2757612c266123e6565b5b600182039050919050565b7f537472696e67733a20686578206c656e67746820696e73756666696369656e74600082015250565b6000612c686020836120db565b9150612c7382612c32565b602082019050919050565b60006020820190508181036000830152612c9781612c5b565b9050919050565b600081519050919050565b600081905092915050565b6000612cbf82612c9e565b612cc98185612ca9565b9350612cd9818560208601612934565b80840191505092915050565b6000612cf18284612cb4565b915081905092915050565b7f416464726573733a2063616c6c20746f206e6f6e2d636f6e7472616374000000600082015250565b6000612d32601d836120db565b9150612d3d82612cfc565b602082019050919050565b60006020820190508181036000830152612d6181612d25565b905091905056fe416464726573733a206c6f772d6c6576656c2064656c65676174652063616c6c206661696c6564a2646970667358221220e9ff31b1c1fb80d6bd6e60fd3e8a072ccc28b3316b01c4bb91ecf905cb8e76d764736f6c63430008130033",
  "linkReferences": {},
  "deployedLinkReferences": {}
}