{
  "_format": "hh-sol-artifact-1",
  "contractName": "BBitesToken",
  "sourceName": "contracts/BBitesToken.sol",
  "abi": [
    {
      "anonymous": false,
      "inputs": [
        {
          "indexed": false,
          "internalType": "address",
          "name": "previousAdmin",
          "type": "address"
        },
        {
          "indexed": false,
          "internalType": "address",
          "name": "newAdmin",
          "type": "address"
        }
      ],
      "name": "AdminChanged",
      "type": "event"
    },
    {
      "anonymous": false,
      "inputs": [
        {
          "indexed": true,
          "internalType": "address",
          "name": "owner",
          "type": "address"
        },
        {
          "indexed": true,
          "internalType": "address",
          "name": "spender",
          "type": "address"
        },
        {
          "indexed": false,
          "internalType": "uint256",
          "name": "value",
          "type": "uint256"
        }
      ],
      "name": "Approval",
      "type": "event"
    },
    {
      "anonymous": false,
      "inputs": [
        {
          "indexed": true,
          "internalType": "address",
          "name": "beacon",
          "type": "address"
        }
      ],
      "name": "BeaconUpgraded",
      "type": "event"
    },
    {
      "anonymous": false,
      "inputs": [
        {
          "indexed": false,
          "internalType": "uint8",
          "name": "version",
          "type": "uint8"
        }
      ],
      "name": "Initialized",
      "type": "event"
    },
    {
      "anonymous": false,
      "inputs": [
        {
          "indexed": false,
          "internalType": "address",
          "name": "account",
          "type": "address"
        }
      ],
      "name": "Pause",
      "type": "event"
    },
    {
      "anonymous": false,
      "inputs": [
        {
          "indexed": false,
          "internalType": "address",
          "name": "account",
          "type": "address"
        }
      ],
      "name": "Paused",
      "type": "event"
    },
    {
      "anonymous": false,
      "inputs": [
        {
          "indexed": true,
          "internalType": "bytes32",
          "name": "role",
          "type": "bytes32"
        },
        {
          "indexed": true,
          "internalType": "bytes32",
          "name": "previousAdminRole",
          "type": "bytes32"
        },
        {
          "indexed": true,
          "internalType": "bytes32",
          "name": "newAdminRole",
          "type": "bytes32"
        }
      ],
      "name": "RoleAdminChanged",
      "type": "event"
    },
    {
      "anonymous": false,
      "inputs": [
        {
          "indexed": true,
          "internalType": "bytes32",
          "name": "role",
          "type": "bytes32"
        },
        {
          "indexed": true,
          "internalType": "address",
          "name": "account",
          "type": "address"
        },
        {
          "indexed": true,
          "internalType": "address",
          "name": "sender",
          "type": "address"
        }
      ],
      "name": "RoleGranted",
      "type": "event"
    },
    {
      "anonymous": false,
      "inputs": [
        {
          "indexed": true,
          "internalType": "bytes32",
          "name": "role",
          "type": "bytes32"
        },
        {
          "indexed": true,
          "internalType": "address",
          "name": "account",
          "type": "address"
        },
        {
          "indexed": true,
          "internalType": "address",
          "name": "sender",
          "type": "address"
        }
      ],
      "name": "RoleRevoked",
      "type": "event"
    },
    {
      "anonymous": false,
      "inputs": [
        {
          "indexed": true,
          "internalType": "address",
          "name": "minter",
          "type": "address"
        },
        {
          "indexed": true,
          "internalType": "address",
          "name": "to",
          "type": "address"
        },
        {
          "indexed": false,
          "internalType": "uint256",
          "name": "amount",
          "type": "uint256"
        }
      ],
      "name": "TokensMinted",
      "type": "event"
    },
    {
      "anonymous": false,
      "inputs": [
        {
          "indexed": true,
          "internalType": "address",
          "name": "from",
          "type": "address"
        },
        {
          "indexed": true,
          "internalType": "address",
          "name": "to",
          "type": "address"
        },
        {
          "indexed": false,
          "internalType": "uint256",
          "name": "value",
          "type": "uint256"
        }
      ],
      "name": "Transfer",
      "type": "event"
    },
    {
      "anonymous": false,
      "inputs": [
        {
          "indexed": false,
          "internalType": "address",
          "name": "account",
          "type": "address"
        }
      ],
      "name": "Unpause",
      "type": "event"
    },
    {
      "anonymous": false,
      "inputs": [
        {
          "indexed": false,
          "internalType": "address",
          "name": "account",
          "type": "address"
        }
      ],
      "name": "Unpaused",
      "type": "event"
    },
    {
      "anonymous": false,
      "inputs": [
        {
          "indexed": true,
          "internalType": "address",
          "name": "implementation",
          "type": "address"
        }
      ],
      "name": "Upgraded",
      "type": "event"
    },
    {
      "inputs": [],
      "name": "DEFAULT_ADMIN_ROLE",
      "outputs": [
        {
          "internalType": "bytes32",
          "name": "",
          "type": "bytes32"
        }
      ],
      "stateMutability": "view",
      "type": "function"
    },
    {
      "inputs": [],
      "name": "MINTER_ROLE",
      "outputs": [
        {
          "internalType": "bytes32",
          "name": "",
          "type": "bytes32"
        }
      ],
      "stateMutability": "view",
      "type": "function"
    },
    {
      "inputs": [],
      "name": "PAUSER_ROLE",
      "outputs": [
        {
          "internalType": "bytes32",
          "name": "",
          "type": "bytes32"
        }
      ],
      "stateMutability": "view",
      "type": "function"
    },
    {
      "inputs": [
        {
          "internalType": "address",
          "name": "owner",
          "type": "address"
        },
        {
          "internalType": "address",
          "name": "spender",
          "type": "address"
        }
      ],
      "name": "allowance",
      "outputs": [
        {
          "internalType": "uint256",
          "name": "",
          "type": "uint256"
        }
      ],
      "stateMutability": "view",
      "type": "function"
    },
    {
      "inputs": [
        {
          "internalType": "address",
          "name": "spender",
          "type": "address"
        },
        {
          "internalType": "uint256",
          "name": "amount",
          "type": "uint256"
        }
      ],
      "name": "approve",
      "outputs": [
        {
          "internalType": "bool",
          "name": "",
          "type": "bool"
        }
      ],
      "stateMutability": "nonpayable",
      "type": "function"
    },
    {
      "inputs": [
        {
          "internalType": "address",
          "name": "account",
          "type": "address"
        }
      ],
      "name": "balanceOf",
      "outputs": [
        {
          "internalType": "uint256",
          "name": "",
          "type": "uint256"
        }
      ],
      "stateMutability": "view",
      "type": "function"
    },
    {
      "inputs": [],
      "name": "decimals",
      "outputs": [
        {
          "internalType": "uint8",
          "name": "",
          "type": "uint8"
        }
      ],
      "stateMutability": "view",
      "type": "function"
    },
    {
      "inputs": [
        {
          "internalType": "address",
          "name": "spender",
          "type": "address"
        },
        {
          "internalType": "uint256",
          "name": "subtractedValue",
          "type": "uint256"
        }
      ],
      "name": "decreaseAllowance",
      "outputs": [
        {
          "internalType": "bool",
          "name": "",
          "type": "bool"
        }
      ],
      "stateMutability": "nonpayable",
      "type": "function"
    },
    {
      "inputs": [
        {
          "internalType": "bytes32",
          "name": "role",
          "type": "bytes32"
        }
      ],
      "name": "getRoleAdmin",
      "outputs": [
        {
          "internalType": "bytes32",
          "name": "",
          "type": "bytes32"
        }
      ],
      "stateMutability": "view",
      "type": "function"
    },
    {
      "inputs": [
        {
          "internalType": "bytes32",
          "name": "role",
          "type": "bytes32"
        },
        {
          "internalType": "address",
          "name": "account",
          "type": "address"
        }
      ],
      "name": "grantRole",
      "outputs": [],
      "stateMutability": "nonpayable",
      "type": "function"
    },
    {
      "inputs": [
        {
          "internalType": "bytes32",
          "name": "role",
          "type": "bytes32"
        },
        {
          "internalType": "address",
          "name": "account",
          "type": "address"
        }
      ],
      "name": "hasRole",
      "outputs": [
        {
          "internalType": "bool",
          "name": "",
          "type": "bool"
        }
      ],
      "stateMutability": "view",
      "type": "function"
    },
    {
      "inputs": [
        {
          "internalType": "address",
          "name": "spender",
          "type": "address"
        },
        {
          "internalType": "uint256",
          "name": "addedValue",
          "type": "uint256"
        }
      ],
      "name": "increaseAllowance",
      "outputs": [
        {
          "internalType": "bool",
          "name": "",
          "type": "bool"
        }
      ],
      "stateMutability": "nonpayable",
      "type": "function"
    },
    {
      "inputs": [],
      "name": "initialize",
      "outputs": [],
      "stateMutability": "nonpayable",
      "type": "function"
    },
    {
      "inputs": [
        {
          "internalType": "address",
          "name": "to",
          "type": "address"
        },
        {
          "internalType": "uint256",
          "name": "amount",
          "type": "uint256"
        }
      ],
      "name": "mint",
      "outputs": [],
      "stateMutability": "nonpayable",
      "type": "function"
    },
    {
      "inputs": [],
      "name": "name",
      "outputs": [
        {
          "internalType": "string",
          "name": "",
          "type": "string"
        }
      ],
      "stateMutability": "view",
      "type": "function"
    },
    {
      "inputs": [],
      "name": "pause",
      "outputs": [],
      "stateMutability": "nonpayable",
      "type": "function"
    },
    {
      "inputs": [],
      "name": "paused",
      "outputs": [
        {
          "internalType": "bool",
          "name": "",
          "type": "bool"
        }
      ],
      "stateMutability": "view",
      "type": "function"
    },
    {
      "inputs": [],
      "name": "proxiableUUID",
      "outputs": [
        {
          "internalType": "bytes32",
          "name": "",
          "type": "bytes32"
        }
      ],
      "stateMutability": "view",
      "type": "function"
    },
    {
      "inputs": [
        {
          "internalType": "bytes32",
          "name": "role",
          "type": "bytes32"
        },
        {
          "internalType": "address",
          "name": "account",
          "type": "address"
        }
      ],
      "name": "renounceRole",
      "outputs": [],
      "stateMutability": "nonpayable",
      "type": "function"
    },
    {
      "inputs": [
        {
          "internalType": "bytes32",
          "name": "role",
          "type": "bytes32"
        },
        {
          "internalType": "address",
          "name": "account",
          "type": "address"
        }
      ],
      "name": "revokeRole",
      "outputs": [],
      "stateMutability": "nonpayable",
      "type": "function"
    },
    {
      "inputs": [
        {
          "internalType": "bytes4",
          "name": "interfaceId",
          "type": "bytes4"
        }
      ],
      "name": "supportsInterface",
      "outputs": [
        {
          "internalType": "bool",
          "name": "",
          "type": "bool"
        }
      ],
      "stateMutability": "view",
      "type": "function"
    },
    {
      "inputs": [],
      "name": "symbol",
      "outputs": [
        {
          "internalType": "string",
          "name": "",
          "type": "string"
        }
      ],
      "stateMutability": "view",
      "type": "function"
    },
    {
      "inputs": [],
      "name": "totalSupply",
      "outputs": [
        {
          "internalType": "uint256",
          "name": "",
          "type": "uint256"
        }
      ],
      "stateMutability": "view",
      "type": "function"
    },
    {
      "inputs": [
        {
          "internalType": "address",
          "name": "to",
          "type": "address"
        },
        {
          "internalType": "uint256",
          "name": "amount",
          "type": "uint256"
        }
      ],
      "name": "transfer",
      "outputs": [
        {
          "internalType": "bool",
          "name": "",
          "type": "bool"
        }
      ],
      "stateMutability": "nonpayable",
      "type": "function"
    },
    {
      "inputs": [
        {
          "internalType": "address",
          "name": "from",
          "type": "address"
        },
        {
          "internalType": "address",
          "name": "to",
          "type": "address"
        },
        {
          "internalType": "uint256",
          "name": "amount",
          "type": "uint256"
        }
      ],
      "name": "transferFrom",
      "outputs": [
        {
          "internalType": "bool",
          "name": "",
          "type": "bool"
        }
      ],
      "stateMutability": "nonpayable",
      "type": "function"
    },
    {
      "inputs": [],
      "name": "unpause",
      "outputs": [],
      "stateMutability": "nonpayable",
      "type": "function"
    },
    {
      "inputs": [
        {
          "internalType": "address",
          "name": "newImplementation",
          "type": "address"
        }
      ],
      "name": "upgradeTo",
      "outputs": [],
      "stateMutability": "nonpayable",
      "type": "function"
    },
    {
      "inputs": [
        {
          "internalType": "address",
          "name": "newImplementation",
          "type": "address"
        },
        {
          "internalType": "bytes",
          "name": "data",
          "type": "bytes"
        }
      ],
      "name": "upgradeToAndCall",
      "outputs": [],
      "stateMutability": "payable",
      "type": "function"
    }
  ],
  "bytecode": "0x60a06040523073ffffffffffffffffffffffffffffffffffffffff1660809073ffffffffffffffffffffffffffffffffffffffff1681525034801561004357600080fd5b5060805161408661007b600039600081816109060152818161099401528181610bcf01528181610c5d0152610d0d01526140866000f3fe6080604052600436106101b75760003560e01c806352d1902d116100ec578063a217fddf1161008a578063d539139311610064578063d539139314610613578063d547741f1461063e578063dd62ed3e14610667578063e63ab1e9146106a4576101b7565b8063a217fddf1461056e578063a457c2d714610599578063a9059cbb146105d6576101b7565b80638129fc1c116100c65780638129fc1c146104d85780638456cb59146104ef57806391d148541461050657806395d89b4114610543576101b7565b806352d1902d146104455780635c975abb1461047057806370a082311461049b576101b7565b8063313ce56711610159578063395093511161013357806339509351146103ac5780633f4ba83a146103e957806340c10f19146104005780634f1ef28614610429576101b7565b8063313ce5671461032f57806336568abe1461035a5780633659cfe614610383576101b7565b806318160ddd1161019557806318160ddd1461026157806323b872dd1461028c578063248a9ca3146102c95780632f2ff15d14610306576101b7565b806301ffc9a7146101bc57806306fdde03146101f9578063095ea7b314610224575b600080fd5b3480156101c857600080fd5b506101e360048036038101906101de9190612792565b6106cf565b6040516101f091906127da565b60405180910390f35b34801561020557600080fd5b5061020e610749565b60405161021b9190612885565b60405180910390f35b34801561023057600080fd5b5061024b6004803603810190610246919061293b565b6107db565b60405161025891906127da565b60405180910390f35b34801561026d57600080fd5b506102766107fe565b604051610283919061298a565b60405180910390f35b34801561029857600080fd5b506102b360048036038101906102ae91906129a5565b610808565b6040516102c091906127da565b60405180910390f35b3480156102d557600080fd5b506102f060048036038101906102eb9190612a2e565b610837565b6040516102fd9190612a6a565b60405180910390f35b34801561031257600080fd5b5061032d60048036038101906103289190612a85565b610857565b005b34801561033b57600080fd5b50610344610878565b6040516103519190612ae1565b60405180910390f35b34801561036657600080fd5b50610381600480360381019061037c9190612a85565b610881565b005b34801561038f57600080fd5b506103aa60048036038101906103a59190612afc565b610904565b005b3480156103b857600080fd5b506103d360048036038101906103ce919061293b565b610a8c565b6040516103e091906127da565b60405180910390f35b3480156103f557600080fd5b506103fe610ac3565b005b34801561040c57600080fd5b506104276004803603810190610422919061293b565b610b2f565b005b610443600480360381019061043e9190612c5e565b610bcd565b005b34801561045157600080fd5b5061045a610d09565b6040516104679190612a6a565b60405180910390f35b34801561047c57600080fd5b50610485610dc2565b60405161049291906127da565b60405180910390f35b3480156104a757600080fd5b506104c260048036038101906104bd9190612afc565b610dd9565b6040516104cf919061298a565b60405180910390f35b3480156104e457600080fd5b506104ed610e22565b005b3480156104fb57600080fd5b50610504611068565b005b34801561051257600080fd5b5061052d60048036038101906105289190612a85565b6110d4565b60405161053a91906127da565b60405180910390f35b34801561054f57600080fd5b5061055861113f565b6040516105659190612885565b60405180910390f35b34801561057a57600080fd5b506105836111d1565b6040516105909190612a6a565b60405180910390f35b3480156105a557600080fd5b506105c060048036038101906105bb919061293b565b6111d8565b6040516105cd91906127da565b60405180910390f35b3480156105e257600080fd5b506105fd60048036038101906105f8919061293b565b61124f565b60405161060a91906127da565b60405180910390f35b34801561061f57600080fd5b50610628611272565b6040516106359190612a6a565b60405180910390f35b34801561064a57600080fd5b5061066560048036038101906106609190612a85565b611296565b005b34801561067357600080fd5b5061068e60048036038101906106899190612cba565b6112b7565b60405161069b919061298a565b60405180910390f35b3480156106b057600080fd5b506106b961133e565b6040516106c69190612a6a565b60405180910390f35b60007f7965db0b000000000000000000000000000000000000000000000000000000007bffffffffffffffffffffffffffffffffffffffffffffffffffffffff1916827bffffffffffffffffffffffffffffffffffffffffffffffffffffffff19161480610742575061074182611362565b5b9050919050565b60606036805461075890612d29565b80601f016020809104026020016040519081016040528092919081815260200182805461078490612d29565b80156107d15780601f106107a6576101008083540402835291602001916107d1565b820191906000526020600020905b8154815290600101906020018083116107b457829003601f168201915b5050505050905090565b6000806107e66113cc565b90506107f38185856113d4565b600191505092915050565b6000603554905090565b6000806108136113cc565b905061082085828561159d565b61082b858585611629565b60019150509392505050565b600060fb6000838152602001908152602001600020600101549050919050565b61086082610837565b610869816118a2565b61087383836118b6565b505050565b60006012905090565b6108896113cc565b73ffffffffffffffffffffffffffffffffffffffff168173ffffffffffffffffffffffffffffffffffffffff16146108f6576040517f08c379a00000000000000000000000000000000000000000000000000000000081526004016108ed90612dcc565b60405180910390fd5b6109008282611997565b5050565b7f000000000000000000000000000000000000000000000000000000000000000073ffffffffffffffffffffffffffffffffffffffff163073ffffffffffffffffffffffffffffffffffffffff1603610992576040517f08c379a000000000000000000000000000000000000000000000000000000000815260040161098990612e5e565b60405180910390fd5b7f000000000000000000000000000000000000000000000000000000000000000073ffffffffffffffffffffffffffffffffffffffff166109d1611a79565b73ffffffffffffffffffffffffffffffffffffffff1614610a27576040517f08c379a0000000000000000000000000000000000000000000000000000000008152600401610a1e90612ef0565b60405180910390fd5b610a3081611ad0565b610a8981600067ffffffffffffffff811115610a4f57610a4e612b33565b5b6040519080825280601f01601f191660200182016040528015610a815781602001600182028036833780820191505090505b506000611ae1565b50565b600080610a976113cc565b9050610ab8818585610aa985896112b7565b610ab39190612f3f565b6113d4565b600191505092915050565b7f65d7a28e3265b37a6474929f336521b332c1681b933f6cb9f3376673440d862a610aed816118a2565b610af5611c4f565b7faeb196d352664784d1900b0e7414a8face7d29f4dae8c4b0cf68ed477423bbf433604051610b249190612f82565b60405180910390a150565b7f9f2df0fed2c77648de5860a4cc508cd0818c85b8b8a1ab4ceeef8d981c8956a6610b59816118a2565b610b638383611cb2565b8273ffffffffffffffffffffffffffffffffffffffff163373ffffffffffffffffffffffffffffffffffffffff167fbf67ec129007be07f346d9d2933215293a6612ce7ff17d6b479a5a5cae72890c84604051610bc0919061298a565b60405180910390a3505050565b7f000000000000000000000000000000000000000000000000000000000000000073ffffffffffffffffffffffffffffffffffffffff163073ffffffffffffffffffffffffffffffffffffffff1603610c5b576040517f08c379a0000000000000000000000000000000000000000000000000000000008152600401610c5290612e5e565b60405180910390fd5b7f000000000000000000000000000000000000000000000000000000000000000073ffffffffffffffffffffffffffffffffffffffff16610c9a611a79565b73ffffffffffffffffffffffffffffffffffffffff1614610cf0576040517f08c379a0000000000000000000000000000000000000000000000000000000008152600401610ce790612ef0565b60405180910390fd5b610cf982611ad0565b610d0582826001611ae1565b5050565b60007f000000000000000000000000000000000000000000000000000000000000000073ffffffffffffffffffffffffffffffffffffffff163073ffffffffffffffffffffffffffffffffffffffff1614610d99576040517f08c379a0000000000000000000000000000000000000000000000000000000008152600401610d909061300f565b60405180910390fd5b7f360894a13ba1a3210667c828492db98dca3e2076cc3735a920a3ca505d382bbc60001b905090565b6000606560009054906101000a900460ff16905090565b6000603360008373ffffffffffffffffffffffffffffffffffffffff1673ffffffffffffffffffffffffffffffffffffffff168152602001908152602001600020549050919050565b60008060019054906101000a900460ff16159050808015610e535750600160008054906101000a900460ff1660ff16105b80610e805750610e6230611e09565b158015610e7f5750600160008054906101000a900460ff1660ff16145b5b610ebf576040517f08c379a0000000000000000000000000000000000000000000000000000000008152600401610eb6906130a1565b60405180910390fd5b60016000806101000a81548160ff021916908360ff1602179055508015610efc576001600060016101000a81548160ff0219169083151502179055505b610f706040518060400160405280600c81526020017f42426974657320546f6b656e00000000000000000000000000000000000000008152506040518060400160405280600581526020017f4242544b4e000000000000000000000000000000000000000000000000000000815250611e2c565b610f78611e89565b610f80611ee2565b610f8d6000801b33611f33565b610fb77f65d7a28e3265b37a6474929f336521b332c1681b933f6cb9f3376673440d862a33611f33565b610fe17f9f2df0fed2c77648de5860a4cc508cd0818c85b8b8a1ab4ceeef8d981c8956a633611f33565b61100c33610fed610878565b600a610ff991906131f4565b620f4240611007919061323f565b611cb2565b80156110655760008060016101000a81548160ff0219169083151502179055507f7f26b83ff96e1f2b6a682f133852f6798a09c465da95921460cefb3847402498600160405161105c91906132c6565b60405180910390a15b50565b7f65d7a28e3265b37a6474929f336521b332c1681b933f6cb9f3376673440d862a611092816118a2565b61109a611f41565b7f5ee71a369c8672edded508e624ffc9257fa1ae6886ef32905c18e60196bca399336040516110c99190612f82565b60405180910390a150565b600060fb600084815260200190815260200160002060000160008373ffffffffffffffffffffffffffffffffffffffff1673ffffffffffffffffffffffffffffffffffffffff16815260200190815260200160002060009054906101000a900460ff16905092915050565b60606037805461114e90612d29565b80601f016020809104026020016040519081016040528092919081815260200182805461117a90612d29565b80156111c75780601f1061119c576101008083540402835291602001916111c7565b820191906000526020600020905b8154815290600101906020018083116111aa57829003601f168201915b5050505050905090565b6000801b81565b6000806111e36113cc565b905060006111f182866112b7565b905083811015611236576040517f08c379a000000000000000000000000000000000000000000000000000000000815260040161122d90613353565b60405180910390fd5b61124382868684036113d4565b60019250505092915050565b60008061125a6113cc565b9050611267818585611629565b600191505092915050565b7f9f2df0fed2c77648de5860a4cc508cd0818c85b8b8a1ab4ceeef8d981c8956a681565b61129f82610837565b6112a8816118a2565b6112b28383611997565b505050565b6000603460008473ffffffffffffffffffffffffffffffffffffffff1673ffffffffffffffffffffffffffffffffffffffff16815260200190815260200160002060008373ffffffffffffffffffffffffffffffffffffffff1673ffffffffffffffffffffffffffffffffffffffff16815260200190815260200160002054905092915050565b7f65d7a28e3265b37a6474929f336521b332c1681b933f6cb9f3376673440d862a81565b60007f01ffc9a7000000000000000000000000000000000000000000000000000000007bffffffffffffffffffffffffffffffffffffffffffffffffffffffff1916827bffffffffffffffffffffffffffffffffffffffffffffffffffffffff1916149050919050565b600033905090565b600073ffffffffffffffffffffffffffffffffffffffff168373ffffffffffffffffffffffffffffffffffffffff1603611443576040517f08c379a000000000000000000000000000000000000000000000000000000000815260040161143a906133e5565b60405180910390fd5b600073ffffffffffffffffffffffffffffffffffffffff168273ffffffffffffffffffffffffffffffffffffffff16036114b2576040517f08c379a00000000000000000000000000000000000000000000000000000000081526004016114a990613477565b60405180910390fd5b80603460008573ffffffffffffffffffffffffffffffffffffffff1673ffffffffffffffffffffffffffffffffffffffff16815260200190815260200160002060008473ffffffffffffffffffffffffffffffffffffffff1673ffffffffffffffffffffffffffffffffffffffff168152602001908152602001600020819055508173ffffffffffffffffffffffffffffffffffffffff168373ffffffffffffffffffffffffffffffffffffffff167f8c5be1e5ebec7d5bd14f71427d1e84f3dd0314c0f7b2291e5b200ac8c7c3b92583604051611590919061298a565b60405180910390a3505050565b60006115a984846112b7565b90507fffffffffffffffffffffffffffffffffffffffffffffffffffffffffffffffff81146116235781811015611615576040517f08c379a000000000000000000000000000000000000000000000000000000000815260040161160c906134e3565b60405180910390fd5b61162284848484036113d4565b5b50505050565b600073ffffffffffffffffffffffffffffffffffffffff168373ffffffffffffffffffffffffffffffffffffffff1603611698576040517f08c379a000000000000000000000000000000000000000000000000000000000815260040161168f90613575565b60405180910390fd5b600073ffffffffffffffffffffffffffffffffffffffff168273ffffffffffffffffffffffffffffffffffffffff1603611707576040517f08c379a00000000000000000000000000000000000000000000000000000000081526004016116fe90613607565b60405180910390fd5b611712838383611fa4565b6000603360008573ffffffffffffffffffffffffffffffffffffffff1673ffffffffffffffffffffffffffffffffffffffff16815260200190815260200160002054905081811015611799576040517f08c379a000000000000000000000000000000000000000000000000000000000815260040161179090613699565b60405180910390fd5b818103603360008673ffffffffffffffffffffffffffffffffffffffff1673ffffffffffffffffffffffffffffffffffffffff1681526020019081526020016000208190555081603360008573ffffffffffffffffffffffffffffffffffffffff1673ffffffffffffffffffffffffffffffffffffffff168152602001908152602001600020600082825401925050819055508273ffffffffffffffffffffffffffffffffffffffff168473ffffffffffffffffffffffffffffffffffffffff167fddf252ad1be2c89b69c2b068fc378daa952ba7f163c4a11628f55a4df523b3ef84604051611889919061298a565b60405180910390a361189c848484611ffc565b50505050565b6118b3816118ae6113cc565b612001565b50565b6118c082826110d4565b61199357600160fb600084815260200190815260200160002060000160008373ffffffffffffffffffffffffffffffffffffffff1673ffffffffffffffffffffffffffffffffffffffff16815260200190815260200160002060006101000a81548160ff0219169083151502179055506119386113cc565b73ffffffffffffffffffffffffffffffffffffffff168173ffffffffffffffffffffffffffffffffffffffff16837f2f8788117e7eff1d82e926ec794901d17c78024a50270940304540a733656f0d60405160405180910390a45b5050565b6119a182826110d4565b15611a7557600060fb600084815260200190815260200160002060000160008373ffffffffffffffffffffffffffffffffffffffff1673ffffffffffffffffffffffffffffffffffffffff16815260200190815260200160002060006101000a81548160ff021916908315150217905550611a1a6113cc565b73ffffffffffffffffffffffffffffffffffffffff168173ffffffffffffffffffffffffffffffffffffffff16837ff6391f5c32d9c69d2a47ea670b442974b53935d1edc7fd64eb21e047a839171b60405160405180910390a45b5050565b6000611aa77f360894a13ba1a3210667c828492db98dca3e2076cc3735a920a3ca505d382bbc60001b612086565b60000160009054906101000a900473ffffffffffffffffffffffffffffffffffffffff16905090565b6000801b611add816118a2565b5050565b611b0d7f4910fdfa16fed3260ed0e7147f7cc6da11a60208b5b9406d12a635614ffd914360001b612090565b60000160009054906101000a900460ff1615611b3157611b2c8361209a565b611c4a565b8273ffffffffffffffffffffffffffffffffffffffff166352d1902d6040518163ffffffff1660e01b8152600401602060405180830381865afa925050508015611b9957506040513d601f19601f82011682018060405250810190611b9691906136ce565b60015b611bd8576040517f08c379a0000000000000000000000000000000000000000000000000000000008152600401611bcf9061376d565b60405180910390fd5b7f360894a13ba1a3210667c828492db98dca3e2076cc3735a920a3ca505d382bbc60001b8114611c3d576040517f08c379a0000000000000000000000000000000000000000000000000000000008152600401611c34906137ff565b60405180910390fd5b50611c49838383612153565b5b505050565b611c5761217f565b6000606560006101000a81548160ff0219169083151502179055507f5db9ee0a495bf2e6ff9c91a7834c1ba4fdd244a5e8aa4e537bd38aeae4b073aa611c9b6113cc565b604051611ca89190612f82565b60405180910390a1565b600073ffffffffffffffffffffffffffffffffffffffff168273ffffffffffffffffffffffffffffffffffffffff1603611d21576040517f08c379a0000000000000000000000000000000000000000000000000000000008152600401611d189061386b565b60405180910390fd5b611d2d60008383611fa4565b8060356000828254611d3f9190612f3f565b9250508190555080603360008473ffffffffffffffffffffffffffffffffffffffff1673ffffffffffffffffffffffffffffffffffffffff168152602001908152602001600020600082825401925050819055508173ffffffffffffffffffffffffffffffffffffffff16600073ffffffffffffffffffffffffffffffffffffffff167fddf252ad1be2c89b69c2b068fc378daa952ba7f163c4a11628f55a4df523b3ef83604051611df1919061298a565b60405180910390a3611e0560008383611ffc565b5050565b6000808273ffffffffffffffffffffffffffffffffffffffff163b119050919050565b600060019054906101000a900460ff16611e7b576040517f08c379a0000000000000000000000000000000000000000000000000000000008152600401611e72906138fd565b60405180910390fd5b611e8582826121c8565b5050565b600060019054906101000a900460ff16611ed8576040517f08c379a0000000000000000000000000000000000000000000000000000000008152600401611ecf906138fd565b60405180910390fd5b611ee061223b565b565b600060019054906101000a900460ff16611f31576040517f08c379a0000000000000000000000000000000000000000000000000000000008152600401611f28906138fd565b60405180910390fd5b565b611f3d82826118b6565b5050565b611f496122a7565b6001606560006101000a81548160ff0219169083151502179055507f62e78cea01bee320cd4e420270b5ea74000d11b0c9f74754ebdbfc544b05a258611f8d6113cc565b604051611f9a9190612f82565b60405180910390a1565b611faf8383836122f1565b611fb7610dc2565b15611ff7576040517f08c379a0000000000000000000000000000000000000000000000000000000008152600401611fee9061398f565b60405180910390fd5b505050565b505050565b61200b82826110d4565b61208257612018816122f6565b6120268360001c6020612323565b604051602001612037929190613a83565b6040516020818303038152906040526040517f08c379a00000000000000000000000000000000000000000000000000000000081526004016120799190612885565b60405180910390fd5b5050565b6000819050919050565b6000819050919050565b6120a381611e09565b6120e2576040517f08c379a00000000000000000000000000000000000000000000000000000000081526004016120d990613b2f565b60405180910390fd5b8061210f7f360894a13ba1a3210667c828492db98dca3e2076cc3735a920a3ca505d382bbc60001b612086565b60000160006101000a81548173ffffffffffffffffffffffffffffffffffffffff021916908373ffffffffffffffffffffffffffffffffffffffff16021790555050565b61215c8361255f565b6000825111806121695750805b1561217a5761217883836125ae565b505b505050565b612187610dc2565b6121c6576040517f08c379a00000000000000000000000000000000000000000000000000000000081526004016121bd90613b9b565b60405180910390fd5b565b600060019054906101000a900460ff16612217576040517f08c379a000000000000000000000000000000000000000000000000000000000815260040161220e906138fd565b60405180910390fd5b81603690816122269190613d5d565b5080603790816122369190613d5d565b505050565b600060019054906101000a900460ff1661228a576040517f08c379a0000000000000000000000000000000000000000000000000000000008152600401612281906138fd565b60405180910390fd5b6000606560006101000a81548160ff021916908315150217905550565b6122af610dc2565b156122ef576040517f08c379a00000000000000000000000000000000000000000000000000000000081526004016122e690613e7b565b60405180910390fd5b565b505050565b606061231c8273ffffffffffffffffffffffffffffffffffffffff16601460ff16612323565b9050919050565b606060006002836002612336919061323f565b6123409190612f3f565b67ffffffffffffffff81111561235957612358612b33565b5b6040519080825280601f01601f19166020018201604052801561238b5781602001600182028036833780820191505090505b5090507f3000000000000000000000000000000000000000000000000000000000000000816000815181106123c3576123c2613e9b565b5b60200101907effffffffffffffffffffffffffffffffffffffffffffffffffffffffffffff1916908160001a9053507f78000000000000000000000000000000000000000000000000000000000000008160018151811061242757612426613e9b565b5b60200101907effffffffffffffffffffffffffffffffffffffffffffffffffffffffffffff1916908160001a90535060006001846002612467919061323f565b6124719190612f3f565b90505b6001811115612511577f3031323334353637383961626364656600000000000000000000000000000000600f8616601081106124b3576124b2613e9b565b5b1a60f81b8282815181106124ca576124c9613e9b565b5b60200101907effffffffffffffffffffffffffffffffffffffffffffffffffffffffffffff1916908160001a905350600485901c94508061250a90613eca565b9050612474565b5060008414612555576040517f08c379a000000000000000000000000000000000000000000000000000000000815260040161254c90613f3f565b60405180910390fd5b8091505092915050565b6125688161209a565b8073ffffffffffffffffffffffffffffffffffffffff167fbc7cd75a20ee27fd9adebab32041f755214dbc6bffa90cc0225b39da2e5c2d3b60405160405180910390a250565b60606125d3838360405180606001604052806027815260200161402a602791396125db565b905092915050565b60606000808573ffffffffffffffffffffffffffffffffffffffff16856040516126059190613fa6565b600060405180830381855af49150503d8060008114612640576040519150601f19603f3d011682016040523d82523d6000602084013e612645565b606091505b509150915061265686838387612661565b925050509392505050565b606083156126c35760008351036126bb5761267b85611e09565b6126ba576040517f08c379a00000000000000000000000000000000000000000000000000000000081526004016126b190614009565b60405180910390fd5b5b8290506126ce565b6126cd83836126d6565b5b949350505050565b6000825111156126e95781518083602001fd5b806040517f08c379a000000000000000000000000000000000000000000000000000000000815260040161271d9190612885565b60405180910390fd5b6000604051905090565b600080fd5b600080fd5b60007fffffffff0000000000000000000000000000000000000000000000000000000082169050919050565b61276f8161273a565b811461277a57600080fd5b50565b60008135905061278c81612766565b92915050565b6000602082840312156127a8576127a7612730565b5b60006127b68482850161277d565b91505092915050565b60008115159050919050565b6127d4816127bf565b82525050565b60006020820190506127ef60008301846127cb565b92915050565b600081519050919050565b600082825260208201905092915050565b60005b8381101561282f578082015181840152602081019050612814565b60008484015250505050565b6000601f19601f8301169050919050565b6000612857826127f5565b6128618185612800565b9350612871818560208601612811565b61287a8161283b565b840191505092915050565b6000602082019050818103600083015261289f818461284c565b905092915050565b600073ffffffffffffffffffffffffffffffffffffffff82169050919050565b60006128d2826128a7565b9050919050565b6128e2816128c7565b81146128ed57600080fd5b50565b6000813590506128ff816128d9565b92915050565b6000819050919050565b61291881612905565b811461292357600080fd5b50565b6000813590506129358161290f565b92915050565b6000806040838503121561295257612951612730565b5b6000612960858286016128f0565b925050602061297185828601612926565b9150509250929050565b61298481612905565b82525050565b600060208201905061299f600083018461297b565b92915050565b6000806000606084860312156129be576129bd612730565b5b60006129cc868287016128f0565b93505060206129dd868287016128f0565b92505060406129ee86828701612926565b9150509250925092565b6000819050919050565b612a0b816129f8565b8114612a1657600080fd5b50565b600081359050612a2881612a02565b92915050565b600060208284031215612a4457612a43612730565b5b6000612a5284828501612a19565b91505092915050565b612a64816129f8565b82525050565b6000602082019050612a7f6000830184612a5b565b92915050565b60008060408385031215612a9c57612a9b612730565b5b6000612aaa85828601612a19565b9250506020612abb858286016128f0565b9150509250929050565b600060ff82169050919050565b612adb81612ac5565b82525050565b6000602082019050612af66000830184612ad2565b92915050565b600060208284031215612b1257612b11612730565b5b6000612b20848285016128f0565b91505092915050565b600080fd5b600080fd5b7f4e487b7100000000000000000000000000000000000000000000000000000000600052604160045260246000fd5b612b6b8261283b565b810181811067ffffffffffffffff82111715612b8a57612b89612b33565b5b80604052505050565b6000612b9d612726565b9050612ba98282612b62565b919050565b600067ffffffffffffffff821115612bc957612bc8612b33565b5b612bd28261283b565b9050602081019050919050565b82818337600083830152505050565b6000612c01612bfc84612bae565b612b93565b905082815260208101848484011115612c1d57612c1c612b2e565b5b612c28848285612bdf565b509392505050565b600082601f830112612c4557612c44612b29565b5b8135612c55848260208601612bee565b91505092915050565b60008060408385031215612c7557612c74612730565b5b6000612c83858286016128f0565b925050602083013567ffffffffffffffff811115612ca457612ca3612735565b5b612cb085828601612c30565b9150509250929050565b60008060408385031215612cd157612cd0612730565b5b6000612cdf858286016128f0565b9250506020612cf0858286016128f0565b9150509250929050565b7f4e487b7100000000000000000000000000000000000000000000000000000000600052602260045260246000fd5b60006002820490506001821680612d4157607f821691505b602082108103612d5457612d53612cfa565b5b50919050565b7f416363657373436f6e74726f6c3a2063616e206f6e6c792072656e6f756e636560008201527f20726f6c657320666f722073656c660000000000000000000000000000000000602082015250565b6000612db6602f83612800565b9150612dc182612d5a565b604082019050919050565b60006020820190508181036000830152612de581612da9565b9050919050565b7f46756e6374696f6e206d7573742062652063616c6c6564207468726f7567682060008201527f64656c656761746563616c6c0000000000000000000000000000000000000000602082015250565b6000612e48602c83612800565b9150612e5382612dec565b604082019050919050565b60006020820190508181036000830152612e7781612e3b565b9050919050565b7f46756e6374696f6e206d7573742062652063616c6c6564207468726f7567682060008201527f6163746976652070726f78790000000000000000000000000000000000000000602082015250565b6000612eda602c83612800565b9150612ee582612e7e565b604082019050919050565b60006020820190508181036000830152612f0981612ecd565b9050919050565b7f4e487b7100000000000000000000000000000000000000000000000000000000600052601160045260246000fd5b6000612f4a82612905565b9150612f5583612905565b9250828201905080821115612f6d57612f6c612f10565b5b92915050565b612f7c816128c7565b82525050565b6000602082019050612f976000830184612f73565b92915050565b7f555550535570677261646561626c653a206d757374206e6f742062652063616c60008201527f6c6564207468726f7567682064656c656761746563616c6c0000000000000000602082015250565b6000612ff9603883612800565b915061300482612f9d565b604082019050919050565b6000602082019050818103600083015261302881612fec565b9050919050565b7f496e697469616c697a61626c653a20636f6e747261637420697320616c72656160008201527f647920696e697469616c697a6564000000000000000000000000000000000000602082015250565b600061308b602e83612800565b91506130968261302f565b604082019050919050565b600060208201905081810360008301526130ba8161307e565b9050919050565b60008160011c9050919050565b6000808291508390505b6001851115613118578086048111156130f4576130f3612f10565b5b60018516156131035780820291505b8081029050613111856130c1565b94506130d8565b94509492505050565b60008261313157600190506131ed565b8161313f57600090506131ed565b8160018114613155576002811461315f5761318e565b60019150506131ed565b60ff84111561317157613170612f10565b5b8360020a91508482111561318857613187612f10565b5b506131ed565b5060208310610133831016604e8410600b84101617156131c35782820a9050838111156131be576131bd612f10565b5b6131ed565b6131d084848460016130ce565b925090508184048111156131e7576131e6612f10565b5b81810290505b9392505050565b60006131ff82612905565b915061320a83612ac5565b92506132377fffffffffffffffffffffffffffffffffffffffffffffffffffffffffffffffff8484613121565b905092915050565b600061324a82612905565b915061325583612905565b925082820261326381612905565b9150828204841483151761327a57613279612f10565b5b5092915050565b6000819050919050565b6000819050919050565b60006132b06132ab6132a684613281565b61328b565b612ac5565b9050919050565b6132c081613295565b82525050565b60006020820190506132db60008301846132b7565b92915050565b7f45524332303a2064656372656173656420616c6c6f77616e63652062656c6f7760008201527f207a65726f000000000000000000000000000000000000000000000000000000602082015250565b600061333d602583612800565b9150613348826132e1565b604082019050919050565b6000602082019050818103600083015261336c81613330565b9050919050565b7f45524332303a20617070726f76652066726f6d20746865207a65726f2061646460008201527f7265737300000000000000000000000000000000000000000000000000000000602082015250565b60006133cf602483612800565b91506133da82613373565b604082019050919050565b600060208201905081810360008301526133fe816133c2565b9050919050565b7f45524332303a20617070726f766520746f20746865207a65726f20616464726560008201527f7373000000000000000000000000000000000000000000000000000000000000602082015250565b6000613461602283612800565b915061346c82613405565b604082019050919050565b6000602082019050818103600083015261349081613454565b9050919050565b7f45524332303a20696e73756666696369656e7420616c6c6f77616e6365000000600082015250565b60006134cd601d83612800565b91506134d882613497565b602082019050919050565b600060208201905081810360008301526134fc816134c0565b9050919050565b7f45524332303a207472616e736665722066726f6d20746865207a65726f20616460008201527f6472657373000000000000000000000000000000000000000000000000000000602082015250565b600061355f602583612800565b915061356a82613503565b604082019050919050565b6000602082019050818103600083015261358e81613552565b9050919050565b7f45524332303a207472616e7366657220746f20746865207a65726f206164647260008201527f6573730000000000000000000000000000000000000000000000000000000000602082015250565b60006135f1602383612800565b91506135fc82613595565b604082019050919050565b60006020820190508181036000830152613620816135e4565b9050919050565b7f45524332303a207472616e7366657220616d6f756e742065786365656473206260008201527f616c616e63650000000000000000000000000000000000000000000000000000602082015250565b6000613683602683612800565b915061368e82613627565b604082019050919050565b600060208201905081810360008301526136b281613676565b9050919050565b6000815190506136c881612a02565b92915050565b6000602082840312156136e4576136e3612730565b5b60006136f2848285016136b9565b91505092915050565b7f45524331393637557067726164653a206e657720696d706c656d656e7461746960008201527f6f6e206973206e6f742055555053000000000000000000000000000000000000602082015250565b6000613757602e83612800565b9150613762826136fb565b604082019050919050565b600060208201905081810360008301526137868161374a565b9050919050565b7f45524331393637557067726164653a20756e737570706f727465642070726f7860008201527f6961626c65555549440000000000000000000000000000000000000000000000602082015250565b60006137e9602983612800565b91506137f48261378d565b604082019050919050565b60006020820190508181036000830152613818816137dc565b9050919050565b7f45524332303a206d696e7420746f20746865207a65726f206164647265737300600082015250565b6000613855601f83612800565b91506138608261381f565b602082019050919050565b6000602082019050818103600083015261388481613848565b9050919050565b7f496e697469616c697a61626c653a20636f6e7472616374206973206e6f74206960008201527f6e697469616c697a696e67000000000000000000000000000000000000000000602082015250565b60006138e7602b83612800565b91506138f28261388b565b604082019050919050565b60006020820190508181036000830152613916816138da565b9050919050565b7f45524332305061757361626c653a20746f6b656e207472616e7366657220776860008201527f696c652070617573656400000000000000000000000000000000000000000000602082015250565b6000613979602a83612800565b91506139848261391d565b604082019050919050565b600060208201905081810360008301526139a88161396c565b9050919050565b600081905092915050565b7f416363657373436f6e74726f6c3a206163636f756e7420000000000000000000600082015250565b60006139f06017836139af565b91506139fb826139ba565b601782019050919050565b6000613a11826127f5565b613a1b81856139af565b9350613a2b818560208601612811565b80840191505092915050565b7f206973206d697373696e6720726f6c6520000000000000000000000000000000600082015250565b6000613a6d6011836139af565b9150613a7882613a37565b601182019050919050565b6000613a8e826139e3565b9150613a9a8285613a06565b9150613aa582613a60565b9150613ab18284613a06565b91508190509392505050565b7f455243313936373a206e657720696d706c656d656e746174696f6e206973206e60008201527f6f74206120636f6e747261637400000000000000000000000000000000000000602082015250565b6000613b19602d83612800565b9150613b2482613abd565b604082019050919050565b60006020820190508181036000830152613b4881613b0c565b9050919050565b7f5061757361626c653a206e6f7420706175736564000000000000000000000000600082015250565b6000613b85601483612800565b9150613b9082613b4f565b602082019050919050565b60006020820190508181036000830152613bb481613b78565b9050919050565b60008190508160005260206000209050919050565b60006020601f8301049050919050565b600082821b905092915050565b600060088302613c1d7fffffffffffffffffffffffffffffffffffffffffffffffffffffffffffffffff82613be0565b613c278683613be0565b95508019841693508086168417925050509392505050565b6000613c5a613c55613c5084612905565b61328b565b612905565b9050919050565b6000819050919050565b613c7483613c3f565b613c88613c8082613c61565b848454613bed565b825550505050565b600090565b613c9d613c90565b613ca8818484613c6b565b505050565b5b81811015613ccc57613cc1600082613c95565b600181019050613cae565b5050565b601f821115613d1157613ce281613bbb565b613ceb84613bd0565b81016020851015613cfa578190505b613d0e613d0685613bd0565b830182613cad565b50505b505050565b600082821c905092915050565b6000613d3460001984600802613d16565b1980831691505092915050565b6000613d4d8383613d23565b9150826002028217905092915050565b613d66826127f5565b67ffffffffffffffff811115613d7f57613d7e612b33565b5b613d898254612d29565b613d94828285613cd0565b600060209050601f831160018114613dc75760008415613db5578287015190505b613dbf8582613d41565b865550613e27565b601f198416613dd586613bbb565b60005b82811015613dfd57848901518255600182019150602085019450602081019050613dd8565b86831015613e1a5784890151613e16601f891682613d23565b8355505b6001600288020188555050505b505050505050565b7f5061757361626c653a2070617573656400000000000000000000000000000000600082015250565b6000613e65601083612800565b9150613e7082613e2f565b602082019050919050565b60006020820190508181036000830152613e9481613e58565b9050919050565b7f4e487b7100000000000000000000000000000000000000000000000000000000600052603260045260246000fd5b6000613ed582612905565b915060008203613ee857613ee7612f10565b5b600182039050919050565b7f537472696e67733a20686578206c656e67746820696e73756666696369656e74600082015250565b6000613f29602083612800565b9150613f3482613ef3565b602082019050919050565b60006020820190508181036000830152613f5881613f1c565b9050919050565b600081519050919050565b600081905092915050565b6000613f8082613f5f565b613f8a8185613f6a565b9350613f9a818560208601612811565b80840191505092915050565b6000613fb28284613f75565b915081905092915050565b7f416464726573733a2063616c6c20746f206e6f6e2d636f6e7472616374000000600082015250565b6000613ff3601d83612800565b9150613ffe82613fbd565b602082019050919050565b6000602082019050818103600083015261402281613fe6565b905091905056fe416464726573733a206c6f772d6c6576656c2064656c65676174652063616c6c206661696c6564a264697066735822122096f4f9a1e822498e6c418bb43ac953611c104a0a1b5dd0130096fb8a7738c26364736f6c63430008130033",
  "linkReferences": {},
  "deployedLinkReferences": {}
}